:020000040003F7
:20800000C200C201900002742CF0A37400F0A3E4F09000187435F0A37400F0A3E4F09000EC
:2080200000F0A3F090002CE4F0A3F0900034E4F0E4C0E090000075F0001255E21581E4C006
:20804000E090001675F000125638158102009590000BE0FAF582020095C071858171C082FB
:20806000C083C0F0058105810581A8710886820886830886F0127AC3FDA3127AC3FEBD00CA
:2080800005BE0002802FBD8305BE0002806DBD8706BE000302811BBD9C06BE00030282E845
:2080A000BDB006BE000302840CBDBD06BE00030284C602860CA87108740C26FDE40836FEF5
:2080C000088607C005C006C00778E979957A03120083AA82D007D006D0058D828E838FF0EB
:2080E000EA126CBBC200A8710886820886830886F07483126CBBA3E4126CBB900358E070B8
:2081000005F582028623A8710886820886830886F07487126CBBA3E4126CBB900358E07051
:20812000030281BEA87108740526FDE40836FE088607758200C005C006C007124F5EAA8255
:20814000AB83D007D006D0058D828E838FF0EA126CBBA3EB126CBB900359E0FDA3E0FEC3D9
:20816000EA9DEB64808EF063F08095F04050A87108740726FDE40836FE088607758201C017
:2081800005C006C007124F5EAA82AB83D007D006D0058D828E838FF0EA126CBBA3EB126CE4
:2081A000BB900359E0FDA3E0FEC3EA9DEB64808EF063F08095F04006758200028623900350
:2081C00058E070030280E4A87108740526FDE40836FE0886078D828E838FF0127AC3FDA38E
:2081E000127AC3FE900359E0FAA3E0FBC3ED9AEE64808BF063F08095F05035A87108740BDA
:2082000026FAE40836FB0886048A828B838CF0E4126CBBA87108740926FAE40836FB088673
:20822000048A828B838CF0ED126CBBA3EE126CBBA87108740726FDE40836FE0886078D8231
:208240008E838FF0127AC3FDA3127AC3FE900359E0FAA3E0FBC3ED9AEE64808BF063F080A4
:2082600095F05036A87108740B26FAE40836FB0886048A828B838CF07401126CBBA871081F
:20828000740926FAE40836FB0886048A828B838CF0ED126CBBA3EE126CBBA87108740C2645
:2082A000FDE40836FE0886078D828E838FF0127AC3FD9002F47470F0A37417F0A3E4F0A38F
:2082C000F09002F8E4F0A3F08D82788079967A03120083A8710886820886830886F0749CCD
:2082E000126CBBA3E4126CBB900358E07003028386A87108740526FDE40836FE088607A822
:208300007108740B26FAE40836FB0886048A828B838CF0127AC3F582C005C006C007124F87
:208320005EAB82AC83D007D006D0058D828E838FF0EB126CBBA3EC126CBB900359E0FDA30A
:20834000E0FEC3EB9DEC64808EF063F08095F05035A87108740C26FBE40836FC0886058BCB
:20836000828C838DF0127AC3F582781979977A03120083AB82AC83ADF0FEEB4C4D4E600647
:20838000758200028623A87108740C26FBE40836FC0886058B828C838DF0127AC3F582C0A9
:2083A00003C004C005786379977A03120083D005D004D003900358E070030280E48B828C7B
:2083C000838DF0127AC3F582781979977A03120083AB82AC83ADF0FEEB4C4D4E6003028076
:2083E000E47401C0E0A8710886820886830886F01255E21581D200A87108868208868308D9
:2084000086F074B0126CBBA3E4126CBB900358E0604BA87108740B26FBE40836FC088605E1
:208420008B828C838DF0127AC3F582124F5EAB82AC83900359E0FAA3E0FE900366E0FFA300
:20844000E0FDEF2AFFED3EFDC3EB9FEC64808DF063F08095F050067582000286239003582A
:20846000E07015C0E0A8710886820886830886F01255E215810280E4A87108740C26FBE454
:208480000836FC0886058B828C838DF0127AC3FB9002F47470F0A37417F0A3E4F0A3F0901A
:2084A00002F8E4F0A3F08B82788079967A03120083A8710886820886830886F074BD126CCE
:2084C000BBA3E4126CBB900358E07003028574A87108E5712404F9740526F7E4083609F798
:2084E0000809E6F7A87108740B26FEE40836FF0886038E828F838BF0127AC3F582124F5EF6
:20850000AB82AC83E5712404F886820886830886F0EB126CBBA3EC126CBB900359E0FAA39D
:20852000E0FE900366E0FFA3E0FDEF2AFFED3EFDC3EB9FEC64808DF063F08095F04035A8B6
:208540007108740C26FBE40836FC0886058B828C838DF0127AC3F582781979977A031200C1
:2085600083AB82AC83ADF0FEEB4C4D4E6006758200028623A87108740C26FBE40836FC08BF
:2085800086058B828C838DF0127AC3F582C003C004C005786379977A03120083D005D004FF
:2085A000D003900358E07015C0E0A8710886820886830886F01255E215810280E48B828C62
:2085C000838DF0127AC3F582781979977A03120083AB82AC83ADF0FEEB4C4D4E6003028371
:2085E000F7E4C0E0A8710886820886830886F01255E21581900034E4F09002A6F0758201B1
:208600007854798C7A021200830280E4A8710886820886830886F0E4126CBBA3E4126CBB7D
:20862000758202857181D071020095C071858171C082C083C0F0058105810581A8710886DC
:20864000820886830886F0127AC3FDA3127AC3FEBD0005BE0002802FBDE405BE0002806D49
:20866000BDE806BE00030286EDBDFC06BE00030288BABD1306BE01030289DFBD2006BE01B1
:2086800003028A9B028BE2A87108740C26FDE40836FE088607C005C006C00778E979957A8D
:2086A00003120083AA82D007D006D0058D828E838FF0EA126CBBC201A871088682088683B5
:2086C0000886F074E4126CBBA3E4126CBB90035BE07005F582028BF9A87108868208868351
:2086E0000886F074E8126CBBA3E4126CBB90035BE07003028790A87108740526FDE408366E
:20870000FE088607758200C005C006C007124F5EAA82AB83D007D006D0058D828E838FF043
:20872000EA126CBBA3EB126CBB90035CE0FDA3E0FEC3ED9AEE64808BF063F08095F0405083
:20874000A87108740726FDE40836FE088607758201C005C006C007124F5EAA82AB83D0076B
:20876000D006D0058D828E838FF0EA126CBBA3EB126CBB90035CE0FDA3E0FEC3ED9AEE64DC
:20878000808BF063F08095F04006758200028BF990035BE070030286B6A87108740526FD87
:2087A000E40836FE0886078D828E838FF0127AC3FDA3127AC3FE90035CE0FAA3E0FBC3EA35
:2087C0009DEB64808EF063F08095F05035A87108740B26FAE40836FB0886048A828B838CBD
:2087E000F0E4126CBBA87108740926FAE40836FB0886048A828B838CF0ED126CBBA3EE12A0
:208800006CBBA87108740726FDE40836FE0886078D828E838FF0127AC3FDA3127AC3FE9052
:20882000035CE0FAA3E0FBC3EA9DEB64808EF063F08095F05036A87108740B26FAE408362A
:20884000FB0886048A828B838CF07401126CBBA87108740926FAE40836FB0886048A828B43
:20886000838CF0ED126CBBA3EE126CBBA87108740C26FDE40836FE0886078D828E838FF0F1
:20888000127AC3FD9002F47470F0A37417F0A3E4F0A3F09002F8E4F0A3F08D827880799603
:2088A0007A03120083A8710886820886830886F074FC126CBBA3E4126CBB90035BE0700344
:2088C000028958A87108740526FDE40836FE088607A87108740B26FAE40836FB0886048A4A
:2088E000828B838CF0127AC3F582C005C006C007124F5EAB82AC83D007D006D0058D828E1A
:20890000838FF0EB126CBBA3EC126CBB90035CE0FDA3E0FEC3ED9BEE64808CF063F080951B
:20892000F05035A87108740C26FBE40836FC0886058B828C838DF0127AC3F582781979974F
:208940007A03120083AB82AC83ADF0FEEB4C4D4E6006758200028BF9A87108740C26FBE4B3
:208960000836FC0886058B828C838DF0127AC3F582C003C004C005786379977A0312008382
:20898000D005D004D00390035BE070030286B68B828C838DF0127AC3F582781979977A035F
:2089A000120083AB82AC83ADF0FEEB4C4D4E60030286B67401C0E0A8710886820886830861
:2089C00086F01256381581D201A8710886820886830886F07413126CBBA37401126CBB90BF
:2089E000035BE0604CA87108740B26FBE40836FC0886058B828C838DF0127AC3F582124F5B
:208A00005EAB82AC8390035CE0FAA3E0FE900366E0FFA3E0FDEAC39FFFEE9DFDC3EF9BEDED
:208A200064808CF063F08095F05006758200028BF990035BE07015C0E0A871088682088601
:208A4000830886F012563815810286B6A87108740C26FBE40836FC0886058B828C838DF095
:208A6000127AC3FB9002F47470F0A37417F0A3E4F0A3F09002F8E4F0A3F08B827880799625
:208A80007A03120083A8710886820886830886F07420126CBBA37401126CBB90035BE070B0
:208AA00003028B4AA87108E5712404F9740526F7E4083609F70809E6F7A87108740B26FEDA
:208AC000E40836FF0886038E828F838BF0127AC3F582124F5EAB82AC83E5712404F88682E8
:208AE0000886830886F0EB126CBBA3EC126CBB90035CE0FAA3E0FE900366E0FFA3E0FDEA6F
:208B0000C39FFFEE9DFDC3EF9BED64808CF063F08095F04035A87108740C26FBE40836FC25
:208B20000886058B828C838DF0127AC3F582781979977A03120083AB82AC83ADF0FEEB4C62
:208B40004D4E6006758200028BF9A87108740C26FBE40836FC0886058B828C838DF0127AFF
:208B6000C3F582C003C004C005786379977A03120083D005D004D00390035BE07015C0E003
:208B8000A8710886820886830886F012563815810286B68B828C838DF0127AC3F5827819B9
:208BA00079977A03120083AB82AC83ADF0FEEB4C4D4E60030289C9E4C0E0A871088682085E
:208BC00086830886F0125638158190003DE4F09002A6F07582017854798C7A021200830233
:208BE00086B6A8710886820886830886F0E4126CBBA3E4126CBB758202857181D0710200F1
:208C000095C071858171C082C083C0F0E5812408F581A8710886820886830886F0127AC3D3
:208C2000FDA3127AC3FEBD0005BE00028026BD4405BE01028063BD4A06BE0103028CBABDA1
:208C40005D06BE0103028E50BD7D06BE0103028FFD02903DA87108740226FDE40836FE08CE
:208C60008607C005C006C00778E979957A03120083AA82D007D006D0058D828E838FF0EA5D
:208C8000126CBBA8710886820886830886F07444126CBBA37401126CBB90035EE07005F566
:208CA00082029054A8710886820886830886F0744A126CBBA37401126CBBA871087403268E
:208CC000FDE40836FE088607758200C005C006C007124F5EA87108080808A68208A683D078
:208CE00007D006D0058D828E838FF0E5712404F8E6126CBBA308E6126CBB90035FE0FAA355
:208D0000E0FBE5712404F8C3E69A08E664808BF063F08095F0405CC005C006C007A871080B
:208D2000740526FDE40836FE088607758201C005C006C007124F5EAA82AB83D007D006D002
:208D4000058D828E838FF0EA126CBBA3EB126CBB90035FE0FCA3E0FDC3EA9CEB64808DF0A2
:208D600063F08095F0D007D006D005400675820002905490035EE07003028C838D828E8381
:208D80008FF0127AC3FDA3127AC3FE90035FE0FAA3E0FBC3ED9AEE64808BF063F08095F0DF
:208DA000501AA87108740726FCE40836FD0886068C828D838EF0E4126CBB8045A8710874C5
:208DC0000526FCE40836FD0886068C828D838EF0127AC3FCA3127AC3FDC3EC9AED64808B3E
:208DE000F063F08095F05019A87108740726FAE40836FB0886048A828B838CF07401126CCE
:208E0000BBA87108740226FAE40836FB0886048A828B838CF0127AC3FA9002F474B8F0A30D
:208E2000740BF0A3E4F0A3F09002F8E4F0A3F08A82788079967A03120083A8710886820872
:208E400086830886F0745D126CBBA37401126CBBA87108740726FAE40836FB0886048A82B9
:208E60008B838CF0127AC3F582124F5EAA82AB8390035FE0FCA3E0FDC3EA9CEB64808DF0A6
:208E800063F08095F0503BA87108740226FAE40836FB0886048A828B838CF0127AC3F5822D
:208EA000781979977A03120083AA82AB83ACF0FDEA4B4C4D600C90035EE0600675820002A2
:208EC0009054A87108E5712406F9740226F7E4083609F70809E6F7E5712406F88682088663
:208EE000830886F0127AC3F582786379977A0312008390035EE07003028C83E5712406F8E1
:208F000086820886830886F0127AC3F582781979977A03120083AD82AE83AFF0FAED4E4FBE
:208F20004A6003028FB5A87108740826FAE40836FB0886048A828B838CF0127AC3FD24F5D7
:208F400040730D8A828B838CF0ED126CBB9002A67432F07582027854798C7A02120083905C
:208F6000802075F080127AABAA82AB839000A7E4F0A3F0A3F09000AA7468F0A37403F0A3F7
:208F8000E4F09000AD7400F0A37480F0A37480F09000B07420F0A37480F0A37480F09000EC
:208FA000B3EAF0A3EBF090033A75F00012122FE5827002C293E5712406F88682088683085A
:208FC00086F0127AC3FA9002F47430F0A37475F0A3E4F0A3F09002F8E4F0A3F08A8278803D
:208FE00079967A03120083A8710886820886830886F0747D126CBBA37401126CBBA87108FC
:20900000740226FAE40836FB0886048A828B838CF0127AC3F582781979977A03120083AA52
:2090200082AB83ACF0FDEA4B4C4D7003028C8390035EE07003028C837582008017A8710891
:2090400086820886830886F0E4126CBBA3E4126CBB758202857181D071020095C07185811D
:2090600071C082C083C0F0E5812408F581A8710886820886830886F0127AC3FDA3127AC34C
:20908000FEBD0005BE00028026BD9205BE01028063BD9806BE0103029115BDAB06BE0103BD
:2090A0000292ABBDCB06BE0103029458029498A87108740226FDE40836FE088607C005C011
:2090C00006C00778E979957A03120083AA82D007D006D0058D828E838FF0EA126CBBA871B9
:2090E0000886820886830886F07492126CBBA37401126CBB900361E07005F5820294AFA894
:20910000710886820886830886F07498126CBBA37401126CBBA87108740326FDE40836FECE
:20912000088607758200C005C006C007124F5EA87108080808A68208A683D007D006D0057E
:209140008D828E838FF0E5712404F8E6126CBBA308E6126CBB900362E0FAA3E0FBE571244A
:2091600004F8C3EA96EB64800886F063F08095F0405CC005C006C007A87108740526FDE47C
:209180000836FE088607758201C005C006C007124F5EAA82AB83D007D006D0058D828E83F9
:2091A0008FF0EA126CBBA3EB126CBB900362E0FCA3E0FDC3EC9AED64808BF063F08095F008
:2091C000D007D006D00540067582000294AF900361E070030290DE8D828E838FF0127AC3E6
:2091E000FDA3127AC3FE900362E0FAA3E0FBC3EA9DEB64808EF063F08095F0501AA87108BB
:20920000740726FCE40836FD0886068C828D838EF0E4126CBB8045A87108740526FCE408D8
:2092200036FD0886068C828D838EF0127AC3FCA3127AC3FDC3EA9CEB64808DF063F0809594
:20924000F05019A87108740726FAE40836FB0886048A828B838CF07401126CBBA871087471
:209260000226FAE40836FB0886048A828B838CF0127AC3FA9002F474B8F0A3740BF0A3E403
:20928000F0A3F09002F8E4F0A3F08A82788079967A03120083A8710886820886830886F07D
:2092A00074AB126CBBA37401126CBBA87108740726FAE40836FB0886048A828B838CF012F2
:2092C0007AC3F582124F5EAA82AB83900362E0FCA3E0FDC3EC9AED64808BF063F08095F083
:2092E000503BA87108740226FAE40836FB0886048A828B838CF0127AC3F582781979977A06
:2093000003120083AA82AB83ACF0FDEA4B4C4D600C900361E060067582000294AFA87108F1
:20932000E5712406F9740226F7E4083609F70809E6F7E5712406F886820886830886F012F0
:209340007AC3F582786379977A03120083900361E070030290DEE5712406F8868208868314
:209360000886F0127AC3F582781979977A03120083AD82AE83AFF0FAED4E4F4A6003029430
:2093800010A87108740826FAE40836FB0886048A828B838CF0127AC3FD24F540730D8A828A
:2093A0008B838CF0ED126CBB9002A67432F07582027854798C7A0212008390805175F0800E
:2093C000127AABAA82AB839000A7E4F0A3F0A3F09000AA7468F0A37403F0A3E4F09000AD07
:2093E0007400F0A37480F0A37480F09000B07451F0A37480F0A37480F09000B3EAF0A3EB4D
:20940000F090033A75F00012122FE5827002C293E5712406F886820886830886F0127AC34B
:20942000FA9002F47430F0A37475F0A3E4F0A3F09002F8E4F0A3F08A82788079967A0312FF
:209440000083A8710886820886830886F074CB126CBBA37401126CBBA87108740226FAE46D
:209460000836FB0886048A828B838CF0127AC3F582781979977A03120083AA82AB83ACF01C
:20948000FDEA4B4C4D70030290DE900361E070030290DE7582008017A8710886820886839F
:2094A0000886F0E4126CBBA3E4126CBB758202857181D07102009590000DE0FABA015790F0
:2094C0000012E0FAA3E0FBA3E0FCA3E0FDC002C003C004C0051260C6AE82AF83A8F0F9D01A
:2094E00005D004D003D002EE2AFAEF3BFBE83CFCE93DFD90000EE0FEA3E0FFA3E0F8A3E078
:20950000F9EAC39EFAEB9FFBEC98FCED99FD8A828B838CF08014900012E0FAA3E0FBA3E0DE
:20952000FCA3E0FD8A828B838CF0020095900023E0FABA0157900028E0FAA3E0FBA3E0FC54
:20954000A3E0FDC002C003C004C0051260C6AE82AF83A8F0F9D005D004D003D002EE2AFAF2
:20956000EF3BFBE83CFCE93DFD900024E0FEA3E0FFA3E0F8A3E0F9EAC39EFAEB9FFBEC982A
:20958000FCED99FD8A828B838CF08014900028E0FAA3E0FBA3E0FCA3E0FD8A828B838CF07D
:2095A0000200957A00BA0A005035EA24D3F582E43402F5837401F0EA2A25E024ABF582E4BF
:2095C0003402F583E4F0A3F0A3F0A3F0EA2AFB24DDF582E43402F583E4F0A3F00A80C690F0
:2095E00002F1E4F0A3F0020095C2A97A00BA0A00504FEA24D3FBE43402FC8B828C83E0FD47
:20960000BD013B8B828C837402F0EA2A25E024ABF582E43402F583E4F0A3F0A3F0A3F0EA67
:209620002A24DDF582E43402F583E4F0A3F0D2A9901255E0FB90125504F08A8280080A8039
:20964000ACD2A97582FF020095E5829002F3F0C2A99002F3E024D3FAE43402FB8A828B838A
:20966000E0FCBC010280118A828B837401F0901255E0FA14901255F0D2A97582000200956A
:20968000E5829002FAF0C2A99002FAE0FA25E025E024ABFBE43402FC9002F4E0FDA3E0FE48
:2096A000A3E0FFA3E0F88B828C83EDF0A3EEF0A3EFF0A3E8F0EA2A24DDFBE43402FC90027E
:2096C000F8E0FDA3E0FE8B828C83EDF0A3EEF0EA24D3F582E43402F583E4F0D2A9020095EA
:2096E000E5829002FFF0C2A99002FFE025E025E024ABFAE43402FB9002FBE0FCA3E0FDA332
:20970000E0FEA3E0FF8A828B83ECF0A3EDF0A3EEF0A3EFF0D2A9020095E582900300F0C2B2
:20972000A9900300E025E025E024ABF582E43402F583E0FAA3E0FBA3E0FCA3E0FDD2A98ACF
:20974000828B838CF0ED020095E582900301F0900301E024D3F582E43402F583E0FAF582C9
:20976000020095E582900302F0C2A9900302E0FA24D3F582E43402F5837403F0D2A90200A8
:2097800095E582900303F0C2A9900303E0FA24D3F582E43402F583E4F0D2A9020095AAF0EC
:2097A000AB83E582900304F0A3EBF0A3EAF0900304E0FAA3E0FBA3E0FC8A828B838CF0127C
:2097C0007AC3FDA3127AC3FEBD0005BE0002800BBDFC05BE0002801E02984A900304E0FDDE
:2097E000A3E0FEA3E0FF8D828E838FF074FC126CBBA3E4126CBB200405758200805EC2A9F5
:20980000C2047D00BD0A00503DED24D3F582E43402F583E0FEBE042BED2D24DDF582E4344F
:2098200002F583E0FEA3E0FFC005C006C007743DC0E07498C0E0C006C0078D8222D007D09A
:1F98400006D0050D80BED2A980918A828B838CF0E4126CBBA3E4126CBB75820202009554
:00000001FF
