:020000040000FA
:0400000002009A322E
:03000B000260DFB1
:0100130032BA
:01001B0032B2
:0100230032AA
:01002B0032A2
:01003300329A
:01003B003292
:01004300328A
:01004B003282
:01005300327A
:01005B003272
:01006300326A
:01006B003262
:01007300325A
:20007B00024D01125AA580FEC0B1C8C0E0E9C0E0EA540F53B1F042B1C822D0B122E4737597
:20009B00818F127ADFE582600302007E7926E94400601B7A0190AA49783675A212E493F2FB
:2000BB00A308B8000205A2D9F4DAF275A2FFE478FFF6D8FD7800E84400600A790075A200A6
:2000DB00E4F309D8FC7836E84412600C7913900000E4F0A3D8FCD9FAC202C20390013EE483
:2000FB00F002007E90003EE0FAA3E0FBBA0006BB00030202D5BA6E06BB00030202DEBA77F9
:20011B0006BB000302034CBA7806BB000302038EBA7906BB00030203E4BA7B06BB0003024B
:20013B00042ABA7C06BB000302046CBA7D06BB00030204C2BA8106BB0003020504BA8406F9
:20015B00BB0003020552BA8506BB0003020594BA8706BB00030205D6BA9306BB00030206D4
:20017B0056BA9406BB0003020697BA9606BB00030206D9BAA206BB0003020759BAA306BBC8
:20019B00000302079ABAA606BB00030207DCBAB106BB0003020846BAB206BB000302088854
:2001BB00BAB506BB00030208DEBAB706BB0003020920BABF06BB0003020966BAC006BB00C0
:2001DB00030209A8BAC106BB00030209FEBAC306BB0003020A40BACC06BB0003020A9DBACC
:2001FB00CD06BB0003020ADFBACE06BB0003020B35BAD006BB0003020B77BAD906BB0003B1
:20021B00020BBDBADB06BB0003020BFFBAE306BB0003020C45BAE406BB0003020C87BAE54A
:20023B0006BB0003020CDDBAE806BB0003020D32BAE906BB0003020D74BAEA06BB000302F9
:20025B000DCABAED06BB0003020E0CBAEE06BB0003020E4EBAEF06BB0003020EA4BAF10689
:20027B00BB0003020EE6BAF206BB0003020F28BAF306BB0003020F7EBAF506BB0003020F82
:20029B00C0BAF606BB0003021002BAF706BB0003021044BAF906BB0003021086BAFB06BBAB
:2002BB0000030210CBBAFD06BB000302110DBA0506BB010302115402119390003E746EF077
:2002DB00A3E4F09003BF740AF090003E75F000787C799D7A02120083E5827003F58222907B
:2002FB0011AA7481F0A37480F0A37480F09011AD7403F0E4A3F090007075F000126815E530
:20031B00828583F045F060179005767410F075820112607690003EE4F0A3F075820122905E
:20033B000390E0600302042190003E7477F0A3E4F090808D75F080127AABAA82AB839003DF
:20035B00A9748DF0A37480F0A37480F09003ACEAF0A3EBF090003E75F000784479997A02C6
:20037B00120083E5827003F5822290003E7478F0A3E4F090007AE0FAA3E0FBA3E0FC8A824C
:20039B008B838CF0C002C003C004127AABAD82AE83D004D003D0029003A9EAF0A3EBF0A328
:2003BB00ECF09003ACEDF0A3EEF090003E75F000784479997A02120083E5827003F5822224
:2003DB0090003E7479F0A3E4F090811375F080127AABAA82AB839003A97413F0A37481F00B
:2003FB00A37480F09003ACEAF0A3EBF090003E75F000784479997A02120083E582600302E6
:20041B00083D7582002290003E747BF0A3E4F090809375F080127AABAA82AB839003A97476
:20043B0093F0A37480F0A37480F09003ACEAF0A3EBF090003E75F000784479997A021200EA
:20045B0083E5827003F5822290003E747CF0A3E4F090007AE0FAA3E0FBA3E0FC8A828B836B
:20047B008CF0C002C003C004127AABAD82AE83D004D003D0029003A9EAF0A3EBF0A3ECF079
:20049B009003ACEDF0A3EEF090003E75F000784479997A02120083E5827003F5822290008F
:2004BB003E747DF0A3E4F090811375F080127AABAA82AB839003A97413F0A37481F0A3749F
:2004DB0080F09003ACEAF0A3EBF090003E75F000784479997A02120083E5827003F5822275
:2004FB0090003E7481F0A3E4F09003BF740AF090003E75F000787C799D7A02120083E58242
:20051B007003F582229011AA74F9F0A37480F0A37480F09011AD7407F0E4A3F09000707559
:20053B00F000126815E5828583F045F070B290003E7484F0A3E4F090810175F080127AAB10
:20055B00AA82AB839003A97401F0A37481F0A37480F09003ACEAF0A3EBF090003E75F000AC
:20057B00784479997A02120083E5827003F5822290003E7485F0A3E4F090811375F08012C5
:20059B007AABAA82AB839003A97413F0A37481F0A37480F09003ACEAF0A3EBF090003E7525
:2005BB00F000784479997A02120083E5827003F5822290003E7487F0A3E4F09003BF740ADE
:2005DB00F090003E75F000787C799D7A02120083E5827003F582229011AA7485F0A3748084
:2005FB00F0A37480F09011AD7403F0E4A3F090007075F000126815E5828583F045F0601C39
:20061B00900073E4F09005767410F075820112607690003EE4F0A3F0758201229000B8747E
:20063B0081F0A37400F0A3E4F090036875F0001214C490003E7493F0A3E4F090008175F0B4
:20065B0000127AABAA82AB839003A97481F0A37400F0A3E4F09003ACEAF0A3EBF090003EEA
:20067B0075F000784479997A02120083E5827003F5822290003E7494F0A3E4F090811375D2
:20069B00F080127AABAA82AB839003A97413F0A37481F0A37480F09003ACEAF0A3EBF09055
:2006BB00003E75F000784479997A02120083E5827003F5822290003E7496F0A3E4F0900358
:2006DB00BF740AF090003E75F000787C799D7A02120083E5827003F582229011AA7485F0DD
:0506FB00A37480F0A3D0
:200700007480F09011AD7403F0E4A3F090007075F000126815E5828583F045F0601C900035
:2007200073E4F09005767410F075820112607690003EE4F0A3F0758201229000B87481F097
:20074000A37400F0A3E4F090038675F0001214C490003E74A2F0A3E4F090008175F00012E0
:200760007AABAA82AB839003A97481F0A37400F0A3E4F09003ACEAF0A3EBF090003E75F091
:2007800000784479997A02120083E5827003F5822290003E74A3F0A3E4F090811375F080B2
:2007A000127AABAA82AB839003A97413F0A37481F0A37480F09003ACEAF0A3EBF090003E81
:2007C00075F000784479997A02120083E5827003F5822290003E74A6F0A3E4F09003BF744D
:2007E0000AF090003E75F000787C799D7A02120083E5827003F582229011AA7489F0A374EF
:2008000080F0A37480F09011AD7403F0E4A3F090007075F000126815E5828583F045F060CD
:200820001C900073E4F09005767410F075820212607690003EE4F0A3F07582012290003E48
:2008400074B1F0A3E4F090809975F080127AABAA82AB839003A97499F0A37480F0A3748096
:20086000F09003ACEAF0A3EBF090003E75F000784479997A02120083E5827003F5822290DC
:20088000003E74B2F0A3E4F090005FE0FAA3E0FBA3E0FC8A828B838CF0C002C003C00412D6
:2008A0007AABAD82AE83D004D003D0029003A9EAF0A3EBF0A3ECF09003ACEDF0A3EEF090FA
:2008C000003E75F000784479997A02120083E5827003F5822290003E74B5F0A3E4F09081B4
:2008E0001375F080127AABAA82AB839003A97413F0A37481F0A37480F09003ACEAF0A3EB06
:20090000F090003E75F000784479997A02120083E5827003F5822290003E74B7F0A3E4F002
:200920009003BF740AF090003E75F000787C799D7A02120083E5827003F58222900070E056
:20094000FABA320280179005767410F075820112607690003EE4F0A3F07582012290003E9C
:2009600074BFF0A3E4F09080A575F080127AABAA82AB839003A974A5F0A37480F0A374804F
:20098000F09003ACEAF0A3EBF090003E75F000784479997A02120083E5827003F5822290BB
:2009A000003E74C0F0A3E4F0900059E0FAA3E0FBA3E0FC8A828B838CF0C002C003C00412AD
:2009C0007AABAD82AE83D004D003D0029003A9EAF0A3EBF0A3ECF09003ACEDF0A3EEF090D9
:2009E000003E75F000784479997A02120083E5827003F5822290003E74C1F0A3E4F0908187
:200A00001375F080127AABAA82AB839003A97413F0A37481F0A37480F09003ACEAF0A3EBE4
:200A2000F090003E75F000784479997A02120083E5827003F5822290003E74C3F0A3E4F0D5
:200A40009003BF740AF090003E75F000787C799D7A02120083E5827003F58222900070E035
:200A6000FABA320280179005767410F075820112607690003EE4F0A3F07582012290005C5D
:200A8000E0FAA3E0FBA3E0FCBA0009BB0006BC0003020BB490003E74CCF0A3E4F09080A551
:200AA00075F080127AABAA82AB839003A974A5F0A37480F0A37480F09003ACEAF0A3EBF0D6
:200AC00090003E75F000784479997A02120083E5827003F5822290003E74CDF0A3E4F0908B
:200AE000005CE0FAA3E0FBA3E0FC8A828B838CF0C002C003C004127AABAD82AE83D004D0A9
:200B000003D0029003A9EAF0A3EBF0A3ECF09003ACEDF0A3EEF090003E75F000784479994F
:200B20007A02120083E5827003F5822290003E74CEF0A3E4F090811375F080127AABAA824E
:200B4000AB839003A97413F0A37481F0A37480F09003ACEAF0A3EBF090003E75F00078441F
:200B600079997A02120083E5827003F5822290003E74D0F0A3E4F09003BF740AF090003ED8
:200B800075F000787C799D7A02120083E5827003F58222900070E0FABA32028017900576F8
:200BA0007410F075820112607690003EE4F0A3F07582012290003E74D9F0A3E4F09080AF51
:200BC00075F080127AABAA82AB839003A974AFF0A37480F0A37480F09003ACEAF0A3EBF0AB
:200BE00090003E75F000784479997A02120083E5827003F5822290003E74DBF0A3E4F0905C
:200C000003BF740AF090003E75F000787C799D7A02120083E5827003F58222900070E0FA09
:200C2000BA330280179005767410F075820112607690003EE4F0A3F07582012290003E743E
:200C4000E3F0A3E4F09080B675F080127AABAA82AB839003A974B6F0A37480F0A37480F0AA
:200C60009003ACEAF0A3EBF090003E75F000784479997A02120083E5827003F582229000C8
:200C80003E74E4F0A3E4F0900059E0FAA3E0FBA3E0FC8A828B838CF0C002C003C004127A2C
:200CA000ABAD82AE83D004D003D0029003A9EAF0A3EBF0A3ECF09003ACEDF0A3EEF0900070
:200CC0003E75F000784479997A02120083E5827003F5822290003E74E5F0A3E4F09081136D
:200CE00075F080127AABAA82AB839003A97413F0A37481F0A37480F09003ACEAF0A3EBF025
:200D000090003E75F000784479997A02120083E5827003F5822290005CE0FAA3E0FBA3E087
:200D2000FCEA4B4C7003020E0390003E74E8F0A3E4F09080BB75F080127AABAA82AB83904E
:200D400003A974BBF0A37480F0A37480F09003ACEAF0A3EBF090003E75F000784479997AA8
:200D600002120083E5827003F5822290003E74E9F0A3E4F090005CE0FAA3E0FBA3E0FC8A8A
:200D8000828B838CF0C002C003C004127AABAD82AE83D004D003D0029003A9EAF0A3EBF05A
:200DA000A3ECF09003ACEDF0A3EEF090003E75F000784479997A02120083E5827003F582B4
:200DC0002290003E74EAF0A3E4F090811375F080127AABAA82AB839003A97413F0A3748179
:200DE000F0A37480F09003ACEAF0A3EBF090003E75F000784479997A02120083E5827003F9
:200E0000F5822290003E74EDF0A3E4F09080C075F080127AABAA82AB839003A974C0F0A35A
:200E20007480F0A37480F09003ACEAF0A3EBF090003E75F000784479997A02120083E58237
:200E40007003F5822290003E74EEF0A3E4F090005FE0FAA3E0FBA3E0FC8A828B838CF0C0D3
:200E600002C003C004127AABAD82AE83D004D003D0029003A9EAF0A3EBF0A3ECF09003AC87
:200E8000EDF0A3EEF090003E75F000784479997A02120083E5827003F5822290003E74EF3E
:200EA000F0A3E4F090811375F080127AABAA82AB839003A97413F0A37481F0A37480F090DF
:200EC00003ACEAF0A3EBF090003E75F000784479997A02120083E5827003F5822290003EB8
:200EE00074F1F0A3E4F09080C775F080127AABAA82AB839003A974C7F0A37480F0A3748054
:200F0000F09003ACEAF0A3EBF090003E75F000784479997A02120083E5827003F582229035
:200F2000003E74F2F0A3E4F0900062E0FAA3E0FBA3E0FC8A828B838CF0C002C003C00412EC
:200F40007AABAD82AE83D004D003D0029003A9EAF0A3EBF0A3ECF09003ACEDF0A3EEF09053
:200F6000003E75F000784479997A02120083E5827003F5822290003E74F3F0A3E4F09081CF
:200F80001375F080127AABAA82AB839003A97413F0A37481F0A37480F09003ACEAF0A3EB5F
:200FA000F090003E75F000784479997A02120083E5827003F5822290003E74F5F0A3E4F01E
:200FC0009080D175F080127AABAA82AB839003A974D1F0A37480F0A37480F09003ACEAF022
:200FE000A3EBF090003E75F000784479997A02120083E5827003F5822290003E74F6F0A323
:20100000E4F090811375F080127AABAA82AB839003A97413F0A37481F0A37480F09003AC61
:20102000EAF0A3EBF090003E75F000784479997A02120083E5827003F5822290003E74F79A
:20104000F0A3E4F090811375F080127AABAA82AB839003A97413F0A37481F0A37480F0903D
:2010600003ACEAF0A3EBF090003E75F000784479997A02120083E5827003F5822290003E16
:2010800074F9F0A3E4F0900065E0FAA3E0FBA3E0FC900068E0FDA3E0FE9003A9EAF0A3EBB6
:2010A000F0A3ECF09003ACEDF0A3EEF090003E75F000784479997A02120083E5827003F543
:2010C000822290003E74FBF0A3E4F090811675F080127AABAA82AB839003A97416F0A3745E
:2010E00081F0A37480F09003ACEAF0A3EBF090003E75F000784479997A02120083E5827078
:2011000003F5822290003E74FDF0A3E4F09003BF740AF090003E75F000787C799D7A021202
:201120000083E5827003F58222900070E0FABA320280179005767410F0758201126076906B
:20114000003EE4F0A3F07582012290003E7405F0A37401F090810C75F080127AABAA82AB81
:20116000839003A9740CF0A37481F0A37480F09003ACEAF0A3EBF090003E75F00078447932
:20118000997A02120083E5827003F5822275820012607690003EE4F0A3F07582022290056E
:2011A00076E0FA30E406900057E4F022EA20E504EA30E70B900057E4F0758203026076025A
:2011C00000FFAAF0AB83E5829000A4F0A3EBF0A3EAF09000A4E0FAA3E0FBA3E0FC90007AAD
:2011E000EAF0A3EBF0A3ECF09000A1E0FAA3E0FBA3E0FC8A828B838CF0127AC3FDA3127AFF
:20120000C3FE90007DEDF0A3EEF074022AFAE43BFB8A828B838CF0127AC3FAA3127AC3FB22
:2012200090007F75F000EA126CBBA3EB026CBBAAF0AB83E5829000B5F0A3EBF0A3EAF09071
:20124000032CE0FAA3E0FB8A828B83783679CB7A02120083AA82AB8390113FEAF0A3EBF058
:2012600090007D75F000781379A87A02120083AA82AB83ACF0BA000ABB0007BC000475820C
:2012800000229000577401F09000B5E0FAA3E0FBA3E0FC900059EAF0A3EBF0A3ECF0900074
:2012A000A7E0FAA3E0FBA3E0FC90005CEAF0A3EBF0A3ECF09000AAE0FAA3E0FBA3E0FC904C
:2012C000005FEAF0A3EBF0A3ECF09000ADE0FAA3E0FBA3E0FC900062EAF0A3EBF0A3ECF0FB
:2012E0009000B0E0FAA3E0FBA3E0FC900065EAF0A3EBF0A3ECF09000B3E0FAA3E0FB9000E0
:2013000068EAF0A3EBF09003C67470F0A37400F0A3E4F09003C9740AF0E4A3F090003E75DE
:20132000F000781979A27A021200837582012290032CE0FAA3E0FB8A828B83783679CB7A49
:2013400002120083AA82AB83E4C0E0C002C003E4C0E090119E126246AA82E58124FCF581EE
:20136000EA7005900057E4F022C071858171C082C083C0F0E5812407F581E57124FBF8865A
:2013800005088606088607A8710886820886830886F0127AC3FA0303543F90811C938D82B6
:2013A0008E838FF0126CBBE5712405F874012DF6E43E08F608A607530203E5712404F8EAC8
:2013C000C454F0F6A87108740126FBE40836FC0886028B828C838AF0127AC3FA74F05AC449
:2013E000540FFBE5712404F8EB4690811C93FBE5712405F886820886830886F0EB126CBBFB
:20140000E5712405F874022DF6E43E08F608A607E57124F9F8C374019674800886F063F0E9
:201420008095F0503AC005C006C00753020FEA2A25E0FAA87108740226FBE40836FC0886F0
:20144000058B828C838DF0127AC354C023235403FB4A90811C93FAD007D006D00580027A71
:201460003DE5712405F886820886830886F0EA126CBB74032DFAE43EFB8F04E57124F9F845
:20148000C374029674800886F063F08095F05022A87108740226FDE40836FE0886078D82C3
:2014A0008E838FF0127AC3FD743F5D90811C93FD80027D3D8A828B838CF0ED126CBB857195
:2014C00081D07122AAF0AB83E5829000BBF0A3EBF0A3EAF09000BBE0FAA3E0FBA3E0FC8A17
:2014E000828B838CF0127AC370030215B47D007E007F007800C3EF9403E864809480503EAA
:20150000C005C006EF24BEF9E83400FD8A828B838CF0127AC3FE89828D83F0EED006D005D6
:2015200060150ABA00010B9000BBEAF0A3EBF0A3ECF00DBD00010E0FBF00BA0880B7900014
:20154000BBEAF0A3EBF0A3ECF0ED4E6087C005C00674C1C0E07400C0E0E4C0E09000BE751C
:20156000F000121369E58124FBF5819000B8E0FAA3E0FBA3E0FC7D007E00C3ED9404EE643E
:2015800080948040030214D4ED24C1F582EE3400F583E0FF8A828B838CF0126CBBA3AA822A
:2015A000AB839000B8EAF0A3EBF0A3ECF00DBD00C90E80C69000B8E0FAA3E0FBA3E0FC8A4E
:2015C000828B838CF0E4026CBBC071858171AA82AB83ACF0741A2AFAE43BFB8A828B838CE2
:2015E000F0127AC3FDA3127AC3FEBD001DBE001AE57124FBF886050886060886078D828E4F
:20160000838FF0127AC36002C2938A828B838CF0E4126CBBA3E4126CBB758202D07122C033
:2016200071858171C082C083C0F0E5812409F581E5712404F87636087612087600E57124DA
:2016400004F886020886030886048A828B838CF0127AC3FDA3127AC3FEA3127AC3FFE4BD7F
:201660000007BE0004BF000104600302173C8A828B838CF0127AC3FDA3127AC3FEA3127A24
:20168000C3FF8D828E838FF0E5712407F8127AC3F6A3127AC308F6A3127AC308F6E57124D1
:2016A00007F886820886830886F0C002C003C004127AABAD82AE83A871089011AAE6F0086A
:2016C000A3E6F008A3E6F09011ADEDF0A3EEF0E5712407F886820886830886F0126815E5E0
:2016E000828583F0D004D003D00245F07037E5712404F886820886830886F0127AC3FDA31F
:20170000127AC3FEA3127AC3FF74032DFDE43EFE8D828E838FF0127AC3FDA3127AC3FE8D62
:20172000828E83801A74032AFAE43BFBE5712404F8A60208A60308A60402164A9015C985F1
:201740007181D07122C071858171C082C083C0F0E5812408F581E5712404F8E4F608F6A859
:201760007108741A26FFE40836FD0886068F828D838EF0127AC3FAA3127AC3FBBA0005BB3B
:201780000002800CBA9906BB000302193C0219C8E57124FBF8E5712406F9E6F70809E6F7B9
:2017A0000809E6F7E5712406F886820886830886F0127AC3FAE4BA200104700DE571240623
:2017C000F806B60002080680DBE5712406F8740126FAE40836FB0886048A828B838CF0C0D8
:2017E00005C006C007126A5EAA82AB83D007D006D005EB3350030218ADC374079A74808B12
:20180000F063F08095F050030218ADEA2A2A9018127302182A02182A02182A02184B0218B0
:201820005F02187302188702189B8A82C005C006C007124F5EAA82AB83D007D006D005E588
:20184000712404F8A60208A6038062900359E0FAA3E0FBE5712404F8A60208A603804E904B
:20186000035CE0FAA3E0FBE5712404F8A60208A603803A90035FE0FAA3E0FBE5712404F868
:20188000A60208A6038026900362E0FAA3E0FBE5712404F8A60208A6038012900366E0FAC8
:2018A000A3E0FBE5712404F8A60208A6039011E3740AF0E4A3F0E5712404F88682088683E3
:2018C000C005C006C007126D8A126D3EA871080808080808A68208A6839011FB740AF0E460
:2018E000A3F0E5712404F88682088683127005AC82AA83E5712406F8E6C0E008E6C0E0C098
:2019000004C0027491C0E07484C0E07480C0E090056CE0C0E0A3E0C0E0A3E0C0E01271D115
:20192000E58124F6F581D007D006D0058F828D838EF07499126CBBA3E4126CBBC007C005FE
:20194000C006A87108E5712406F9741A26F7E4083609F70809E6F790056CE0FDA3E0FEA36A
:20196000E0FF8D028E038F048D828E838FF0C002C003C004C007127AABAD82AE83D007D0E8
:2019800004D003D0029003A9EAF0A3EBF0A3ECF09003ACEDF0A3EEF0E5712406F886820866
:2019A00086830886F0C005C006C007784479997A02120083E582D007D006D005D006D005DB
:2019C000D0077004F58280128F828D838EF0E4126CBBA3E4126CBB758202857181D0712264
:2019E000C071858171C082C083C0F0E5812408F581E5712404F8E4F608F6A87108741A26DF
:201A0000FFE40836FD0886068F828D838EF0127AC3FAA3127AC3FBBA0005BB0002800CBA7D
:201A2000B306BB0003021B38021BC4E57124FBF8E5712406F9E6F70809E6F70809E6F7E575
:201A4000712406F886820886830886F0127AC3FAE4BA200104700DE5712406F806B600029D
:201A6000080680DBE5712406F8740126FAE40836FB0886048A828B838CF0C005C006C00759
:201A8000126A5EAA82AB83D007D006D005E4BA0004BB0001046012900364E0FAA3E0FBE588
:201AA000712404F8A60208A6039011E37464F0E4A3F0E5712404F88682088683C005C0065F
:201AC000C007126D8A126D3EA871080808080808A68208A6839011FB7464F0E4A3F0E571A6
:201AE0002404F88682088683127005AC82AA83E5712406F8E6C0E008E6C0E0C004C0027445
:201B000091C0E07484C0E07480C0E090056CE0C0E0A3E0C0E0A3E0C0E01271D1E58124F6CD
:201B2000F581D007D006D0058F828D838EF074B3126CBBA3E4126CBBC007C005C006A87183
:201B400008E5712406F9741A26F7E4083609F70809E6F790056CE0FDA3E0FEA3E0FF8D02D9
:201B60008E038F048D828E838FF0C002C003C004C007127AABAD82AE83D007D004D003D0AD
:201B8000029003A9EAF0A3EBF0A3ECF09003ACEDF0A3EEF0E5712406F88682088683088674
:201BA000F0C005C006C007784479997A02120083E582D007D006D005D006D005D007700425
:201BC000F58280128F828D838EF0E4126CBBA3E4126CBB758202857181D07122C071E58116
:201BE000F5712407F581AA82AB83ACF0741A2AFDE43BFE8C078D828E838FF0A871080808B3
:201C0000127AC3F6A3127AC308F6A871080808B6000608B600028012A871080808B6CE0794
:201C200008B60003021DFF021E86E57124FBF8E5712405F9E6F70809E6F70809E6F7C002BF
:201C4000C003C004E5712405F886820886830886F0127AC3FAE4BA200104D004D003D0026A
:201C6000700DE5712405F806B60002080680CFC002C003C004E5712405F8740126FAE40814
:201C800036FB0886048A828B838CF0C004C005C006C007126A5EAA82AB83D007D006D0051F
:201CA000D004A87108A60208A603D004D003D002209003021D74C002C003C004C003C00447
:201CC000C005C006C007784F79807A03120083AA82D007D006D005D004D003EA3395E0FBFE
:201CE000A87108E6B5020908E6B5030474018001E4D004D003D002603EC002C003C004C079
:201D000005C006C0077497C0E07484C0E07480C0E090056CE0C0E0A3E0C0E0A3E0C0E01281
:201D200071D1E58124FAF581D007D006D005D004D003D002021DEFC002C003C004C005C090
:201D400006C00774ADC0E07484C0E07480C0E090056CE0C0E0A3E0C0E0A3E0C0E01271D1AE
:201D6000E58124FAF581D007D006D005D004D003D002807B30913DC002C003C004C005C0A7
:201D800006C00774AFC0E07484C0E07480C0E090056CE0C0E0A3E0C0E0A3E0C0E01271D16C
:201DA000E58124FAF581D007D006D005D004D003D002803BC002C003C004C005C006C007D8
:201DC00074C3C0E07484C0E07480C0E090056CE0C0E0A3E0C0E0A3E0C0E01271D1E581245B
:201DE000FAF581D007D006D005D004D003D0028D828E838FF074CE126CBBA3E4126CBBC0DE
:201E000005C006C007E5712405F8741A2AF6E43B08F608A60490056CE0FDA3E0FEA3E0FF5B
:201E20008D028E038F048D828E838FF0C002C003C004C007127AABAD82AE83D007D004D02E
:201E400003D0029003A9EAF0A3EBF0A3ECF09003ACEDF0A3EEF0E5712405F886820886836D
:201E60000886F0C005C006C007784479997A02120083E582D007D006D005D007D006D00548
:201E80007004F58280128D828E838FF0E4126CBBA3E4126CBB758202857181D07122C07145
:201EA000E581F5712408F581AA82AB83ACF0741A2AFDE43BFE8C078D828E838FF0A8710899
:201EC00008127AC3F6A3127AC308F6A8710808B6000608B600028011A8710808B608070899
:201EE000B6010302229802231FE57124FBF8E5712404F9E6F70809E6F70809E6F7C002C009
:201F000003C004E5712404F886820886830886F0127AC3FAE4BA200104D004D003D00270F8
:201F20000DE5712404F806B60002080680CFC002C003C004E5712404F8740126FAE408368D
:201F4000FB0886048A828B838CF0C004C005C006C007126A5EAA82AB83D007D006D005D0C2
:201F600004A87108A602A87108E4B6010104D004D003D0027027A87108B60203022043A8DA
:201F80007108B603030220E9A87108B6040302218FA87108B60503022234022287C002C00D
:201FA00003C00490031DE0FAE5712404F8A60208760090031CE0FCA8710808A60408760058
:201FC00090031BE0FBE5712407F8A60308760090031AE0FC7A00C002C003C004C005C00601
:201FE000C007E5712404F8E6C0E008E6C0E0A8710808E6C0E008E6C0E0E5712407F8E6C034
:20200000E008E6C0E0C004C002901251E0C0E0A3E0C0E0A3E0C0E090056CE0C0E0A3E0C04F
:20202000E0A3E0C0E01271D1E58124F2F581D007D006D005D004D003D002D004D003D002E3
:20204000022287C002C003C004900321E0FAE5712407F8A602087600900320E0FCE5712456
:2020600004F8A60408760090031FE0FBA8710808A60308760090031EE0FC7A00C002C003D3
:20208000C004C005C006C007E5712407F8E6C0E008E6C0E0E5712404F8E6C0E008E6C0E013
:2020A000A8710808E6C0E008E6C0E0C004C002901251E0C0E0A3E0C0E0A3E0C0E090056CA3
:2020C000E0C0E0A3E0C0E0A3E0C0E01271D1E58124F2F581D007D006D005D004D003D002F9
:2020E000D004D003D002022287C002C003C004900325E0FAE5712407F8A6020876009003AF
:2021000024E0FCE5712404F8A604087600900323E0FBA8710808A603087600900322E0FCAF
:202120007A00C002C003C004C005C006C007E5712407F8E6C0E008E6C0E0E5712404F8E6A1
:20214000C0E008E6C0E0A8710808E6C0E008E6C0E0C004C002901251E0C0E0A3E0C0E0A355
:20216000E0C0E090056CE0C0E0A3E0C0E0A3E0C0E01271D1E58124F2F581D007D006D00550
:20218000D004D003D002D004D003D002022287C002C003C00490032BE0FAE5712407F8A6A2
:2021A0000208760090032AE0FCE5712404F8A604087600900329E0FBA8710808A603087681
:2021C00000900328E0FC7A00C002C003C004C005C006C007E5712407F8E6C0E008E6C0E0C6
:2021E000E5712404F8E6C0E008E6C0E0A8710808E6C0E008E6C0E0C004C002901251E0C0FF
:20220000E0A3E0C0E0A3E0C0E090056CE0C0E0A3E0C0E0A3E0C0E01271D1E58124F2F5818B
:20222000D007D006D005D004D003D002D004D003D0028053C002C003C004900326E0FAA3D8
:20224000E0FBC002C003C004C005C006C007C002C00374CCC0E07484C0E07480C0E09005E2
:202260006CE0C0E0A3E0C0E0A3E0C0E01271D1E58124F8F581D007D006D005D004D003D0E7
:2022800002D004D003D0028D828E838FF07408126CBBA37401126CBBC005C006C007E57176
:2022A0002404F8741A2AF6E43B08F608A60490056CE0FDA3E0FEA3E0FF8D028E038F048D60
:2022C000828E838FF0C002C003C004C007127AABAD82AE83D007D004D003D0029003A9EACF
:2022E000F0A3EBF0A3ECF09003ACEDF0A3EEF0E5712404F886820886830886F0C005C006BC
:20230000C007784479997A02120083E582D007D006D005D007D006D0057004F58280128DA2
:20232000828E838FF0E4126CBBA3E4126CBB758202857181D07122C071858171C082C083AE
:20234000C0F0058105810581A87108741A26FDE40836FE0886078D828E838FF0127AC3FACC
:20236000A3127AC3FBBA0005BB0002800CBA3606BB010302249002251CE57124FBF8E571F7
:202380002404F9E6F70809E6F70809E6F7E5712404F886820886830886F0127AC3FAE4BA6F
:2023A000200104700DE5712404F806B60002080680DBE5712404F8740126FAE40836FB08AE
:2023C00086048A828B838CF0C005C006C007126A5EAA82D007D006D0058A03E4BB000104D2
:2023E0007014BB01028017BB0202801ABB0302801DBB04288020900390E0FAFB801E90039E
:2024000058E0FAFB801690035BE0FAFB800E90035EE0FAFB8006900361E0FAFBEB6031C057
:2024200005C006C00774CFC0E07484C0E07480C0E090056CE0C0E0A3E0C0E0A3E0C0E01222
:2024400071D1E58124FAF581D007D006D005802FC005C006C00774ADC0E07484C0E0748070
:20246000C0E090056CE0C0E0A3E0C0E0A3E0C0E01271D1E58124FAF581D007D006D0058D98
:20248000828E838FF07436126CBBA37401126CBBC005C006C007A87108E5712404F9741A7E
:2024A00026F7E4083609F70809E6F790056CE0FDA3E0FEA3E0FF8D028E038F048D828E833B
:2024C0008FF0C002C003C004C007127AABAD82AE83D007D004D003D0029003A9EAF0A3EBE2
:2024E000F0A3ECF09003ACEDF0A3EEF0E5712404F886820886830886F0C005C006C00778F9
:202500004479997A02120083E582D007D006D005D007D006D0057004F58280128D828E834C
:202520008FF0E4126CBBA3E4126CBB758202857181D07122C071E581F5712409F581AA82A0
:20254000AB83ACF0A8710808E4F608F6087600741A2AFDE43BFE8C078D828E838FF0E571D8
:202560002405F8127AC3F6A3127AC308F6E5712405F8B6000608B600028012E5712405F809
:20258000B6620708B601030226CE022755E57124FBF8E5712407F9E6F70809E6F70809E63D
:2025A000F7C002C003C004E5712407F886820886830886F0127AC3FAE4BA200104D004D01B
:2025C00003D002700DE5712407F806B60002080680CFC002C003C004E5712407F8740126B8
:2025E000FAE40836FB0886048A828B838CF0C004C005C006C007126A5EAA82AB83D007D0AB
:2026000006D005D004A87108A602A87108E4B6010104D004D003D0027018A87108B60202A5
:20262000801EA87108B603028024A87108B60438802AA87108087668087603087600802811
:20264000A87108087686087603087600801AA8710808763A087603087600800CA87108082F
:20266000762E087603087600A8710808E608460846604AC002C003C004C005C006C007A81F
:20268000710808E6C0E008E6C0E008E6C0E074D7C0E07484C0E07480C0E090056CE0C0E07F
:2026A000A3E0C0E0A3E0C0E01271D1E58124F7F581D007D006D005D004D003D0028D828EF1
:2026C000838FF07462126CBBA37401126CBBC005C006C007E5712407F8741A2AF6E43B08F8
:2026E000F608A60490056CE0FDA3E0FEA3E0FF8D028E038F048D828E838FF0C002C003C0BA
:2027000004C007127AABAD82AE83D007D004D003D0029003A9EAF0A3EBF0A3ECF09003ACB5
:20272000EDF0A3EEF0E5712407F886820886830886F0C005C006C007784479997A0212007D
:2027400083E582D007D006D005D007D006D0057004F58280128D828E838FF0E4126CBBA3AF
:20276000E4126CBB758202857181D07122C071E581F5712413F581AA82AB83ACF0E571244F
:2027800011F8741A2AF6E43B08F608A604E5712411F886820886830886F0127AC3FDA31298
:2027A0007AC3FEBD0005BE0002800CBD9306BE01030229FB022A66E57124FBF8860508867A
:2027C00006088607C002C003C0048D828E838FF0127AC3FAE4BA200104D004D003D0027081
:2027E000070DBD00DF0E80DCC002C003C00474012DFAE43EFB8F048A828B838CF0C00412BE
:202800006A5EAA82AB83D0048A05E4BD010104D004D003D0027005BD0276803AC002C0032A
:20282000C00478B779947A03120083A87108A68208A68308A6F008F6D004D003D002A871DE
:2028400008E571240DF9E6F70809E6F70809E6F70809E6F78047C002C003C004782D799586
:202860007A03120083A87108A68208A68308A6F008F6D004D003D002A87108E571240DF916
:20288000E6F70809E6F70809E6F70809E6F7800DE571240DF8E4F608F608F608F6C002C02F
:2028A00003C0049011967464F0E4A3F0A3F0A3F0E571240DF886820886830886F008E6C0F1
:2028C00002C003C004126642C0E0E5712409F8D0E0A68208A68308A6F008F6E571240990E2
:2028E000119E7410F0A3740EF0A3E4F0A3F0E5712409F886820886830886F008E612670A13
:20290000A8710808080808A68208A68308A6F008F6D004D003D002E5712405E5712405F812
:202920009011E7E6F008A3E6F008A3E6F008A3E6F0900E10E4F5F0126DF8AC82AD83AAF0D0
:20294000FBE5712409F8E6C39CFC08E69DFD08E69AFA08E69BFB90119E743CF0E4A3F0A339
:20296000F0A3F08C828D838AF0EB12670AAA82E5712409F88603E5712405F8E6C454F0FE3B
:20298000EBC39EFBEA75F03CA4FCEBC39CFB7C007D00C002C003C004C003C004C002C00530
:2029A000E5712405F8E6C0E008E6C0E008E6C0E008E6C0E074DAC0E07484C0E07480C0E056
:2029C00090056CE0C0E0A3E0C0E0A3E0C0E01271D1E58124F2F581D004D003D002E57124F7
:2029E00011F886820886830886F07493126CBBA37401126CBBD004D003D002E571240DF8AE
:202A0000741A2AF6E43B08F608A60490056CE0FDA3E0FEA3E0FF8D028E038F048D828E8385
:202A20008FF0C002C003C004127AABAD82AE83D004D003D0029003A9EAF0A3EBF0A3ECF0AB
:202A40009003ACEDF0A3EEF0E571240DF886820886830886F0784479997A02120083E5827D
:202A60007004F5828019E5712411F886820886830886F0E4126CBBA3E4126CBB758202855D
:202A80007181D07122C071E581F5712406F581AA82AB83ACF0741A2AFDE43BFE8C078D82DA
:202AA0008E838FF0127AC3F8A3127AC3F9B80005B90002800BB8A105B90102805B022BB07F
:202AC00090032CE0F8A3E0F9C002C003C004C005C006C007C000C00174CCC0E07484C0E04F
:202AE0007480C0E090056CE0C0E0A3E0C0E0A3E0C0E01271D1E58124F8F581D007D006D0B2
:202B000005D004D003D0028D828E838FF074A1126CBBA37401126CBBC005C006C007A8718E
:202B200008741A2AF6E43B08F608A60490056CE5712404F8E0F6A3E008F6A3E008F6E5716B
:202B40002404F88606088607088602E5712404F886820886830886F0C002C005C006C00783
:202B6000127AABAB82AC83D007D006D005D0029003A9EEF0A3EFF0A3EAF09003ACEBF0A398
:202B8000ECF0A8710886820886830886F0C005C006C007784479997A02120083E582D00732
:202BA000D006D005D007D006D0057004F58280128D828E838FF0E4126CBBA3E4126CBB757A
:202BC0008202857181D07122C071858171C082C083C0F07D00E57124FBF8ED26FEE408369D
:202BE000FF0886028E828F838AF0127AC3FB601FA87108ED26FEE40836FF0886028E828F5F
:202C0000838AF0127AC3FABA0D028003BA0A05758200800EEAB50302800575820180030D23
:202C200080B3857181D07122C071858171C082C083C0F0E5812408F581E5712407F8E4F64F
:202C400008F6E5712404F876A80876A60876807C007A00E5712404F8B6000B08B6000708C6
:202C6000B60003022D94E5712404F8740326FBE40836FF0886058B828F838DF0127AC3FB30
:202C8000A3127AC3FFA3127AC3FDC002C004C003C007C005A8710886820886830886F012B5
:202CA0002BC8AB82158115811581D004D002EB6003022D63E57124FBF88602088604088697
:202CC00007E5712404F8740626FEE40836FB0886058E828B838DF0127AC3FEA3127AC3FB54
:202CE000A3127AC3FD8A828C838FF0EE126CBBA3EB126CBBA3ED126CBB74032AFAE43CFCDD
:202D00008F06E5712404F8740926FFE40836FB0886058F828B838DF0127AC3FFA3127AC37A
:202D2000FB8A828C838EF0EF126CBBA3EB126CBBE5712407F8860308E6CB25E0CB33FDEB6A
:202D400024C5FBED3400FD8B828D83E0FEA3E0FF0EBE00010F8B828D83EEF0A3EFF090000B
:202D60000180340CBC00010AE5712407F8A60408A602E5712404F886820886830886F012D9
:202D80007AC31818F6A3127AC308F6A3127AC308F6022C53900000857181D071227A007B10
:202DA00000C3EA940BEB9400501E8A04EBCC25E0CC33FDEC24C5F582ED3400F583E4F0A338
:202DC000F00ABA00DC0B80D922C071858171C082C083C0F0058105810581E4FDFEE5712415
:202DE00004F876A80876A60876807C007A00E5712404F8B6000B08B6000708B60003022EB4
:202E0000A5C005C006E5712404F8740326FBE40836FF0886058B828F838DF0127AC3FBA337
:202E2000127AC3FFA3127AC3FDC002C004C005C006C003C007C005A87108868208868308B3
:202E400086F0122BC8AB82158115811581D006D005D004D002D006D005EB701E8D03EECB4A
:202E600025E0CB33FFEB24C5F582EF3400F583E0FBA3E0FF8B828F83802E0CBC00010A8CE1
:202E8000058A06E5712404F886820886830886F0127AC31818F6A3127AC308F6A3127AC339
:202EA00008F6022DEE900000857181D07122C071858171C082C083C0F0E581240EF581A8FA
:202EC0007108E5712404F9E6F70809E6F70809E6F7A8710874FB26FDE40836FE088607746D
:202EE000032DFDE43EFE8D828E838FF0127AC3FDA3127AC3FE900577E0FFA3E0FAA3E0FBC4
:202F000074122FFFE43AFA8F828A838BF0E5712407F8127AC3F6A3127AC308F68D048E0778
:202F2000E5712407F8C3E69C08E69F5024A87108860474010826FF0886028C828F838AF05B
:202F4000E5712407F8E6126CBBA308E6126CBB801CA87108860274010826FB0886048A828E
:202F60008B838CF0ED126CBBA3EE126CBB90056CE571240CF8E0F6A3E008F6A3E008F6E59B
:202F8000712404F874FB26FDE40836FE0886078D828E838FF0E5712409F8127AC3F6A31245
:202FA0007AC308F6A3127AC308F6E5712404F8860574010826FE0886078D828E838FF012FE
:202FC0007AC3FAA3127AC3FBE5712409F89011BAE6F008A3E6F008A3E6F09011BDEAF0A344
:202FE000EBF0E571240CF886820886830886F0C005C006C0071269A3D007D006D0058D82E0
:203000008E838FF0127AC3FDA3127AC3FE8D828E83857181D07122C071858171C082C083BD
:20302000C0F0E5812408F581A87108741A26FDE40836FE0886078D828E838FF0127AC3FD66
:20304000A3127AC3FEBD0005BE0002800BBD6F05BE00028021023181A87108741A26FDE477
:203060000836FE0886078D828E838FF0746F126CBBA3E4126CBBA87108741A26FDE4083610
:20308000FE0886079003B174AEF0A3742EF0A871089003B3E6F008A3E6F008A3E6F08D82C4
:2030A0008E838FF078B0799A7A02120083E5827005F5820231A1A87108E5712406F974FB04
:2030C00026F7E4083609F70809E6F7E5712406F8740326FAE40836FE0886078A828E838F53
:2030E000F0E5712404F8127AC3F6A3127AC308F6A87108860374010826FC0886058B828CC0
:20310000838DF0127AC3FBA3127AC3FCE5712404F8E6C39BF608E69CF68A828E838FF0E5C6
:20312000712404F8E6126CBBA308E6126CBBE5712406F886820886830886F0127AC3FFA315
:20314000127AC3FDA3127AC3FEEB2FFFEC3DFDE5712406F886820886830886F0EF126CBBBD
:20316000A3ED126CBBA3EE126CBBE5712404F8C3E49674800886F063F08095F050030230BA
:2031800058A87108741A26FBE40836FC0886058B828C838DF0E4126CBBA3E4126CBB7582E9
:2031A00002857181D07122C071858171C082C083C0F0058105810581A87108741A26FDE40E
:2031C0000836FE0886078D828E838FF0127AC3FAA3127AC3FBBA0005BB0002800BBA7C0507
:2031E000BB000280130232948D828E838FF0747C126CBBA3E4126CBBC005C006C007A871C4
:2032000008E5712404F9741A26F7E4083609F70809E6F7A8710874FB26FEE40836FF088611
:20322000028E828F838AF0127AC3FEA3127AC3FFA3127AC3FAA87108860374010826FC0875
:2032400086058B828C838DF0127AC3FBA3127AC3FC9003A9EEF0A3EFF0A3EAF09003ACEBCF
:20326000F0A3ECF0E5712404F886820886830886F0C005C006C007784479997A02120083A1
:20328000E582D007D006D005D007D006D0057004F58280128D828E838FF0E4126CBBA3E403
:2032A000126CBB758202857181D07122C071858171C082C083C0F0E581240BF581A87108F9
:2032C000740226FD74010836FE0886078D828E838FF0127AC3FAA3127AC3FBA3127AC3FC4C
:2032E0009011DB740AF08A828B838CF0C005C006C007126CD4AA82AB83ACF0D007D006D037
:2033000005E5712404F874012AF6E43B08F608A604A87108E5712407F9740526F774010820
:203320003609F70809E6F7E5712407F886820886830886F0E571240AF9127AC3F7A3127A67
:20334000C309F78D828E838FF0127AC3FCA3127AC3FAA3127AC3E5712404F8E6C39CFC0823
:20336000E69AFAE571240AF8E6C39CFC08E69AFAE5712407F886820886830886F0EC126C1A
:20338000BBA3EA126CBB8D828E838FF0E5712404F8E6126CBBA308E6126CBBA308E6126C9F
:2033A000BB857181D07122C071858171C082C083C0F0E581240CF581A87108743526FDE4BE
:2033C0000836FE0886078D828E838FF0127AC3FDA3127AC3FEBD0005BE0002801EBD9A06C4
:2033E000BE0003023592BD9D06BE00030235CBBDBB06BE00030238BB023989A8710874FB98
:2034000026FDE40836FE08860774032DFDE43EFE8D828E838FF0127AC3FDA3127AC3FEC375
:20342000E49D74808EF063F08095F04003023989A8710874FB26FDE40836FE0886078D82C3
:203440008E838FF0127AC3FDA3127AC3FEA3127AC3FF8D828E838FF0127AC3FAE4BA250103
:203460000470030236E574012DFAE43EFB8F048A828B838CF0127AC3FAE4BA210104700356
:203480000236E5A87108E5712404F9740226F77401083609F70809E6F774032DFDE43EFE82
:2034A000E5712404F886820886830886F0ED126CBBA3EE126CBBA3EF126CBBA87108E571CD
:2034C000240AF9740526F77401083609F70809E6F7A87108E5712407F974FB26F7E4083645
:2034E00009F70809E6F7E5712407F8740326FAE40836FB0886048A828B838CF0127AC3FA40
:20350000A3127AC3FBEA24FDFAEB34FFFBE571240AF886820886830886F0EA126CBBA3EBDC
:20352000126CBB1DBDFF011E8D828E838FF0127AC3FDBD3A78E5712404F886820886830869
:2035400086F0127AC3FAA3127AC3FBA3127AC3FC0ABA00010BE5712407F8E6C0E008E6C054
:20356000E008E6C0E08A828B838CF0122C28158115811581A87108743526FAE40836FB0810
:2035800086048A828B838CF0749A126CBBA3E4126CBBA8710886820886830886F0123017F3
:2035A000E582600302364D7582000239A9A87108743526FAE40836FB0886048A828B838CA2
:2035C000F0749D126CBBA3E4126CBBA87108740226FA74010836FB0886048A828B838CF064
:2035E000127AC3FDA3127AC3FEA3127AC3FF8D828E838FF0C002C003C00412161FAD82AE92
:2036000083D004D003D0028A828B838CF0127AC3FAA3127AC3FBA3127AC3FCC006C002C0AC
:2036200003C004743BC0E07436C0E0C005C006A8710886820886830886F022AD82158115EB
:20364000811581D006ED7005F5820239A9A8710886820886830886F01232ACA8710874FB88
:2036600026FAE40836FB088604A87108740226FD74010836FE0886078D828E838FF0127A50
:20368000C3FDA3127AC3FEA3127AC3FF8A828B838CF0ED126CBBA3EE126CBBA3EF126CBB38
:2036A000A8710874FB26FAE40836FB08860474032AFAE43BFBA87108740526FD7401083686
:2036C000FE0886078D828E838FF0127AC3FDA3127AC3FE8A828B838CF0ED126CBBA3EE121D
:2036E0006CBB0233FBA8710874FB26FAE40836FB08860474032AFAE43BFB8A828B838CF0C9
:20370000127AC3FAA3127AC3FB900577E0FCA3E0FDA3E0FE74122CFCE43DFD8C828D838E12
:20372000F0E571240AF8127AC3F6A3127AC308F68A068B07E571240AF8C3E69E08E69F5026
:2037400024A87108860674010826FF0886048E828F838CF0E571240AF8E6126CBBA308E69A
:20376000126CBB801CA87108860474010826FD0886068C828D838EF0EA126CBBA3EB126CCA
:20378000BBA87108E571240AF974FB26F7E4083609F70809E6F7E571240AF886820886839F
:2037A0000886F0127AC3FDA3127AC3FEA3127AC3FF8D828E838FF0127AC3FABA2520740102
:2037C0002DFAE43EFB8F049011DB7425F08A828B838CF0126CD4AA82AB83ACF0801B9011F3
:2037E000DB7425F08D828E838FF0126CD4AD82AE83AFF08D028E038F04BA0009BB0006BC82
:20380000000302389DE571240AF886820886830886F0127AC3FDA3127AC3FEA3127AC3FF8E
:20382000EAB5050AEBB50606ECB50702806FA87108E571240AF9E6F77401082609F7080966
:20384000E6F7EAC39DFAEB9EFBE571240AF886820886830886F0EA126CBBA3EB126CBB9036
:203860000577E0FCA3E0FDA3E0FE74122CFCE43DFD8C828D838EF0127AC3FCA3127AC3FD4D
:20388000C3EA9CEB9D4016E571240AF886820886830886F0EC126CBBA3ED126CBBA87108DF
:2038A000743526FAE40836FB0886048A828B838CF074BB126CBBA3E4126CBBA871088682A9
:2038C0000886830886F01231A7E5827005F5820239A9A8710874FB26FAE40836FB088604D9
:2038E0008A828B838CF0E571240AF8127AC3F6A3127AC308F6A3127AC308F6A871088605E5
:2039000074010826FE0886078D828E838FF0E5712407F8127AC3F6A3127AC308F6E57124AA
:203920000AF8E5712407F9E726FF09E70836FD0886068A828B838CF0EF126CBBA3ED126C74
:20394000BBA3EE126CBBA8710874FB26FAE40836FB08860474032AFAE43BFB8A828B838C28
:20396000F0127AC3FDA3127AC3FEE5712407F8EDC396FDEE0896FE8A828B838CF0ED126CD4
:20398000BBA3EE126CBB0233FBA87108743526FAE40836FB0886048A828B838CF0E4126CE1
:2039A000BBA3E4126CBB758202857181D07122C071858171C082C083C0F0A87108741A2607
:2039C000FDE40836FE0886078D828E838FF0127AC3FAA3127AC3FBBA0005BB0002804ABA60
:2039E000CC05BB00028052BAD006BB0003023AFEBAD306BB0003023C02BAD506BB000302F9
:203A00003CC8BAD706BB0003023D8EBAD906BB0003023E54BADB06BB0003023F0EBADD0650
:203A2000BB0003023F930240038D828E838FF074CC126CBBA3E4126CBBC005C006C007A8DD
:203A40007108741A26FDE40836FE088607E57124FBF886820886830886F0C005C006C00731
:203A6000127AABAA82AB83D007D006D005E57124FBF89003A9E6F008A3E6F008A3E6F09022
:203A800003ACEAF0A3EBF08D828E838FF0C005C006C007784479997A02120083E582D00711
:203AA000D006D005D007D006D0057005F582024015A8710874E626FAE40836FB08860490BC
:203AC00011B2742EF08A828B838CF0C005C006C0071268C5AA82AB83ACF0D007D006D005F2
:203AE000BA0008BB0005BC00028003023B738D828E838FF074D0126CBBA3E4126CBBC005B2
:203B0000C006C007A87108741A26FAE40836FB08860490840E75F080C002C003C004C00783
:203B2000127AABAD82AE83D007D004D003D0029003A9740EF0A37484F0A37480F09003AC9F
:203B4000EDF0A3EEF08A828B838CF0C005C006C007784479997A02120083E582D007D0062C
:203B6000D005D007D006D00560030240037582000240159011AAEAF0A3EBF0A3ECF0901135
:203B8000AD7405F0E4A3F090843975F080C002C003C004C005C006C007126815E5828583CD
:203BA000F0D007D006D005D004D003D00245F060419011AAEAF0A3EBF0A3ECF09011AD7460
:203BC00006F0E4A3F090843F75F080C002C003C004C005C006C007126815E5828583F0D0E7
:203BE00007D006D005D004D003D00245F06003023C778D828E838FF074D3126CBBA3E41295
:203C00006CBBC005C006C007A87108741A26FAE40836FB08860490836675F080C002C003CA
:203C2000C004C007127AABAD82AE83D007D004D003D0029003A97466F0A37483F0A37480EB
:203C4000F09003ACEDF0A3EEF08A828B838CF0C005C006C007784479997A02120083E582A9
:203C6000D007D006D005D007D006D00560030240037582000240159011AAEAF0A3EBF0A304
:203C8000ECF09011AD7404F0E4A3F090844B75F080C002C003C004C005C006C007126815AD
:203CA000E5828583F0D007D006D005D004D003D00245F06003023D3D8D828E838FF074D5AE
:203CC000126CBBA3E4126CBBC005C006C007A87108741A26FAE40836FB0886049083827511
:203CE000F080C002C003C004C007127AABAD82AE83D007D004D003D0029003A97482F0A398
:203D00007483F0A37480F09003ACEDF0A3EEF08A828B838CF0C005C006C007784479997A68
:203D200002120083E582D007D006D005D007D006D00560030240037582000240159011AA40
:203D4000EAF0A3EBF0A3ECF09011AD7404F0E4A3F090845075F080C002C003C004C005C048
:203D600006C007126815E5828583F0D007D006D005D004D003D00245F06003023E038D82A3
:203D80008E838FF074D7126CBBA3E4126CBBC005C006C007A87108741A26FAE40836FB0809
:203DA00086049083B975F080C002C003C004C007127AABAD82AE83D007D004D003D0029041
:203DC00003A974B9F0A37483F0A37480F09003ACEDF0A3EEF08A828B838CF0C005C006C08B
:203DE00007784479997A02120083E582D007D006D005D007D006D0056003024003758200D3
:203E00000240159011AAEAF0A3EBF0A3ECF09011AD7404F0E4A3F090845575F080C002C02C
:203E200003C004C005C006C007126815E5828583F0D007D006D005D004D003D00245F060EB
:203E400003023EC98D828E838FF074D9126CBBA3E4126CBBC005C006C007A87108741A264A
:203E6000FAE40836FB0886049083D575F080C002C003C004C007127AABAD82AE83D007D07E
:203E800004D003D0029003A974D5F0A37483F0A37480F09003ACEDF0A3EEF08A828B838CB0
:203EA000F0C005C006C007784479997A02120083E582D007D006D005D007D006D005600313
:203EC0000240037582000240159011AAEAF0A3EBF0A3ECF09011AD7404F0E4A3F090845A92
:203EE00075F080C005C006C007126815E5828583F0D007D006D00545F06003023F838D82B0
:203F00008E838FF074DB126CBBA3E4126CBBC005C006C007A87108741A26FAE40836FB0883
:203F200086049083F175F080C002C003C004C007127AABAD82AE83D007D004D003D0029087
:203F400003A974F1F0A37483F0A37480F09003ACEDF0A3EEF08A828B838CF0C005C006C0D1
:203F600007784479997A02120083E582D007D006D005D007D006D005600302400375820051
:203F80000240158D828E838FF074DD126CBBA3E4126CBBC005C006C007A87108741A26FAC0
:203FA000E40836FB08860490834975F080C002C003C004C007127AABAD82AE83D007D004BF
:203FC000D003D0029003A97449F0A37483F0A37480F09003ACEDF0A3EEF08A828B838CF00F
:203FE000C005C006C007784479997A02120083E582D007D006D005D007D006D0057004F5BC
:204000008280128D828E838FF0E4126CBBA3E4126CBB758202857181D07122C07185817195
:20402000C082C083C0F0A87108743326FDE40836FE0886078D828E838FF0127AC3FAA3120E
:204040007AC3FBBA0005BB00028042BAED06BB000302414DBAEF06BB0003024195BAF706F3
:20406000BB0003024268BAF906BB00030242B0BAFC06BB00030242DBBA0006BB010302430E
:2040800097BA0306BB01030243CC0243E8C005C006C007A8710874E626FDE40836FE08862B
:2040A000070DBD00010E8D828E838FF0127AC3FDE4BD5F0104D007D006D00570030241B048
:2040C000C005C006C007A87108740B26FD74010836FE0886078D828E838FF0127AC3D007C0
:2040E000D006D00560030241B0A8710874FB26FAE40836FB088604C005C006C007C002C08C
:2041000003C00490823775F080122C28158115811581A8710874E626FAE40836FB08860438
:204120009011907437F0A37482F0A37480F08A828B838CF01265E9D007D006D0058D828E8E
:20414000838FF074ED126CBBA3E4126CBB74AEC0E07482C0E07480C0E0A871088682088660
:20416000830886F01239AFAA82158115811581EA7005F582024408A87108743326FAE4085E
:2041800036FB0886048A828B838CF074EF126CBBA3E4126CBBA8710886820886830886F0B2
:2041A000123017E58260030243E2758200024408C005C006C007A8710874FB26FAE408364C
:2041C000FB088604A8710874E626FDE40836FE088607C005C006C007C002C003C0048D8255
:2041E0008E838FF0122C28AA82AB83158115811581D007D006D005D007D006D005EA4B6014
:20420000030242CBA8710874FB26FAE40836FB088604C005C006C007C002C003C004908280
:204220002D75F080122C28158115811581A8710874E626FAE40836FB088604901190742D28
:20424000F0A37482F0A37480F08A828B838CF01265E9D007D006D0058D828E838FF074F7DC
:20426000126CBBA3E4126CBB74EEC0E07482C0E07480C0E0A8710886820886830886F0124F
:2042800039AFAA82158115811581EA7005F582024408A87108743326FAE40836FB0886048D
:2042A0008A828B838CF074F9126CBBA3E4126CBBA8710886820886830886F0123017E5828A
:2042C00060030243E27582000244088D828E838FF074FC126CBBA3E4126CBB745AC0E07425
:2042E00082C0E07480C0E0A8710886820886830886F01239AFAA82158115811581EA700509
:20430000F582024408A8710874E626FAE40836FB0886049011DB742EF08A828B838CF012D8
:204320006CD4AA82AB83ACF0BA0008BB0005BC0002807A9011AA743FF0A37484F0A37480FD
:20434000F09011AD7406F0E4A3F08A828B838CF0126815E5828583F045F07051A87108742F
:204360003526FAE40836FB0886048A828B838CF0E4126CBBA3E4126CBBA87108743326FADE
:20438000E40836FB0886048A828B838CF0E4126CBBA37401126CBBA8710886820886830828
:2043A00086F01233A7E5827039F582805BA87108743326FAE40836FB0886048A828B838CFC
:2043C000F07403126CBBA37401126CBBA8710886820886830886F0123017E5827004F58289
:2043E00080269005767410F0A87108743326FAE40836FB0886048A828B838CF0E4126CBB4E
:20440000A3E4126CBB758202857181D07122AAF0AB83E582900139F0A3EBF0A3EAF0900194
:204420003EE0706B9011CF7468F0A37403F0A3E4F09011D2741EF0E4A3F090019075F000D4
:20444000126BF99011C974F3F0A374A7F0A37480F090019075F000126B8E9011F07486F0E4
:20446000A37403F0A3E4F09011F3740AF0E4A3F090019075F000126F119000B8743EF0A39D
:204480007401F0A3E4F090019075F0001214C490013E75F000127AABAA82AB83900139E061
:2044A000FCA3E0FDA3E0FE9011AA743EF0A37401F0A3E4F09011ADEAF0A3EBF08C828D83CF
:2044C0008EF0C002C003126815AC82AD83D003D002E4BC0004BD000104FC90013CF0EC3309
:2044E00095E0A3F0900139E0FCA3E0FDA3E0FEEA2CFAEB3DFB8E078A828B838FF0127AC35D
:20450000FA60108A82126974E582700790013CE4F0A3F090013CE0FAA3E08A82F58322C094
:2045200071858171C082C083C0F0058105810581A87108740126FDE40836FE0886078D824F
:204540008E838FF0127AC3FAA3127AC3FBBA0005BB00028026BA2405BB0102802FBA2A0639
:20456000BB010302464BBA3C06BB0103024843BA4B06BB0103024A06024AE28D828E838FA8
:20458000F07424126CBBA37401126CBBC005C006C007A87108740126FAE40836FB08860452
:2045A0009003BF7420F08A828B838CF0C005C006C007787C799D7A02120083E582D007D014
:2045C00006D005D007D006D0057005F582024AF4C005C006C007A87108743726FAE40836F2
:2045E000FB0886049011AA74C5F0A37481F0A37480F09011AD7404F0E4A3F08A828B838CD8
:20460000F0C005C006C007126815E5828583F0D007D006D005D007D006D00545F0601B9026
:2046200005767410F08D828E838FF0E4126CBBA3E4126CBB758201024AF48D828E838FF038
:20464000742A126CBBA37401126CBBC005C006C007A87108740126FAE40836FB08860490EB
:2046600003BF7420F08A828B838CF0C005C006C007787C799D7A02120083E582D007D006DD
:20468000D005D007D006D0057005F582024AF4C005C006C007A87108743726FAE40836FB3C
:2046A0000886048A828B838CF0127AC3FAE4BA2F0104D007D006D005701B9005767410F02B
:2046C0008D828E838FF0E4126CBBA3E4126CBB758201024AF4C005C006C007A87108743708
:2046E00026FAE40836FB0886048A828B838CF0C002C003C004C005C006C0077831798B7A93
:2047000002120083D007D006D005D004D003D0020ABA00010B8A828B838CF0127AC3FAE474
:20472000BA200104D007D006D0056049C005C006C007A8710874E626FAE40836FB088604D3
:204740009011CF7420F0A37482F0A37480F09011D27414F0E4A3F08A828B838CF0C005C0D8
:2047600006C007126BF9D007D006D005D007D006D00502480DC005C006C007A87108E571D2
:204780002404F9743726F7E4083609F70809E6F7A87108740126FEE40836FF0886028E82A5
:2047A0008F838AF0C005C006C00778AC799C7A02120083E58214A8710808080826FA08E411
:2047C00036FB0886048A828B838CF0E4126CBBA8710874E626FAE40836FB088604E571249F
:2047E00004F89011CFE6F008A3E6F008A3E6F09011D27414F0E4A3F08A828B838CF0126B00
:20480000F9D007D006D005D007D006D005A8710874E626FAE40836FB0886040ABA00010B81
:204820008A828B838CF0127AC3FABA5F0280030249DC8D828E838FF0743C126CBBA3740134
:20484000126CBBA87108740126FAE40836FB0886049003BF740AF08A828B838CF0C005C0DF
:2048600006C007787C799D7A02120083E582D007D006D0057005F582024AF4A8710874376F
:2048800026FAE40836FB0886048A828B838CF0127AC3FABA0A030249DCBA0D030249DCA8E3
:2048A0007108743726FAE40836FB0886049011AA744AF0A37482F0A37480F09011AD740F2B
:2048C000F0E4A3F08A828B838CF0C005C006C007126815E5828583F0D007D006D00545F0E4
:2048E000705CC005C006C007A87108740926FA74010836FB088604A87108743726FDE408C1
:2049000036FE088607740F2DFDE43EFE8D828E838FF0C002C003C004C007126A5EAD82AE9B
:2049200083D007D004D003D0028A828B838CF0ED126CBBA3EE126CBBD007D006D005A87183
:2049400008743726FAE40836FB0886049011AA74EBF0A37481F0A37480F09011AD7415F065
:20496000E4A3F08A828B838CF0C005C006C007126815E5828583F0D007D006D00545F060D3
:2049800003024832C005C006C007A87108740B26FA74010836FB088604A87108743726FD57
:2049A000E40836FE08860774152DFDE43EFE8D828E838FF0C002C003C004C00712440EADAF
:2049C00082D007D004D003D0028A828B838CF0ED126CBBD007D006D005024832A8710874B6
:2049E000FA26FAE40836FB0886048A828B838CF07401126CBB8D828E838FF0744B126CBB13
:204A0000A37401126CBBA87108740126FAE40836FB0886049003BF740AF08A828B838CF08A
:204A2000C005C006C007787C799D7A02120083E582D007D006D0057005F582024AF4A871DB
:204A400008743726FAE40836FB0886049011AA7441F0A37482F0A37480F09011AD7408F01A
:204A6000E4A3F08A828B838CF0C005C006C007126815E5828583F0D007D006D00545F060D2
:204A8000030249F5C005C006C007A87108743726FAE40836FB088604A87108740126FDE449
:204AA0000836FE0886078D828E838FF0C002C003C004C00778AC799C7A02120083AD82D02D
:204AC00007D004D003D002ED24FE2AFAE43BFB8A828B838CF0E4126CBBD007D006D00502D2
:204AE00049F58D828E838FF0E4126CBBA3E4126CBB758202857181D07122AA82AB83ACF033
:204B0000C002C003C00412451FD004D003D00274FA2AFDE43BFE8C078D828E838FF0127AED
:204B2000C3FDBD01098A828B838CF002401B22900577E0F524A3E0F525A3E0F526741C25E4
:204B400024F527E43525F528852629900576E0F830E40122E830E50122E830E70122E82082
:204B6000E603024C51A927AA28AB2974012527FCE43528FDAE299003C674532524F0E435F3
:204B800025A3F0A3E526F09003C974AEF0E4A3F08C828D838EF0C002C003C001781979A24C
:204BA0007A02120083D001D003D002741A29FCE43AFD8B069003C6743729F0E43AA3F0A39E
:204BC000EBF09003C974AEF0E4A3F08C828D838EF0C002C003C001781979A27A0212008376
:204BE000D001D003D002743329FCE43AFD8B068C828D838EF0E4126CBBA3E4126CBB74FAE0
:204C000029FCE43AFD8B068C828D838EF0E4126CBB89828A838BF0E4126CBB740929FC7444
:204C2000013AFD8B068C828D838EF0E4126CBBA3E4126CBB740B29FC74013AFD8B068C8243
:204C40008D838EF0E4126CBB89828A838BF0024AFAE4B5270AE4B52806E4B529028045E8CE
:204C600030E3288527828528838529F0127AC3FA0A8527828528838529F0EA126CBBBA14BD
:204C80000040159005767420F0800D8527828528838529F0E4126CBB85278285288385297E
:204CA000F0024AFA9005767420F022900326E0FAA3E0FB8A828B83783679CB7A02120083DF
:204CC000AA82AB837401C0E0C002C003E4C0E0904B2F126246AA82E58124FCF581EA7020F6
:204CE000900326E0FAA3E0FB8A828B83783679CB7A02120083AB83780179AC7A02020083B9
:204D000022C023C0E0C0F0C082C083C002C003C004C005C006C007C000C001C0D075D010B8
:204D2000E52B75F048A424BAFAE43401FB74462AF582E43BF583E0F52CABBF8B147B00AD02
:204D4000BE7E00EB4DF52EEC4EF52FE4F531F532F533F534E52B24FC5023A92B7A00C0111A
:204D6000C01274F5C0E074A7C0E07480C0E075D00012727875D010E58124FBF581E52B75F3
:204D8000F048A424BAFAE43401F974052AFBE439FCE52C252C2BF582E43CF583E52EF0A354
:204DA000E52FF08A828983E52EF0A3E52FF074462AFBE439FC8B828C83E0FD0D8B828C8313
:204DC000EDF0BD20068B828C83E4F074472AFBE439FC8B828C83E0FDBD20028003024EABD4
:204DE00074452AFEE439FF8E828F83E0F8088E828F83E8F0B820068E828F83E4F08E828F47
:204E000083E0F52D74052AF535E439F536753020C012C011E52D252D2535F582E43536F517
:204E200083E0FEA3E0FAE4F9FFEE2531F531EA3532F532E93533F533EF3534F534052D7436
:204E400020B52D0474018001E4D011D0126003752D00D530BB8A828983A3A3853137E53288
:204E6000C403C537C40354076537C5375407C5376537C537F538E533C40354F84538F538C4
:204E8000853339E534C403C539C40354076539C5395407C5396539C53930E20244F8F53A11
:204EA000AE37AF38EEF0A3EFF080140D8B828C83EDF08A828983A3A3E52EF0A3E52FF09094
:204EC0001254E52BF0052B7403B52B03752B00E52B75F048A424BAFAE43401FB8A828B83DB
:204EE000A3A3A3A3E0F5BBC2EDD0D0D001D000D007D006D005D004D003D002D083D082D036
:204F0000F0D0E0D02332E582900292F0900292E075F048A424BAFAE43401FB74472AF582B4
:204F2000E43BF583E0FCBC20028004900000228A828B83A3A3E0FAA3E08A82F58322E58220
:204F4000900293F0900293E075F048A424BAF582E43401F583E0FAA3E08A82F58322E58296
:204F6000900294F0900294E0FAF582C002124F06AB82AC83D0028A82C003C004124F3ED04B
:204F800004D003EB24B8FBEC34F8FC9011E1EBF0A3ECF0900019126D6AAA82AB839011FB00
:204FA0007411F0E4A3F08A828B83027005AA83E582900295F0A3EAF075840175C90075C8D7
:204FC00000900295E0FAA3E0FB8A04C3E49CF5CAC3E49AE49BFB8BCB75CCFF75CDFF758437
:204FE0000022752B009011C2E4F09011C37420F0A37401F09001BA75F000126A199001BE34
:20500000E4F09002067401F090024E7402F075E88475BCFA75D103900000124FAD43E7025A
:2050200043C80422E582900298F0C2AF900298E0908000F0900297E0908100F0D2AF22E5B1
:2050400082900299F0900299E0908100F022E58290029AF090029AE0908000F022E58290DD
:20506000029DF0C2AF900297740AF075820B12502490029DE0FA743F5A900297F5F0744039
:2050800045F0F075820C12502490029BE0FAA3E0FB900297F075820EC002C003125024D0E4
:2050A00003D002900297EAF075820D125024900297E4F075820B125024D2AF22E58290026D
:2050C0009EF0C2AF90029EE0908000F0908100E0FAD2AF8A8222908100E0F58222AA83E58B
:2050E0008290029FF0A3EAF090029FE0FAA3E0FBEA4B60047C0180027C00EC60277C107D77
:2051000027EC4D60047E0180027E00EE60071CBCFFEF1D80EC1ABAFF011B90029FEAF0A30B
:20512000EBF080CC90029FEAF0A3EBF0229002977407F075821E1250249002977406F07566
:20514000821F1250249000011250DD9002977403F07582001250249000011250DD90029752
:20516000E4F07582001250249000011250DD9002977403F07582001250249000011250DD31
:20518000900297E4F07582001250249000011250DD7582011250BC9002977856E6F07582EB
:2051A000101250249002977857E6F07582111250249002977858E6F075821212502490020D
:2051C000977859E6F0758213125024900297785AE6F0758214125024900297785BE6F07558
:2051E000821512502490029774FFF075821612502490029774FFF07582171250249002972A
:2052000074FFF075821812502490029774FFF075821912502490029774FFF075821A125075
:205220002490029774FFF075821B12502490029774FFF075821C12502490029774FFF07500
:20524000821D1250249002977481F07582FF1250249002977431F075820512502475822840
:205260001250BCAA827B00758229C002C0031250BCAC82D003D0028C057C00EC2AFAED3B8E
:20528000FBBA4605BB0A0280047582012275822A1250BCAA827B0075822BC002C0031250BA
:2052A000BCAC82D003D0028C057C00EC2AFAED3BFBBA0005BB9002800475820122787EE49B
:2052C000F608F6758200227582F01250BC1250D6E582FAFB20E00302535B7582F212504EDC
:2052E0001250D61250D61250D6AA827C00C002C0041250D6AD82D004D0028D067D00ED2AA4
:20530000FAEE3CFC787EA60208A6047A007C008A058C06787EC3ED96EE0896502AEA24DADC
:20532000FDEC3403FEC002C004C005C0061250D6AF82D006D005D004D0028D828E83EFF085
:205340000ABA00CB0C80C89002977401F07582FE125024787E868208868322EB602A900229
:20536000977480F07582FF125024900297740FF07582FE125024900297E4F07582051250C4
:205380002412512D900000229002977401F07582FE1250249000002202539B7582021250A1
:2053A000BCE58220E0F59002977402F07582FE1250247582F812504E9003F1E0FABA0623EB
:2053C000900408E0C4540F7C0024FBFBEC34FFCB25E0CB33CB25E0CB33FC74362BFBE43CED
:2053E000FF8016BA01067B367F00800DBA11067B367F0080047B367F007ADA7D037E00781B
:2054000080E4F608F67880C3E69B08E69F50328A828D838EF0127AC3FCA3AA82AD838C82F7
:20542000C002C003C005C006C00712503FD007D006D005D003D002788006B600C8080680C3
:20544000C478808602088604900572E0FDA3E0FE7880C3E69D08E69E505BBB2A05BF0002F1
:20546000805390056CE0FDA3E0FEA3E0FB8D1B8E1C8B1D78808607088603900572E0FDA3E5
:20548000E0FEC3EF9DEB9E5028851B82851C83851DF0127AC3FDA385821B85831C8D82C002
:2054A00003C00712503FD007D0030FBF00CC0B80C98F028B04900297ECF07582FDC002C04E
:2054C00004125024D004D002900297EAF07582FC1250249002977401F0758202025024AA79
:2054E00082AB83ACF0C002C003C0041260C6AD82AE83AFF0F8D004D003D0028A828B838CC9
:20550000F0ED126CBBA3EE126CBBA3EF126CBBA3E8026CBBC071E581F571240BF581AA825E
:20552000AB83ACF0E5712405F874042AF6E43B08F608A604E5712405F886820886830886A5
:20554000F0A97109127AC3F7A3127AC309F7A3127AC309F7A3127AC309F7C002C003C004D3
:205560001260C6C0E0E5712408F8D0E0A68208A68308A6F008F6D004D003D0028A828B83A1
:205580008CF0127AC3FCA3127AC3FDA3127AC3FEA3127AC3FFE5712408F8E6C39CFC08E6CB
:2055A0009DFD08E69EFE08E69FFFA87108EC26FCED0836FDEE0836FEEF0836FFE57124050F
:2055C000F886820886830886F0EC126CBBA3ED126CBBA3EE126CBBA3EF126CBB857181D072
:2055E0007122C071858171AA82AB83ACF0740D2AFDE43BFE8C078D828E838FF0A87118183A
:2056000018E6126CBBA871181818B60116D290740E2AFDE43BFE8C078D828E838FF0125465
:20562000DF8012C290740E2AFAE43BFB8A828B838CF0125514D07122C071858171AA82ABF4
:2056400083ACF0740D2AFDE43BFE8C078D828E838FF0A871181818E6126CBBA87118181853
:20566000B60116D291740E2AFDE43BFE8C078D828E838FF01254DF8012C291740E2AFAE44E
:205680003BFB8A828B838CF0125514D07122C071858171AA82A871181818B6013375840048
:2056A000EA6005BA020040057582FF8052438920EA1490A80A93F58D438E10D28E75840057
:2056C000759850759110D299758400758200802FA871181818B6022475840075C80475C998
:2056E0000875CAF575CBFFD2CA758400759850759105D29975840075820080037582FFD08E
:205700007122E582900307F07584003099FD900307E0F599C2997584002290000022900383
:2057200009E5EFF0E0FA30E107900308E4F0800EEA30E30A900308E0FA90030804F075FF2E
:20574000FF75FF0775840F75960175840F758C2075970175E10475E20075E34275A4E175CB
:20576000A50F75A6FF75A7FF75ADFF7580FF75900C75840075A28875A30475A14175D102C7
:2057800075E88122C2AF43B701438F01438F0422538FFA53B7FED2AF22C2AF43B701438F0D
:2057A00003438F04E4F582F583F0538FF853B7FED2AF22E58290030AF0C2AF90030AE0FAEC
:2057C0007B00438F048A828B83E493FA538FFBD2AF8A822290030B7414F0A37403F01257D8
:2057E0009912578490030BE0FAA3E0FB7C007D007882E4F608F67882C3E6947D08E694002C
:2058000050238A828B83E0FEA3AA82AB838C828D83EEF0A3AC82AD8375FFA5788206B60054
:20582000D5080680D112579075820012586FAA82AB8374FFC39AFA74FF9BFB8A828B830222
:205840005842AA83E58290030DF0A3EAF01257847A7E7B0090030DE0FCA3E0FD8C068A8213
:205860008B83EEF090007FE48D04ECF0025790E58290030FF0900310E4F0A3F090030FE06E
:20588000FA6005BA0118800B900312747EF0E4A3F080149003127480F0E4A3F0800990039D
:2058A000127480F0E4A3F0900312E0FAA3E0FB7C007D00C3EC9AED64808BF063F08095F098
:2058C00050588C068E82C002C003C004C0051257B3AE82D005D0047F008C00088882C0049A
:2058E000C005C006C0071257B3A882D007D006D005D004D003D0028801E42EFEE93FFF90C5
:205900000310E0F8A3E0F9900310EE28F0EF39A3F074022CFCE43DFD8099900310E0FAA3C7
:20592000E08A82F5832275820112586FAA82AB8375FFA5BAFF05BBFF02800C125A4B75FF6C
:20594000A51257D475FFA5758200227A00BA7D0050307B147C037D00EA2BFBE43CFC8A823F
:20596000C002C003C004C0051257B3AE82D005D004D003D0028B828C838DF0EE126CBB0AB5
:2059800080CB900314E0FA7856A602900315E0FA7857A602900316E0FA7858A60290031727
:2059A000E0FA7859A602900318E0FA785AA602900319E0FA785BA60290031DE0FA785BA691
:2059C0000290031AE0FAA3E0FB9003CEEAF0A3EBF090031C75F000127AC3FAA3127AC3FBBD
:2059E0009003D075F000EA126CBBA3EB126CBB90031EE0FAA3E0FB9003D6EAF0A3EBF0909B
:205A0000032075F000127AC3FAA3127AC3FB9003D875F000EA126CBBA3EB126CBB90032259
:205A2000E0FAA3E0FB9003D2EAF0A3EBF090032475F000127AC3FAA3127AC3FB9003D47523
:205A4000F000EA126CBBA3EB026CBB9011BA740BF0A374A8F0A37480F09011BD747DF0E459
:205A6000A3F090031475F0000269A3AAF0AB83E582900391F0A3EBF0A3EAF0900391E0FA3D
:205A8000A3E0FBA3E0FC9011BA7414F0A37403F0A3E4F09011BD7406F0E4A3F08A828B835C
:205AA0008CF00269A312571E78847632E408F6788676E808760378897632E408F612592656
:205AC00012594B78887606124FE21260AA7402C0E075820112568EAA821581EA30E70E90D0
:205AE00002977404F075821F12502480FE12512DE58260031260A4789C79A77A02120083D6
:205B0000124CAB12132F78C579CB7A02120083900328E0FB7A00900329E07D004202ED42FA
:205B2000038A057C008B027B00EA4204EB4205900394ECF0A3EDF090032AE0FB7A009003C5
:205B40002BE07D004202ED42038A057C008B027B00EA4204EB420590039675F000EC126CDA
:205B6000BBA3ED126CBB9000A17494F0A37403F0A3E4F090032E75F0001211C2C205C2065D
:205B800075FFA578A379957A03120083D2AF900398E4F0A3F07488C0E074A8C0E07480C092
:205BA000E0127278158115811581748BC0E074A8C0E07480C0E01272781581158115817426
:205BC000C9C0E074A8C0E07480C0E0127278158115811581740CC0E074A9C0E07480C0E0DD
:205BE000127278158115811581785886027B00785786047D00785686067F00C002C003C020
:205C000004C005C006C007741DC0E074A9C0E07480C0E0127278E58124F7F581785B86025E
:205C20007B00785A86047D00785986067F00C002C003C004C005C006C0077440C0E074A928
:205C4000C0E07480C0E0127278E58124F7F5819003CEE0FAA3E0FB8A828B83783679CB7ADE
:205C600002120083E5828583F0FA7B009003CEE0FCA3E0FD8C828D83C002C003783679CB67
:205C80007A02120083AD838D047D00C004C0057451C0E074A9C0E07480C0E0127278E58114
:205CA00024F9F5819003D0E0FAA3E0FB8A828B83783679CB7A02120083E5828583F0FA7BA5
:205CC000009003D0E0FCA3E0FD8C828D83C002C003783679CB7A02120083AD838D047D0021
:205CE000C004C0057466C0E074A9C0E07480C0E0127278E58124F9F5819003D2E0FAA3E099
:205D0000FB8A828B83783679CB7A02120083E5828583F0FA7B009003D2E0FCA3E0FD8C82C8
:205D20008D83C002C003783679CB7A02120083AD838D047D00C004C005746EC0E074A9C0A5
:205D4000E07480C0E0127278E58124F9F5819003D4E0FAA3E0FB8A828B83783679CB7A0293
:205D6000120083E5828583F0FA7B009003D4E0FCA3E0FD8C828D83C002C003783679CB7AE8
:205D800002120083AD838D047D00C004C0057466C0E074A9C0E07480C0E0127278E5812454
:205DA000F9F5819003D6E0FAA3E0FB8A828B83783679CB7A02120083E5828583F0FA7B00C2
:205DC0009003D6E0FCA3E0FD8C828D83C002C003783679CB7A02120083AD838D047D00C05A
:205DE00004C0057487C0E074A9C0E07480C0E0127278E58124F9F5819003D8E0FAA3E0FB36
:205E00008A828B83783679CB7A02120083E5828583F0FA7B009003D8E0FCA3E0FD8C828D2F
:205E200083C002C003783679CB7A02120083AD838D047D00C004C0057466C0E074A9C0E059
:205E40007480C0E0127278E58124F9F581780079807A031200837833798C7A021200837500
:205E6000FFA5AA817B00C002C0037499C0E074A9C0E07480C0E0127278E58124FBF581124C
:205E800052C7AA82AB83900572EAF0A3EBF0EA4B6003025F61100503025F4F7A007B00C356
:205EA000EA940AEB94004003025F4F9011E1EAF0A3EBF0900128C002C003126D6AAC82AD0C
:205EC00083EC247AFCED3405FD900577ECF0A3EDF0A3E4F075820278E779AC7A0212008329
:205EE000D003D002900572E0FCA3E0FD4C6058C002C00378FF79D17A021200839003E67551
:205F0000F000127AC3FCA3127AC3FD900806C004C005783679CB7A02120083AE82AF83D0FB
:205F200005D004D003D002ECB50606EDB50702800BC002C003125398D003D002C002C00354
:205F4000125398D003D0020ABA00010B025E9F100603025FFE780579CC7A02120083025F24
:205F6000FE9003E675F000127AC3FAA3127AC3FB900800C002C003783679CB7A02120083EF
:205F8000AC82AD83D003D002EAB5042CEBB5052875820178E779AC7A02120083900572E0EE
:205FA000FAA3E0FB4A605778FF79D17A0212008312539812539880469003E675F000127A6C
:205FC000C3FAA3127AC3FB900806C002C003783679CB7A02120083AC82AD83D003D002EA04
:205FE000B5041BEBB5051778C679CF7A02120083900572E0FAA3E0FB4A600312539810075A
:206000000280137888E66402F67888900297E6F075821F12502475FFA590000075F0007888
:206020005979807A0312008375FFA590001675F000782B79867A0312008375FFA590002C4F
:2060400075F0007801798C7A0312008375FFA590003575F000785C79907A0312008375FFA5
:20606000A59002A175F000788A798C7A0212008375FFA5025E7FE58290039AF090039AE042
:20608000FA601E7B00C002C00374ACC0E074A9C0E07480C0E0127278E58124FBF581C2932B
:2060A00022D29322C2AF43EF1022758400758800758E00758901758AE6758CBED28CD2B9DD
:2060C000D2A975840022C2A9D2A9788C86020886030886040886058A828B838CF0ED22C09D
:2060E000E0C082C083C0D075D008D310AF01C3C0D0758AE6758CBE788416B6FF0208167875
:2061000084E60846700978847632E408F6D205788616B6FF0208167886E60846700978865F
:2061200076E8087603D206788916B6FF0208167889E60846700978897632E408F6D2077832
:206140008B7600788BB60A0040030261D3788BE624D3FAE43402FB8A828B83E0706FC00A70
:20616000C00B788BE625E025E024ABFCE43402FD8C828D83E0FEA3E0FFA3E0FAA3E0FB1EE8
:20618000BEFF091FBFFF051ABAFF011B8C828D83EEF0A3EFF0A3EAF0A3EBF0EE4F4A4BD04D
:2061A0000BD00A7028788BE625E024DDF582E43402F583E0FCA3E0FD4C600B8A828B8374C9
:2061C00004F0D20480078A828B837405F0788B06026143788C06B6000C0806B60007080697
:2061E000B600020806D2A9D0D092AFD0D0D083D082D0E0329003A77402F0E4A3F09003A705
:20620000E0FAA3E0FB1ABAFF011B9011E1EAF0A3EBF0900006C002C003126D6AAC82AD83FB
:20622000D003D002EC249BF582ED3403F583E4F0A3F09003A7EAF0A3EBF09003A7E0FAA34B
:20624000E0FB4A70B822C071E581F5712404F581AA82AB837C037D00BA0009BB0006758263
:2062600002026409A871181818E66010A871181818B601028006758203026409E57124FA79
:20628000F8E66010E57124FAF8B6010280067582040264097E007F00A87108E4F608F6C3E2
:2062A000EE9402EF94004003026398A87108E6249BF58208E63403F583A871080808E0F6B6
:2062C000A3E008F6A871080808B6000B08B600078E048F05026385A871080808E6B50207A1
:2062E00008E6B5030280028006758205026409C004C005A87108A971090909E6249BF70800
:20630000E6340309F7A8710808088682088683A3A3E0FCA871181818E6B5040474018001FA
:20632000E4D005D004605EC004C005A8710808088682088683A3A3A3E0FCA3E0FDE5712480
:20634000FBF8E6B5040908E6B5050474018001E4D005D004602FC004C005A87108080886A4
:2063600082088683A3A3A3A3A3E0FCE57124FAF8E6B5040474018001E4D005D00460067512
:206380008201026409A87108740626F6E40836F60EBE00010F02629FC3EC9402ED94005047
:2063A000659011E1ECF0A3EDF0900006C002C003126D6AAC82AD83D003D002EC249BF58271
:2063C000ED3403F583EAF0A3EBF0EC249BFCED3403FD8C828D83A3A3A871181818E6F08CDA
:2063E000828D83A3A3A3E57124FBF8E6F0A308E6F08C828D83A3A3A3A3A3E57124FAF8E6BF
:20640000F07582008003758206857181D07122C07185817105810581AA82AB83BA0008BBB0
:20642000000575820280637C007D007E007F00C3EC9402ED9400504FC004C005A87108EE88
:20644000249BF6EF340308F6A871088682088683E0FCA3E0FDECB50208EDB5030474018084
:2064600001E4D005D0046011A871088682088683E4F0A3F0758200801174062EFEE43FFF2C
:206480000CBC00AB0D80A8758201857181D071227A007B00C3EA9402EB94004001229011C7
:2064A000E1EAF0A3EBF0900006C002C003126D6AAC82AD83D003D002EC249BFEED3403FFD0
:2064C0008E828F83A3A3A3A3A3E0F8B80102800302655FC002C0038E828F83A3A3A3E0F52A
:2064E0001EA3E0F51F900577E0FAA3E0FBA3E0F874042AFAE43BFB8A828B8388F0127AC371
:20650000FAA3127AC3FBEAB51E08EBB51F0474018001E4D003D00270030265E174022EF836
:20652000E43FF988828983E060030265E1EC249BF582ED3403F583E0F8A3E0F9B80006B915
:2065400000030265E1C002C003C000C00188828983120098D001D000D003D0020265E1C0DC
:2065600002C0038E828F83A3A3A3E0F51EA3E0F51F900577E0FAA3E0FBA3E0F874062AFA44
:20658000E43BFB8A828B8388F0127AC3FAA3127AC3FBEAB51E08EBB51F0474018001E4D0E7
:2065A00003D002603C74022EFEE43FFF8E828F83E0702EEC249BF582ED3403F583E0FCA3C9
:2065C000E0FDBC0005BD00028017C002C003C004C0058C828D83120098D005D004D003D0A5
:2065E000020ABA00010B026494AAF0AB83E582901193F0A3EBF0A3EAF0901193E0FAA3E0F0
:20660000FBA3E0FC901190E0FDA3E0FEA3E0FF8D828E838FF0127AC3F8A3AD82AE838A82FA
:206620008B838CF0E8126CBBA3AA82AB83E870DF901193E0FAA3E0FBA3E0FC8A828B838CCA
:20664000F022AA82AB83ACF0FD90119AEAF0A3EBF0A3ECF0A3EDF090119AE0FAA3E0FBA36D
:20666000E0FCA3E0FD30E70FC3E49AFEE49BFFE49CF8E49DF980088A068B078C008D018E97
:20668000028F0388048905901196E0FEA3E0FFA3E0F8A3E0F933E433F56A6013C3E49EF568
:2066A0006BE49FF56CE498F56DE499F56E80088E6B8F6C886D896E90119EE56BF0A3E56CF2
:2066C000F0A3E56DF0A3E56EF08A828B838CF0ED12670AAA82AB83ACF0FD90119AE0FEA34A
:2066E000E0FFA3E0F8A3E0F933E433656A6013C3E49AFEE49BFFE49CF8E49D8E828F8388D8
:20670000F0228A828B838CF0ED22AA82AB83ACF0FD9011A2EAF0A3EBF0A3ECF0A3EDF090A5
:2067200011A6E4F0A3F0A3F0A3F090119EE0FAA3E0FBA3E0FCA3E0FD7578209011A2E0FF50
:20674000A3E0F8A3E0F9A3E0FE33920BEF2FFFE833F8E933F9EE33FE9011A2EFF0A3E8F0F0
:20676000A3E9F0A3EEF09011A6E0FEA3E0FFA3E0F8A3E0F9EE2EFEEF33FFE833F8E933F91B
:206780009011A6EEF0A3EFF0A3E8F0A3E9F0300B1E9011A6E0FFA3E0F8A3E0F9A3E0FE90D4
:2067A00011A674014FF0A3E8F0A3E9F0A3EEF09011A6E0FEA3E0FFA3E0F8A3E0F9C3EE9A0D
:2067C000EF9BE89CE99D40319011A6EEC39AF0EF9BA3F0E89CA3F0E99DA3F09011A2E0FEC4
:2067E000A3E0FFA3E0F8A3E0F99011A274014EF0A3EFF0A3E8F0A3E9F0D578028003026776
:206800003B9011A2E0FAA3E0FBA3E0FCA3E08A828B838CF022AAF0AB83E5829011AFF0A3D6
:20682000EBF0A3EAF09011ADE0FAA3E0FB4A7004900000229011AFE0FCA3E0FDA3E0FE902D
:2068400011AAE0FFA3E0F8A3E0F91ABAFF011BEA4B60408C828D838EF0127AC3F5786033F8
:20686000C002C0038F82888389F0127AC3FAB5780474018001E4D003D00260170CBC0001C5
:206880000D9011AFECF0A3EDF0A3EEF00FBF00BA0880B79011AFECF0A3EDF0A3EEF08C82BC
:2068A0008D838EF0127AC3FC3395E0FA8F82888389F0127AC3FF3395E0FBECC39FFCEA9B08
:2068C0008C82F58322AAF0AB83E5829011B3F0A3EBF0A3EAF09011B3E0FAA3E0FBA3E0FC77
:2068E0009011B6EAF0A3EBF0A3ECF08A828B838CF0127AC3FDA3AA82AB839011B3EAF0A3BA
:20690000EBF0A3ECF0ED70E39011B3EAF0A3EBF0A3ECF09011B2E0FD9011B6E0FEA3E0FFCB
:20692000A3E0F81ABAFF011B9011B3EAF0A3EBF0A3ECF0EAB5060AEBB50706ECB500028043
