:020000040002F8
:20800000AAF0AB83E5829000DBF0A3EBF0A3EAF09000DBE0FAA3E0FBA3E0FC8A828B838CF3
:20802000F0127AC3FDBD3D0280120ABA00010B9000DBEAF0A3EBF0A3ECF080DF9000DBEAB0
:20804000F0A3EBF0A3ECF00ABA00010B9000DBEAF0A3EBF0A3ECF08A828B838CF022AAF0CF
:20806000AB83E5829000DEF0A3EBF0A3EAF09000DEE0FAA3E0FBA3E0FC8A828B838CF01225
:208080007AC3FDBD2E0280120ABA00010B9000DEEAF0A3EBF0A3ECF080DF9000DEEAF0A3C8
:2080A000EBF0A3ECF00ABA00010B9000DEEAF0A3EBF0A3ECF08A828B838CF022AAF0AB83D1
:2080C000E5829000E4F0A3EBF0A3EAF09000E4E0FAA3E0FBA3E0FC8A828B838CF012800067
:2080E000AA82AB83ACF0C002C003C004126A5EAD82D004D003D0029000E7EDF08A828B8351
:208100008CF012805EAA82AB83ACF0C002C003C004126A5EAD82D004D003D0029000E8EDCD
:20812000F08A828B838CF012805EAA82AB83ACF0C002C003C004126A5EAD82D004D003D00A
:20814000029000E9EDF08A828B838CF012805EAA82AB83ACF0C002C003C004126A5EAD82F9
:20816000D004D003D0029000EAEDF08A828B838CF012805EAA82AB83ACF09000E4EAF0A3C2
:20818000EBF0A3ECF09000E1E0FAA3E0FBA3E0FC9000E7E0FE7D009000E8E078004205E86C
:2081A00042068D007F008E057E00ED4207EE42008A828B838CF0EF126CBBA3E8126CBB74FE
:2081C000022AFAE43BFB9000E9E0FE7D009000EAE078004205E842068D007F008E057E0025
:2081E000ED4207EE42008A828B838CF0EF126CBBA3E8026CBBAAF0AB83E5829000EBF0A36A
:20820000EBF0A3EAF09000EEE4F0A3F09000F0E4F09000F17401F0E4A3F09000EBE0FAA378
:20822000E0FBA3E0FC8A828B838CF0127AC3FDBD2D169000F174FFF0A3F09000EB74012A71
:20824000F0E43BA3F0A3ECF09000EBE0FAA3E0FBA3E0FC8A828B838CF0127AC3F582C0028D
:20826000C003C004126A41E582D004D003D00270128A828B838CF0127AC3FABA2E0280030C
:208280000283479000EBE0FAA3E0FBA3E0FC8A828B838CF0127AC3FDBD2E5A9000EB7401A9
:2082A0002AF0E43BA3F0A3ECF09000F07401F09000EBE0FEA3E0FFA3E0F88E828F8388F09E
:2082C000127AC3F582126A41E58260030282489000EEE0FEA3E0FF9011E1EEF0A3EFF09035
:2082E000000A126D6AE5828583F09000EEF0A3E5F0F00282489000EEE0FEA3E0FF9011E12A
:20830000EEF0A3EFF090000AC002C003C004C005126D6AAE82AF83D005D004D003D002EDCF
:208320003395E0F8ED24D0FDE834FFF89000EEED2EF0E83FA3F09000EB74012AF0E43BA39D
:20834000F0A3ECF00282489000F0E0FA601F9000F1E0FAA3E0FB9000EEE0FCA3E0FD9011B5
:20836000E1EAF0A3EBF08C828D83026D6A9000EEE0FAA3E0FB9011E1EAF0A3EBF090000A83
:20838000126D6AAA82AB839000F1E0FCA3E0FD9011E1ECF0A3EDF08A828B83026D6A12805A
:2083A00000AA82AB83ACF09011AA7454F0A374A7F0A37480F09011AD7407F0E4A3F08A8253
:2083C0008B838CF0C002C003C004126815E5828583F0D004D003D00245F07012900358E4DD
:2083E000F090035BF090035EF0900361F0229011AA745CF0A374A7F0A37480F09011AD74C6
:2084000007F0E4A3F08A828B838CF0126815E5828583F045F07005900390E4F02212800015
:208420001281F5AA82AB83900364EAF0A3EBF0229003587401F0221280001281F5AA82AB86
:2084400083900359EAF0A3EBF02290035B7401F0221280001281F5AA82AB8390035CEAF081
:20846000A3EBF0221280001281F5AA82AB83900366EAF0A3EBF02290035E7401F02212806B
:20848000001281F5AA82AB8390035FEAF0A3EBF0229003617401F0221280001281F5AA82CD
:2084A000AB83900362EAF0A3EBF022128000AA82AB83ACF09011C2E4F09011C3740CF0E4A8
:2084C000A3F090032E75F000C002C003C004126A19D004D003D0029011CFEAF0A3EBF0A321
:2084E000ECF09011D2740CF0E4A3F090032E75F000026BF9C071E581F5712404F581AA82F3
:20850000AB83ACF0AD710D9000E1EDF0A3E4F0A37440F08A828B838CF01280BCA8710886CF
:20852000020886038A828B83783679CB7A02120083AB838B0290031AEAF0A8710886020898
:2085400086038A828B83783679CB7A02120083E5828583F0FA90031BEAF0AA710A74022ACF
:20856000F886020886038A828B83783679CB7A02120083AB838B0290031CEAF0AA710A74F0
:20858000022AF886020886038A828B83783679CB7A02120083E5828583F0FA90031DEAF09E
:2085A000857181D07122C071E581F5712404F581AA82AB83ACF0AD710D9000E1EDF0A3E450
:2085C000F0A37440F08A828B838CF01280BCA8710886020886038A828B83783679CB7A02BE
:2085E000120083AB838B0290031EEAF0A8710886020886038A828B83783679CB7A021200CC
:2086000083E5828583F0FA90031FEAF0AA710A74022AF886020886038A828B83783679CB10
:208620007A02120083AB838B02900320EAF0AA710A74022AF886020886038A828B83783643
:2086400079CB7A02120083E5828583F0FA900321EAF0857181D07122C071E581F5712404DF
:20866000F581AA82AB83ACF0AD710D9000E1EDF0A3E4F0A37440F08A828B838CF01280BC73
:20868000A8710886020886038A828B83783679CB7A02120083AB838B02900322EAF0A87120
:2086A0000886020886038A828B83783679CB7A02120083E5828583F0FA900323EAF0AA7178
:2086C0000A74022AF886020886038A828B83783679CB7A02120083AB838B02900324EAF076
:2086E000AA710A74022AF886020886038A828B83783679CB7A02120083E5828583F0FA909E
:208700000325EAF0D203857181D07122128000126A5EAA82AB83900326EAF0A3EBF022C0EF
:2087200071E581F5712404F581AA82AB83ACF0AD710D9000E1EDF0A3E4F0A37440F08A8225
:208740008B838CF01280BCA8710886020886038A828B83783679CB7A02120083AB838B022F
:20876000900328EAF0A8710886020886038A828B83783679CB7A02120083E5828583F0FAB4
:20878000900329EAF0AA710A74022AF886020886038A828B83783679CB7A02120083AB8322
:2087A0008B0290032AEAF0AA710A74022AF886020886038A828B83783679CB7A02120083A2
:2087C000E5828583F0FA90032BEAF09000A17428F0A37403F0A3E4F090032E75F000121121
:2087E000C2857181D07122128000126A5EAA82AB8390032CEAF0A3EBF022128000AA82AB75
:2088000083ACF09011C2E4F09011C3741EF0E4A3F090033A75F000C002C003C004126A1995
:20882000D004D003D0027D008A828B838CF0127AC370030288A68A828B838CF0127AC3FED7
:20884000BE254274012AFEE43BFF8C008E828F8388F0127AC3FEBE342C74022AFEE43BFFEB
:208860008C008E828F8388F0127AC3FEBE301674032AFAE43BFBED243AF582E43403F58377
:208880007440F0801DED243AFEE43403FF8A828B838CF0127AC3F8A3AA82AB838E828F8338
:2088A000E8F00D028828D29322D202229003907401F022128000AA82AB83ACF07D008A82E9
:2088C0008B838CF0127AC3700302893C8A828B838CF0127AC3FEBE254274012AFEE43BFFC2
:2088E0008C008E828F8388F0127AC3FEBE342C74022AFEE43BFF8C008E828F8388F0127A79
:20890000C3FEBE301674032AFAE43BFBED2468F582E43403F5837440F0801DED2468FEE4BE
:208920003403FF8A828B838CF0127AC3F8A3AA82AB838E828F83E8F00D0288BEED2468F56A
:2089400082E43403F583E4F022128000AA82AB83ACF09011C2E4F09011C3740AF0E4A3F004
:2089600090038675F000C002C003C004126A19D004D003D0029011CFEAF0A3EBF0A3ECF0DB
:208980009011D2740AF0E4A3F090038675F000026BF91257D430025890A73C75F080127AF0
:2089A000ABAA82AB839000A7E4F0A3F0A3F09000AA7468F0A37403F0A3E4F09000AD743217
:2089C000F0A374A7F0A37480F09000B0743CF0A374A7F0A37480F09000B3EAF0A3EBF09032
:2089E000033A75F00012122FE582700EC293800A1003028005C2AF43EF10C20222AAF0AB46
:208A000083E5829000F3F0A3EBF0A3EAF07AB57BA67C808A828B838CF0127AC3FDA3127AA1
:208A2000C3FEA3127AC3FF8D828E838FF0127AC3F8B82A03028B2DC002C003C0048D828E19
:208A4000838FF0C002C003C004127AABAD82AE83D004D003D0029000F3E0F518A3E0F519BA
:208A6000A3E0F51AED2518FDEE3519FEAA1A8D828E838AF0127AC3FDE4BD3D0104D004D0D2
:208A800003D0027003028B238A828B838CF0127AC3FDA3127AC3FEA3127AC3FF8D828E83FB
:208AA0008FF0C002C003C004C005C006C007127AABA882A983D007D006D0059011AAEDF065
:208AC000A3EEF0A3EFF09011ADE8F0A3E9F0851882851983851AF0126815E5828583F0D064
:208AE00004D003D00245F0703A74032AFDE43BFE8C078D828E838FF0127AC3FDA3127AC3C3
:208B0000FEC005C006741BC0E0748BC0E0C005C006851882851983851AF022D006D0057562
:208B200082012274052AFAE43BFB028A1375820022AAF0AB83E5829000F6F0A3EBF0A3EA71
:208B4000F09000F6E0FAA3E0FBA3E0FC8A828B838CF0127AC3FDBD3F02801CBD0A028017EC
:208B6000BD200280120ABA00010B9000F6EAF0A3EBF0A3ECF080D59000F6EAF0A3EBF0A381
:208B8000ECF08A828B838CF0127AC3FABA0A028003BA2003028C309000F6E0FAA3E0FBA3B5
:208BA000E0FC8A828B838CF0127AC3FDBD2003028C309000F674012AF0E43BA3F0A3ECF013
:208BC0009000F6E0FAA3E0FBA3E0FC7DF97E007F008A828B838CF0127AC3F8B82002802668
:208BE000B8260280210ABA00010B9000F6EAF0A3EBF0A3ECF08D828E838FF0E8126CBBA364
:208C0000AD82AE8380CB9000F6EAF0A3EBF0A3ECF08D828E838FF0E4126CBB9000F975F0A2
:208C2000001289FDE5827002C29375FFA5028B970200959011C2E4F09011C37405F0E4A30F
:208C4000F09002A175F000126A199002A1E4F0A3F0020095E5829002A7F09002A7E0FA60C3
:208C60000ABA01028009BA021E800DC29280189002A3E4F0D292800F9002A37401F0900229
:208C8000A6E0FA9002A4F0020095AAF0AB83E5829002A8F0A3EBF0A3EAF09002A8E0FAA38C
:208CA000E0FBA3E0FC8A828B838CF0127AC3FDA3127AC3FEBD0005BE0002801DBD5D05BE8C
:208CC0000002805ABD6106BE0003028DA0BD6806BE0003028E78028EB574042AFDE43BFEAF
:208CE0008C07C005C006C00778E979957A03120083A882D007D006D0058D828E838FF0E8DB
:208D0000126CBB9002A8E0FDA3E0FEA3E0FF8D828E838FF0745D126CBBA3E4126CBB900205
:208D2000A8E0F53BA3E0F53CA3E0F53D7402253BF8E4353CF9AD3D888289838DF0127AC32A
:208D40007005F582028EC77404253BFDE4353CFEAF3D8D828E838FF0127AC3FD7403253BFA
:208D6000FEE4353CFFA83D8E828F8388F0127AC39002F4F0A3E4F0A3F0A3F09002F8E4F062
:208D8000A3F08D82788079967A03120083853B82853C83853DF07461126CBBA3E4126CBB12
:208DA0009002A8E0F53BA3E0F53CA3E0F53D7404253BF8E4353CF9AD3D888289838DF01253
:208DC0007AC3F582781979977A03120083AD82AE83AFF0F8ED4E4F486006758200028EC7AF
:208DE0007402253BFDE4353CFEAF3D8D828E838FF0127AC36002C2929002A8E0F53BA3E0F0
:208E0000F53CA3E0F53D7402253BF8E4353CF9AD3D888289838DF0127AC37003028D03740B
:208E200004253BFDE4353CFEAF3D8D828E838FF0127AC3FD7403253BFEE4353CFFA83D8E0B
:208E4000828F8388F0127AC39002F4F0A3E4F0A3F0A3F09002F8E4F0A3F08D82788079969D
:208E60007A03120083853B82853C83853DF07468126CBBA3E4126CBB9002A8E0FDA3E0FE3B
:208E8000A3E0FF74042DFDE43EFE8D828E838FF0127AC3F582781979977A03120083AD8247
:208EA000AE83AFF0F8ED4E4F4860057582008017D292028D038A828B838CF0E4126CBBA3D9
:208EC000E4126CBB758202020095C071858171AA82AB83ACF0E57124FBF8E6126CBBA30810
:208EE000E6126CBBA308E6126CBB74032AFAE43BFB8A828B838CF0E57124F9F8E6126CBBB4
:208F0000A308E6126CBBD07122C071858171C082C083C0F0E5812412F581E57124F6F88647
:208F2000050886060886078D828E838FF0E5712404F8127AC3F6A3127AC308F6A87108E5B3
:208F4000712406F9740326F7E4083609F70809E6F7E5712406F886820886830886F0E57174
:208F60002409F9127AC3F7A3127AC309F7E5712404F8E5712409F9C3E69708E60997400390
:208F80000290EAA8710886820886830886F0E571240BF9127AC3F7A3127AC309F7A3127AB8
:208FA000C309F7E57124F9F8E571240EF9E6F70809E6F70809E6F7E571240EF88682088633
:208FC000830886F0127AC3FAA3127AC3FBA3127AC3FC9011BAEAF0A3EBF0A3ECF0E57124C0
:208FE00004F89011BDE6F008A3E6F0E571240BF886820886830886F0C005C006C0071269DF
:20900000A3D007D006D005A8710886820886830886F0127AC3FCA3127AC3FAA3127AC3FB4F
:209020008D828E838FF0E5712411F8127AC3F6A3127AC308F6E5712411F8E62CFC08E63A20
:20904000FAA8710886820886830886F0EC126CBBA3EA126CBBA3EB126CBBE5712406F886AE
:20906000820886830886F0127AC3FAA3127AC3FBE5712411F8EAC396FAEB0896FBE57124EB
:2090800006F886820886830886F0EA126CBBA3EB126CBBE571240EF886820886830886F03A
:2090A000127AC3FAA3127AC3FBA3127AC3FCE5712411F8E62AFA08E63BFBE571240EF886D5
:2090C000820886830886F0EA126CBBA3EB126CBBA3EC126CBB8D828E838FF0E4126CBBA36E
:2090E000E4126CBB7582000293AFE5712404F8E5712409F986F0E7B5F00A0886F009E7B5F7
:20910000F002800302924BA8710886820886830886F0E571240EF9127AC3F7A3127AC30981
:20912000F7A3127AC309F7E57124F9F8E571240BF9E6F70809E6F70809E6F7E571240BF827
:2091400086820886830886F0127AC3FAA3127AC3FBA3127AC3FC9011BAEAF0A3EBF0A3EC12
:20916000F0E5712404F89011BDE6F008A3E6F0E571240EF886820886830886F0C005C00632
:20918000C0071269A3D007D006D005A8710886820886830886F0127AC3FCA3127AC3FAA3D6
:2091A000127AC3FB8D828E838FF0E5712411F8127AC3F6A3127AC308F6E5712411F8E62C79
:2091C000FC08E63AFAA8710886820886830886F0EC126CBBA3EA126CBBA3EB126CBBE571B1
:2091E0002406F886820886830886F0E4126CBBA3E4126CBBE571240BF886820886830886B5
:20920000F0127AC3FAA3127AC3FBA3127AC3FCE5712411F8E62AFA08E63BFBE571240BF80C
:2092200086820886830886F0EA126CBBA3EB126CBBA3EC126CBB8D828E838FF0E4126CBB29
:20924000A3E4126CBB7582010293AFA8710886820886830886F0E571240EF9127AC3F7A3F0
:20926000127AC309F7A3127AC309F7E57124F9F8E571240BF9E6F70809E6F70809E6F7E526
:2092800071240BF886820886830886F0127AC3FAA3127AC3FBA3127AC3FC9011BAEAF0A3A3
:2092A000EBF0A3ECF0E5712409F89011BDE6F008A3E6F0E571240EF886820886830886F00D
:2092C000C005C006C0071269A3D007D006D005A8710886820886830886F0127AC3FCA312E4
:2092E0007AC3FAA3127AC3FBE5712406F886820886830886F0E5712411F9127AC3F7A312BC
:209300007AC309F7E5712411F8E62CFC08E63AFAA8710886820886830886F0EC126CBBA3DD
:20932000EA126CBBA3EB126CBB8D828E838FF0127AC3FAA3127AC3FBE5712411F8EAC396A8
:20934000FAEB0896FB8D828E838FF0EA126CBBA3EB126CBBE571240BF886820886830886E2
:20936000F0127AC3FAA3127AC3FBA3127AC3FCE5712411F8E62AFA08E63BFBE571240BF8AB
:2093800086820886830886F0EA126CBBA3EB126CBBA3EC126CBBE5712406F88682088683F3
:2093A0000886F0E4126CBBA3E4126CBB758201857181D07122C071858171C082C083C0F0A3
:2093C000E5812410F581A87108740326FDE40836FE0886078D828E838FF0127AC3FAA31270
:2093E0007AC3FB4A700302955BE57124F7F8E5712405F9E6F70809E6F70809E6F7E5712472
:2094000005F886820886830886F0127AC3FAA3127AC3FB4A700302955BA87108868208861C
:20942000830886F0E5712408F9127AC3F7A3127AC309F7A3127AC309F7E57124FAF8E571C4
:20944000240BF9E6F70809E6F70809E6F7E571240BF886820886830886F0E571240EF91284
:209460007AC3F7A3127AC309F7A3127AC309F7E571240EF886820886830886F0127AC3FA74
:20948000E5712408F886820886830886F0EA126CBBE5712404F8A602E571240EF87401265F
:2094A000FBE40836FC088602E571240BF886820886830886F0EB126CBBA3EC126CBBA3EA76
:2094C000126CBBE5712408F8740126FAE40836FB088604A8710886820886830886F0EA12E1
:2094E0006CBBA3EB126CBBA3EC126CBBE5712405F886820886830886F0127AC3FAA3127A30
:20950000C3FB1ABAFF011BE5712405F886820886830886F0EA126CBBA3EB126CBB8D828E09
:20952000838FF0127AC3FAA3127AC3FB1ABAFF011B8D828E838FF0EA126CBBA3EB126CBB7B
:20954000E5712404F8A97119191986F0E7B5F00280030293C675820202964CE57124F7F808
:2095600086020886030886048A828B838CF0127AC3FDA3127AC3FE4D7005F58202964CED64
:209580004E7003029649C005C006E57124FAF8E571240EF9E6F70809E6F70809E6F7E571A2
:2095A000240EF886820886830886F0E571240BF9127AC3F7A3127AC309F7A3127AC309F742
:2095C000E571240BF886820886830886F0127AC3FDE5712404F8A6058A828B838CF0127AE8
:2095E000C3FDA3127AC3FE1DBDFF011E8A828B838CF0ED126CBBA3EE126CBBE571240BF8C0
:20960000740126FDE40836FE088607E571240EF886820886830886F0ED126CBBA3EE126CB1
:20962000BBA3EF126CBBE5712404F8A97119191986F0E7B5F00474018001E4D006D00570CE
:209640000302957F7582038003758201857181D07122C071E581F5712405F581AA82AB83AC
:20966000ACF074182AFDE43BFE8C078D828E838FF0127AC3F8B8060B900576E0F820E20354
:20968000029799C005C006C007A871080808740D2AF6E43B08F608A604A87108080886826C
:2096A0000886830886F0A97109127AC3F7A3127AC309F7900577E0FDA3E0FEA3E0FF74124E
:2096C0002DFDE43EFE8D828E838FF0A871080808127AC3F6A3127AC308F6A87108A97109F7
:2096E0000909C3E79609E70896E433D007D006D0056054C005C006C00774042AFDE43BFE2F
:209700008C078D828E838FF0127AC3FDA3127AC3FEA3127AC3FFA871080808901157E6F0EB
:2097200008A3E6F08D828E838FF0C005C006C007785479CB7A02120083D007D006D005D044
:2097400007D006D005804274042AFAE43BFB8A828B838CF0127AC3FAA3127AC3FBA3127AE4
:20976000C3FCA87108901157E6F008A3E6F08A828B838CF0C005C006C007785479CB7A0246
:20978000120083D007D006D0058D828E838FF07406126CBB7582018003758200857181D0A7
:2097A0007122C071E581F571240AF581AA82AB83ACF074182AFDE43BFE8C078D828E838F6D
:2097C000F0127AC3F8B80602800302993B900576E0F820E00302993BC005C006C007A87112
:2097E00008740D2AF6E43B08F608A604A8710886820886830886F0E5712404F9127AC3F77C
:20980000A3127AC309F7900577E0FDA3E0FEA3E0FF74122DFDE43EFE8D828E838FF0E571A5
:209820002406F8127AC3F6A3127AC308F6E5712404F8E5712406F9C3E79609E70896D0073D
:20984000D006D00540030298D0C005C006C007E5712404F8E5712406F9E6C397FD08E6093B
:2098600097FEA8710886820886830886F0ED126CBBA3EE126CBBE5712408F874042AF6E4B5
:209880003B08F608A604E5712408F886820886830886F0127AC3FDA3127AC3FEA3127AC39E
:2098A000FFE5712406F8E62DFD08E63EFEE5712408F886820886830886F0ED126CBBA3EE2F
:2098C000126CBBA3EF126CBBD007D006D005805BC005C006C00774042AFAE43BFB8A828B88
:2098E000838CF0127AC3FDA3127AC3FEA3127AC3FFE5712404F8E62DFD08E63EFE8A828BF5
:20990000838CF0ED126CBBA3EE126CBBA3EF126CBBA8710886820886830886F0E4126CBBB8
:20992000A3E4126CBBD007D006D0058D828E838FF07401126CBB7582018003758200857130
:2099400081D07122AAF0AB83E5829003AEF0A3EBF0A3EAF09003AEE0FAA3E0FBA3E0FC743C
:20996000022AFDE43BFE8C078D828E838FF0127AC3F8A3127AC3F9B80005B90002800CB881
:20998000D306B90003029A40029A899003ACE0F8A3E0F94870158D828E838FF0E4126CBB15
:2099A000A3E4126CBB758201029AAD74042AF53EE43BF53F8C409003A9E0FDA3E0FEA3E095
:2099C000FF853E82853F838540F0ED126CBBA3EE126CBBA3EF126CBB740D2AFDE43BFE8C3B
:2099E000078D828E838FF0E8126CBBA3E9126CBB74182AFAE43BFB8A828B838CF0E4126C19
:209A0000BB9003AEE0FAA3E0FBA3E0FC740D2AFDE43BFE8C078D828E838FF0127AC3FDA38D
:209A2000127AC3FE4D605174022AFDE43BFE8C078D828E838FF074D3126CBBA3E4126CBBAF
:209A40009003AEE0FDA3E0FEA3E0FF8D828E838FF01297A2AD829003AEE0FEA3E0FFA3E0A8
:209A6000F88E828F8388F0C005129652AE82D005EE5D708DF582803574182AFAE43BFB8AC8
:209A8000828B838CF0E4126CBB9003AEE0FAA3E0FBA3E0FC74022AFAE43BFB8A828B838C2B
:209AA000F0E4126CBBA3E4126CBB758202020095AAF0AB83E5829003B6F0A3EBF0A3EAF0E6
:209AC0009003B6E0FAA3E0FBA3E0FC74022AFDE43BFE8C078D828E838FF0127AC3F8A3127E
:209AE0007AC3F9B80005B90002800CB8F306B90003029C03029C859003B1E0F8A3E0F9B8AB
:209B00000018B900158D828E838FF0E4126CBBA3E4126CBB758201029CA9740D2AF541E4DF
:209B20003BF5428C439003B3E0FDA3E0FEA3E0FFC002C003C004C000C001744DC0E0749B84
:209B4000C0E0C000C0018D828E838FF022AD82AE83D001D000D004D003D00285418285429A
:209B6000838543F0ED126CBBA3EE126CBB74042AF541E43BF5428C43C000C00190056CE05B
:209B8000F8A3E0F9A3E0FD8541828542838543F0E8126CBBA3E9126CBBA3ED126CBB74184C
:209BA0002AFAE43BFB8A828B838CF0E4126CBBD001D000900576E0FA30E2269003B3E0FAD6
:209BC000A3E0FBA3E0FCC000C00174DDC0E0749BC0E0C000C0018A828B838CF022D001D08D
:209BE000009003B6E0FAA3E0FBA3E0FC74022AFAE43BFB8A828B838CF074F3126CBBA3E4D4
:209C0000126CBB9003B6E0FAA3E0FBA3E0FC8A828B838CF0C000C0011297A2AA82D001D0BC
:209C2000009003B6E0FBA3E0FCA3E0FD8B828C838DF0C002C000C001129652AB82D001D05D
:209C400000D002EB5A7004F582805E9003B6E0FAA3E0FBA3E0FC740D2AFDE43BFE8C078D1F
:209C6000828E838FF0127AC3FDA3127AC3FE4D6003029BB374182AFAE43BFB8A828B838C26
:209C8000F0E4126CBB9003B6E0FAA3E0FBA3E0FC74022AFAE43BFB8A828B838CF0E4126CEB
:209CA000BBA3E4126CBB758202020095AAF0AB83E5829003B9F0A3EBF0A3EAF09003B9E007
:209CC000FAA3E0FBA3E0FC74162AFDE43BFE8C078D828E838FF0127AC3FDA3127AC3FE74DD
:209CE000112AFAE43BFB74032AFAE43BFB8A828B838CF0127AC3FAA3127AC3FBEDC39AFD4D
:209D0000EE9BFE8D828E83020095AAF0AB83E5829003BCF0A3EBF0A3EAF09003BCE0FAA3D0
:209D2000E0FBA3E0FC740F2AFDE43BFE8C078D828E838FF0127AC3FDA3127AC3FE4D6005E2
:209D4000758201803474182AFAE43BFB8A828B838CF0127AC3FDBD02108A828B838CF074D2
:209D600003126CBB7582008010900576E0FA30E1057582018003758200020095AAF0AB8354
:209D8000E5829003C0F0A3EBF0A3EAF09003C0E0FAA3E0FBA3E0FC74022AFDE43BFE8C07A7
:209DA0008D828E838FF0127AC3FDA3127AC3FEBD0005BE0002800CBD2106BE0103029E591B
:209DC000029F9874162AFDE43BFE8C078D828E838FF0127AC3FDA3127AC3FE740A2AFFE483
:209DE0003BF88C018F82888389F0127AC3FFA3127AC3F8A3127AC3F974112AFAE43BFBC068
:209E000005C006C007C000C0018A828B838CF0128ECAE58124FBF5819003C0E0FAA3E0FB89
:209E2000A3E0FC740F2AFDE43BFE8C078D828E838FF0127AC3FDA3127AC3FE4D6003029E1E
:209E4000E674022AFAE43BFB8A828B838CF07421126CBBA37401126CBB9003C0E0FAA3E003
:209E6000FBA3E0FC8A828B838CF0780A799D7A02120083E5827005F582029FBC9003C0E046
:209E8000FAA3E0FBA3E0FC74182AFDE43BFE8C078D828E838FF07402126CBB74072AF5443C
:209EA000E43BF5458C4690056CE0F8A3E0F9A3E0FD8544828545838546F0E8126CBBA3E9A2
:209EC000126CBBA3ED126CBB740F2AFAE43BFB900572E0FDA3E0FE8A828B838CF0ED126C59
:209EE000BBA3EE126CBB9003C0E0FAA3E0FBA3E0FC740F2AF544E43BF5458C4674072AF508
:209F000047E43BF5488C4974112AFEE43BFF8C05C002C003C004C044C045C046C047C04806
:209F2000C0499003BFE0C0E08E828F838DF01293B5AD82E58124F9F581D004D003D002EDBF
:209F400020E103029E188A828B838CF0C002C003C00478AC799C7A02120083E5828583F0BD
:209F6000D004D003D00245F0702E74182AFDE43BFE8C078D828E838FF0E4126CBB74022AD6
:209F8000FAE43BFB8A828B838CF0E4126CBBA3E4126CBB75820080249003C0E0FAA3E0FBF4
:209FA000A3E0FC74022AFAE43BFB8A828B838CF0E4126CBBA3E4126CBB758202020095AAC1
:209FC000F0AB83E5829003C3F0A3EBF0A3EAF09003C3E0FAA3E0FBA3E0FC74022AFDE43BD2
:209FE000FE8C078D828E838FF0127AC3FDA3127AC3FEBD0005BE0002800CBD3C06BE010326
:20A0000002A09C02A1F274162AFDE43BFE8C078D828E838FF0127AC3FDA3127AC3FE740AB3
:20A020002AFFE43BF88C018F82888389F0127AC3FFA3127AC3F8A3127AC3F974112AFAE40E
:20A040003BFBC005C006C007C000C0018A828B838CF0128ECAE58124FBF5819003C3E0FACC
:20A06000A3E0FBA3E0FC740F2AFDE43BFE8C078D828E838FF0127AC3FDA3127AC3FE4D6001
:20A080000302A12974022AFAE43BFB8A828B838CF0743C126CBBA37401126CBB9003C3E037
:20A0A000FAA3E0FBA3E0FC8A828B838CF0780A799D7A02120083E5827005F58202A21690CD
:20A0C00003C3E0FAA3E0FBA3E0FC74182AFDE43BFE8C078D828E838FF07402126CBB7407B7
:20A0E0002AF54AE43BF54B8C4C90056CE0F8A3E0F9A3E0FD854A82854B83854CF0E8126C20
:20A10000BBA3E9126CBBA3ED126CBB740F2AFAE43BFB900572E0FDA3E0FE8A828B838CF03A
:20A12000ED126CBBA3EE126CBB9003C3E0FAA3E0FBA3E0FC740F2AF54AE43BF54B8C4C746B
:20A14000072AF54DE43BF54E8C4F74162AFEE43BFF8C058E828F838DF0127AC3FEA3127AD3
:20A16000C3FF74112AFDE43BF88C01C002C003C004C04AC04BC04CC04DC04EC04FC006C0B3
:20A18000078D82888389F0128F09AD82E58124F8F581D004D003D002BD0102800302A05B9B
:20A1A0008A828B838CF0C002C003C00478AC799C7A02120083E5828583F0D004D003D0029E
:20A1C00045F0702E74182AFDE43BFE8C078D828E838FF0E4126CBB74022AFAE43BFB8A82CD
:20A1E0008B838CF0E4126CBBA3E4126CBB75820080249003C3E0FAA3E0FBA3E0FC74022A90
:20A20000FAE43BFB8A828B838CF0E4126CBBA3E4126CBB758202020095AAF0AB83E5829068
:20A2200003CBF0A3EBF0A3EAF09003CBE0FAA3E0FBA3E0FC74182AFDE43BFE8C078D828E30
:20A24000838FF0E4126CBB740F2AFDE43BFE8C078D828E838FF0E4126CBBA3E4126CBB7495
:20A260000A2AF550E43BF5518C529003C6E0F553A3E0F554A3E0F555855082855183855281
:20A28000F0E553126CBBA3E554126CBBA3E555126CBB74162AFEE43BFF8C059003C9E0F89D
:20A2A000A3E0F98E828F838DF0E8126CBBA3E9126CBB74112AFDE43BFE8C07C002C003C0FC
:20A2C00004C000C001C053C054C0558D828E838FF0128ECAE58124FBF581D004D003D00240
:20A2E0008A828B838CF0E4126CBBA3E4126CBB74022AFAE43BFB8A828B838CF0E4126CBB84
:20A30000A3E4126CBB020095C071858171AA82AB83ACF074022AFDE43BFE8C078D828E83DB
:20A320008FF0E57124FCF8E6126CBBA308E6126CBBC002C003C00412571AAD82AE83D00447
:20A34000D003D0028A828B838CF0ED126CBBA3EE126CBBD071020095AA82AB83ACF0127A78
:20A36000C3FDA3127AC3FE74022AFFE43BF88C018F82888389F0127AC3FFA3127AC3F8EF2E
:20A380002DFDE83EFE8A828B838CF0ED126CBBA3EE126CBB020095AA82AB83ACF0C002C0DA
:20A3A00003C00412571AAD82AE83D004D003D0028A828B838CF0ED126CBBA3EE126CBB02F2
:20A3C0000095AA82AB83ACF0C002C003C00412571AAD82AE83D004D003D0028A828B838CA7
:20A3E000F0127AC3FFA3127AC3F8EDC39FFDEE98FE74022AFAE43BFB8A828B838CF0127A8F
:20A40000C3FAA3127AC3FBC3ED9AEE64808BF063F08095F0B3E433FD7A008D828A83020044
:20A4200095AA83E582901120F0A3EAF0901120E0FAA3E0FB90111EEAF0A3EBF0020095C03E
:20A4400071858171C082C083C0F0A87108740326FDE40836FE0886078D828E838FF0127A44
:20A46000C3FDE57124FCF88606EE2D90112BF0A87108740226FDE40836FE0886078D828E3F
:20A48000838FF0127AC3FDE57124FCF808E62DFD90112AF0A87108740126FEE40836FF084A
:20A4A00086028E828F838AF0127AC3FE901129F0A8710886820886830886F0127AC39011C9
:20A4C00028F0E57124FCF80886027B007C00C3ED9AEC9B5019901129E0FA0A901129EAF0E3
:20A4E000EA700B901128E0FA0A901128EAF090112BE0FAE57124FCF886037C007D00C3EA64
:20A500009BED9C502790112AE0FA0A90112AEAF0EA7019901129E0FA0A901129EAF0EA702D
:20A520000B901128E0FA0A901128EAF0857181D07122AA83E582901135F0A3EAF09011303E
:20A54000E0FAA3E0FBA3E0FC901133E0FDA3E0FEED2AFDEE3BFE8C071DBDFF011E8D788E99
:20A56000798F7AC005C006C0078A008B018C05C3E89578E99579ED957AD007D006D00540F3
:20A580000302A5F5C005C006C0078A828B838CF0127AC3F9780074012AFDE43BFE8C078D9B
:20A5A000828E838FF0127AC3FD7E00ED28F8EE39F9901135E0FDA3E0FE901135E82DF0E99A
:20A5C0003EA3F0901135E0F57BA3E0F57CC3E57B98E57C99E433D007D006D005600D901134
:20A5E000357401257BF0E4357CA3F074022AFAE43BFB02A563EAB50540EBB5063CECB507CD
:20A60000388A828B838CF0127AC3FB7A00901135E0FCA3E0FD901135EA2CF0EB3DA3F0904F
:20A620001135E0FCA3E0FDC3EC9AED9B500B90113574012CF0E43DA3F0901135E0FAA3E0FE
:20A640008A82F58322AAF0AB83E582901139F0A3EBF0A3EAF0901139E0FAA3E0FBA3E0FCAF
:20A66000901137E0FDA3E0FE901130EAF0A3EBF0A3ECF0901133EDF0A3EEF090000012A583
:20A6800032783679CB7A02120083AA82AB8302009590113074E8F0A37403F0A3E4F0901155
:20A6A000337414F0E4A3F090000012A532AA82AB83EA4BB40100E433FC60067CFF7DFF80CB
:20A6C000118A828B83783679CB7A02120083AC82AD838C828D83020095E58290113CF07A8B
:20A6E000EA7B037C008A828B838CF0127AC3FB7A009003EB75F000127AC3FC7D00EC2AFA61
:20A70000ED3BFBEA24ECFAEB34FFFB90113DEAF0A3EBF090113CE0FC7D00EC2AFAED3BFB6A
:20A7200090113074F4F0A37403F0A3E4F09011337408F0E4A3F08A828B8312A532AA82ABDE
:20A740008390113DE0FCA3E0FD90113074FCF0A37403F0A3E4F0901133ECF0A3EDF08A824E
:20A760008B8312A532AA82AB83EA4BB40100E433FC60067CFF7DFF80118A828B837836795C
:20A78000CB7A02120083AC82AD838C828D832275820612A6D9AA82AB8302009590112CE40F
:20A7A000F090112CE0FABA0A005018EA2AFB240AF582E43411F583E4F0A3F090112CEA045F
:20A7C000F080DE90112C740AF090112CE0FA1A9011E1EAF0A3E4F0900128C002126D6AAB4D
:20A7E00082AC83D002EB247AFBEC3405FC74192BF582E43CF583E4F090112CEAF0E0FA70A5
:20A80000C890112C740AF0901126E4F0A37404F0020095AAF0AB83E582901141F0A3EBF079
:20A82000A3EAF0901126E02401F0A3E03400F0901126E0FAA3E0FBC3947D4009901126E451
:20A84000F0A37410F090112CE4F090112CE0FABA0A00400302A8D39011E1EAF0A3E4F090C2
:20A860000128126D6AAA82AB83EA247AFAEB3405FB7C0074192AFDE43BFE8C078D828E83CB
:20A880008FF0127AC3604274042AFAE43BFB8A828B838CF0127AC3FAA3127AC3FB901126FF
:20A8A000E0FCA3E0FD8C828D83C002C003783679CB7A02120083AC82AD83D003D002EAB5F4
:20A8C0000407EBB5050302A82390112CE02401F002A84A901144E4F0A3F0A3F090112CF0A6
:20A8E00090112CE0FABA0A00400302A98F9011E1EAF0A3E4F0900128126D6AAA82AB83EAB7
:20A90000247AFAEB3405FB7C00901147EAF0A3EBF0A3ECF074192AFDE43BFE8C078D828E44
:20A92000838FF0127AC3FD700D901144EAF0A3EBF0A3ECF08059BD074C901144E0FDA3E062
:20A94000FEA3E0FFED4E4F6026741A2AFAE43BFB8A828B838CF0127AC3FA741A2DFDE43EE2
:20A96000FE8D828E838FF0127AC3FDC39A5016901147E0FAA3E0FBA3E0FC901144EAF0A30A
:20A98000EBF0A3ECF090112CE02401F002A8E0901144E0FAA3E0FBA3E0FCEA4B4C700890CC
:20A9A0000000F5F002ABAD74192AFDE43BFE8C078D828E838FF07402126CBB740C2AFDE41B
:20A9C0003BFE8C07901122E08D828E838FF0126CBB740C2AF556E43BF5578C5874012556FC
:20A9E000F8E43557F9AD58901123E0888289838DF0126CBB74022556FDE43557FEAF58908E
:20AA00001124E08D828E838FF0126CBB74032556FDE43557FEAF58901125E08D828E838F90
:20AA2000F0126CBB74142AF556E43BF5578C5874122AF8E43BF98C05888289838DF0745AEF
:20AA4000126CBBA37401126CBB8556828557838558F0745A126CBBA37401126CBB74102ADD
:20AA6000FDE43BFE8C078D828E838FF07401126CBBA3E4126CBB741B2AFDE43BFE8C078D29
:20AA8000828E838FF0E4126CBB741A2AFDE43BFE8C078D828E838FF07401126CBB74182A1F
:20AAA000FDE43BFE8C078D828E838FF07403126CBB74162AFDE43BFE8C078D828E838FF09A
:20AAC000E4126CBB74172AFDE43BFE8C078D828E838FF07410126CBB74042AFDE43BFE8C53
:20AAE00007901126E0F8A3E0F988828983C002C003C004C005C006C007783679CB7A021203
:20AB00000083A882A983D007D006D005D004D003D0028D828E838FF0E8126CBBA3E9126C97
:20AB2000BB74062AFDE43BFE8C0790113FE0F8A3E0F98D828E838FF0E8126CBBA3E9126C0B
:20AB4000BB901141E0F556A3E0F557A3E0F5588556828557838558F0127AC3F8A3127AC3CC
:20AB6000F98A828B838CF0E8126CBBA3E9126CBB74022AF559E43BF55A8C5B74022556FE2E
:20AB8000E43557FFAD588E828F838DF0127AC3FEA3127AC3FF855982855A83855BF0EE12D2
:20ABA0006CBBA3EF126CBB8A828B838CF0020095AA83E58290114AF0A3EAF090112CE4F0E9
:20ABC00090114AE0FAA3E0FB90112CE0FCBC0A00502CEC2C240AFDE43411FE8D828E83E0DD
:20ABE000FFA3E0F8EFB5020EE8B5030A8D828E83E4F0A3F0800890112CEC04F080CA020075
:20AC000095AA83E58290114CF0A3EAF090112CE4F090112CE0FABA0A005030EA2A240AFBE8
:20AC2000E43411FC8B828C83E0FDA3E0FE4D701390114CE0FDA3E0FE8B828C83EDF0A3EED0
:20AC4000F0800890112CEA04F080C6020095AA83E58290114EF0A3EAF0900577E0FAA3E09B
:20AC6000FBA3E0FC74082AFAE43BFB90114EE0C0E0A3E0C0E08A828B838CF012A43F1581ED
:20AC80001581900577E0FAA3E0FBA3E0FC74082AFAE43BFB8A058B068C07901128E08D8216
:20ACA0008E838FF0126CBB74012AFDE43BFE8C07901129E08D828E838FF0126CBB74022A5D
:20ACC000FDE43BFE8C0790112AE08D828E838FF0126CBB74032AFAE43BFB90112BE08A82D7
:20ACE0008B838CF0026CBBE582901150F0900577E0FAA3E0FBA3E0FC901151EAF0A3EBF02C
:20AD0000A3ECF090056C7410F0A37404F0A3E4F090056F7410F0A37404F0A3E4F0901150D2
:20AD2000E0FDBD035674192AFEE43BFF8C008E828F8388F0127AC3FE53060FBE030280032C
:20AD400002CB2774102AFEE43BFF8C008E828F8388F0127AC3FEA3127AC3FF4E600302CB53
:20AD6000279005767408F0900574E4F0A3F0900572E4F0A3F012649002C3E2BD0202800366
:20AD800002AF5F901125E0FD0D901125EDF0ED7027901124E0FD0D901124EDF0ED70199075
:20ADA0001123E0FD0D901123EDF0ED700B901122E0FD0D901122EDF0900572E4F0A3F09021
:20ADC0000574E4F0A3F074192AFDE43BFE8C078D828E838FF0127AC3F8B807028003B80548
:20ADE00041C005C006C007741A2AF9E43BFD8C0689828D838EF0127AC3FF0F89828D838EC2
:20AE0000F0EF126CBBE4BF780104D007D006D005700302CB278D828E838FF0E4126CBB0253
:20AE2000CB27E8700302CB27C005C006C00774102AF9E43BFD8C0689828D838EF0127AC342
:20AE4000F9A3127AC349D007D006D005700302AF48C005C006C007741A2AF55CE43BF55D04
:20AE60008C5E855C82855D83855EF0127AC3F914855C82855D83855EF0126CBBD007D00670
:20AE8000D005E9600302CB27741B2AFAE43BFB8A828B838CF0127AC3F9B90802800BB802EA
:20AEA000028003B80124B905218D828E838FF0E4126CBB9005767480F0126490900409758E
:20AEC000F0007414126CBB02C7D0E924FB50047D04800289058DF005F07403800225E0D5F6
:20AEE000F0FBFD855C82855D83855EF0126CBB098A828B838CF0E9126CBB740F58FA24F7E5
:20AF0000500302CB27EA2A2A90AF0C7302AF4502AF2702AF2A02AF3602AF4202AF4502AFC4
:20AF20004202AF4502AF4202B9A8900409E4F5F0126CBB02B9B39005767404F012649002FB
:20AF4000C57302C25C02CB2753000FB80302800302CB279005767408F012649002C3E2905B
:20AF600003E8E0FABA4502800302CB277AEA7B037C008A828B838CF0127AC3FB7A00900349
:20AF8000EB75F000127AC37D002AFAED3BFB900572E0FCA3E0FDC3EC9AED9B500302CB27D3
:20AFA0007AEA7B037C008A828B838CF0127AC3FB7A009003EB75F000127AC3FC7D00900599
:20AFC00072EC2AF0ED3BA3F07AEE7B037C008A828B838CF0127AC3FA543F600302CB279083
:20AFE00003EF75F000127AC3600302CB279003CEE0FAA3E0FB90A9CEE493FCA3E493FDEA20
:20B00000B5042CEBB505289003D075F000127AC3FAA3127AC3FB90A9D075F080127AC3FC47
:20B02000A3127AC3FDEAB50406EBB50502804F9003F875F000127AC3FAA3127AC3FB900349
:20B04000CEE0FCA3E0FDEAB50406EBB50502800302CB279003FA75F000127AC3FAA3127A95
:20B06000C3FB9003D075F000127AC3FCA3127AC3FDEAB50406EBB50502800302CB27789140
:20B0800079A67A02120083AA82AB83BAFF05BBFF02800302CB279003F175F000127AC3FA03
:20B0A000BA060302B1AB9003F175F000127AC3FABA0102800302CB279003FC75F000127A89
:20B0C000C3FABA0802800302CB279003FCE4F5F0126CBB9003FE75F000127AC3FAA3127A79
:20B0E000C3FBC3EA94F7EB94FF40279003FE75F000127AC3FAA3127AC3FB74092AFAE43B89
:20B10000FB9003FE75F000EA126CBBA3EB126CBB80259003FE75F000127AC3FAA3127AC37E
:20B12000FB74082AFAE43BFB9003FE75F000EA126CBBA3EB126CBB9003F475F000127AC33F
:20B14000FAA3127AC3FB9003F875F000EA126CBBA3EB126CBB9003F675F000127AC3FAA354
:20B16000127AC3FB9003FA75F000EA126CBBA3EB126CBB9003CEE0FAA3E0FB9003F475F004
:20B1800000EA126CBBA3EB126CBB9003D075F000127AC3FAA3127AC3FB9003F675F000EAEF
:20B1A000126CBBA3EB126CBB02CB20788F79A77A02120083AA82AB83BAFF05BBFF02800313
:20B1C00002CB27901151747AF0A37405F0A3E4F07A7A7B057C008A058B068C07C374E29DCF
:20B1E000740F9E74808FF063F08095F0500302B31674192AFDE43BFE8C078D828E838FF042
:20B20000127AC3FD700302B300C0059003FE75F000127AC3FEA3127AC3FF74042AF8E43B08
:20B22000F98C05888289838DF0127AC3F8A3127AC3F9EEB50008EFB5010474018001E4D0C1
:20B2400005700302B300C0059003FC75F000127AC3FEA3127AC3FF74062AF8E43BF98C0585
:20B26000888289838DF0127AC3F8A3127AC3F9EEB50008EFB5010474018001E4D005700393
:20B2800002B3009003F475F000127AC3FEA3127AC3FF8A828B838CF0127AC3F8A3127AC300
:20B2A000F9EEB5005BEFB50157C0059003F675F000127AC3FEA3127AC3FF74022AF8E43BF3
:20B2C000F98C05888289838DF0127AC3F8A3127AC3F9EEB50008EFB5010474018001E4D021
:20B2E00005601DBD010302BA1390040975F000127AC3FD53053FBD0202800302BA13806F55
:20B3000074282AFA74013BFB901151EAF0A3EBF0A3ECF002B1D690040975F000127AC3FA25
:20B3200053023FBA02499003FE75F000127AC3FAA3127AC3FB90112EEAF0A3EBF090112C54
:20B34000E4F090112CE0FCBC0A005023EC2C240AF582E43411F583E0FDA3E0FEEAB50507D0
:20B36000EBB5060302B56E90112CEC04F080D390040975F000127AC3FA30E20302CB27901B
:20B38000040975F0007414126CBB9005727428F0E4A3F090040875F0007450126CBB9004DE
:20B3A0000375F000127AC3FA90040775F000127AC3FB90040375F000EB126CBB9004077562
:20B3C000F000EA126CBB90040275F000127AC3FA90040675F000127AC3FB90040275F000D2
:20B3E000EB126CBB90040675F000EA126CBB90040175F000127AC3FA90040575F000127A3A
:20B40000C3FB90040175F000EB126CBB90040575F000EA126CBB7A007B047C008A828B83A0
:20B420008CF0127AC3FA90112CF07B007C047D007E047F0478008E828F8388F0127AC3FEAE
:20B440008B828C838DF0126CBB7B047C047D008B828C838DF0EA126CBB90040775F00012D0
:20B460007AC3FA0A90040775F000EA126CBB7046900406F5F0127AC3FA0A90040675F000E1
:20B48000EA126CBB7030900405F5F0127AC3FA0A90040575F000EA126CBB701A7A047B0470
:20B4A000FC8A828B838CF0127AC3FD0D8A828B838CF0ED126CBB9003FC75F000127AC3FAA8
:20B4C000A3127AC3FB90112EEAF0A3EBF09003FE75F000127AC3FCA3127AC3FD9003FC7524
:20B4E000F000EC126CBBA3ED126CBB9003FE75F000EA126CBBA3EB126CBB9003F475F000A2
:20B50000127AC3FAA3127AC3FB9003F875F000EA126CBBA3EB126CBB9003F675F000127AA1
:20B52000C3FAA3127AC3FB9003FA75F000EA126CBBA3EB126CBB9003CEE0FAA3E0FB900339
:20B54000F475F000EA126CBBA3EB126CBB9003D075F000127AC3FAA3127AC3FB9003F675AC
:20B56000F000EA126CBBA3EB126CBB02CA1F901151E4F0A3F0A3F090112CF090112CE0FAB6
:20B58000BA0A00400302B6259011E1EAF0A3E4F0900128126D6AAA82AB83EA247AFAEB3457
:20B5A00005FB74192AF582E43BF583E0FC70118A058B06901151EDF0A3EEF0A3E4F080659D
:20B5C000BC0758901151E0FCA3E0FDA3E0FEEC4D4E6020741A2AF582E43BF583E0FA741A4C
:20B5E0002CFCE43DFD8C828D838EF0127AC3FCC39A502890112CE09011E1F0A3E4F0900122
:20B6000028126D6AAA82AB83EA247AFAEB3405FB901151EAF0A3EBF0A3E4F090112CE0248C
:20B6200001F002B57B901151E0FAA3E0FBA3E0FCEA4B4C700302CB27900577EAF0A3EBF0D2
:20B64000A3ECF074182AF55CE43BF55D8C5E741A2AF8E43BF98C05888289838DF074031294
:20B660006CBB855C82855D83855EF07403126CBB74162AFDE43BFE8C078D828E838FF0E474
:20B68000126CBB74172AFDE43BFE8C078D828E838FF07404126CBB741B2AFDE43BFE8C0759
:20B6A0008D828E838FF0E4126CBB74042AFDE43BFE8C079003FE75F000127AC3F8A3127A13
:20B6C000C3F98D828E838FF0E8126CBBA3E9126CBB74062AFDE43BFE8C079003FC75F000E4
:20B6E000127AC3F8A3127AC3F98D828E838FF0E8126CBBA3E9126CBB9003F475F000127A1B
:20B70000C3FDA3127AC3FE8A828B838CF0ED126CBBA3EE126CBB74022AFDE43BFE8C079016
:20B7200003F675F000127AC3F8A3127AC3F98D828E838FF0E8126CBBA3E9126CBB74192A3D
:20B74000FDE43BFE8C078D828E838FF07401126CBB740C2AFDE43BFE8C07901122E08D82E6
:20B760008E838FF0126CBB740C2AF55CE43BF55D8C5E7401255CF8E4355DF9AD5E9011237E
:20B78000E0888289838DF0126CBB7402255CFDE4355DFEAF5E901124E08D828E838FF01232
:20B7A0006CBB7403255CFDE4355DFEAF5E901125E08D828E838FF0126CBB74102AFDE43BA4
:20B7C000FE8C078D828E838FF07401126CBBA3E4126CBB74082AFAE43BFB74032AFDE43B54
:20B7E000FE8C0790040375F000127AC38D828E838FF0126CBB74022AFDE43BFE8C079004B4
:20B800000275F000127AC38D828E838FF0126CBB74012AFDE43BFE8C0790040175F0001242
:20B820007AC38D828E838FF0126CBB7D007E047F008D828E838FF0127AC38A828B838CF0F1
:20B84000126CBB90000112AC4E90040875F000127AC354F0FA24AF400302B9A890112CE45A
:20B86000F090040875F000127AC3C4540F7B0024FBFAEB34FFCA25E0CA33CA25E0CA33FB1C
:20B8800090112CE0FCFD7E00C3ED9AEE64808BF063F08095F0400302B9A874362DFAE43EFC
:20B8A000FBEA24DAF582EB3403F583E0FA90112DF0EA700302B9A8BA010890112CEC04F0CC
:20B8C000809FBA0202800302B96F74372DFAE43EFBEA24DAF582EB3403F583E0FABA04025C
:20B8E000800302B96F74382DFAE43EFBEA24DAF582EB3403F583E0FB7A0074392DFDE43E64
:20B90000FEED24DAF582EE3403F583E07D004202ED420390112EEAF0A3EBF0901151E0FC62
:20B92000A3E0FDA3E0FE74142CFFE43DF88E0174122CFCE43DFDC3745A9A74019B500875D7
:20B940005C5A755D0180048A5C8B5D8C828D838EF0E55C126CBBA3E55D126CBB8F828883BC
:20B9600089F0E55C126CBBA3E55D126CBB803990112CE0FAFB7C0074372BFDE43CFEED24DD
:20B98000DAFDEE3403FE8D828E83E0601B74372BFBE43CFCEB24DAF582EC3403F583E0FB6F
:20B9A00090112C2AF002B86190040975F0007410126CBB90040975F000127AC3FA43020234
:20B9C00090040975F000EA126CBB7A107B047C008A828B838CF07402126CBB90041175F06E
:20B9E000007404126CBB90041275F0007401126CBB90041375F000745A126CBB900572744F
:20BA00002CF0E4A3F090040875F0007460126CBB02C7E4901151E0FAA3E0FBA3E0FC90057A
:20BA200077EAF0A3EBF0A3ECF0900576E4F090040975F000127AC3FD30E21F74192AFDE4C2
:20BA40003BFE8C078D828E838FF0E4126CBB9005767420F012649002CB2790040875F000D4
:20BA6000127AC3C4540F25E025E0FD90112CF07E00900572E0FFA3E0F8EFC39DFDE89EFEDD
:20BA8000ED24ECFDEE34FFFE900572EDF0A3EEF074192AFAE43BFB8A828B838CF0127AC378
:20BAA000FA53020FBA021390040975F000127AC3FA53023FBA120302BBCA901151E0FAA3B5
:20BAC000E0FBA3E0FC74192AFAE43BFB8A828B838CF0127AC3FA53020FBA0113900409751E
:20BAE000F000127AC3FA53023FBA020302BBCA900572E0FAA3E0FB4A7010900409F5F01276
:20BB00007AC3FA5403700302BBCA755C00755D04755E00901151E0FDA3E0FEA3E0FF7408D5
:20BB20002DF8E43EF98F02855C82855D83855EF0127AC3FB888289838AF0127AC3F8EBB5D8
:20BB40000002800302C7C574082DFAE43EFB8F040ABA00010B90040175F000127AC3F88AE4
:20BB6000828B838CF0127AC3FAE8B50202800302C7C574082DFAE43EFB8F0474022AFAE4ED
:20BB80003BFB90040275F000127AC3F88A828B838CF0127AC3FAE8B50202800302C7C57428
:20BBA000082DFDE43EFE74032DFDE43EFE90040375F000127AC3FA8D828E838FF0127AC33F
:20BBC000FDEAB50502800302C7C590040975F000127AC3FA20E40302BE30901151E0FAA300
:20BBE000E0FBA3E0FC74102AFDE43BFE8C078D828E838FF0127AC3FDA3127AC3FE4D7003F5
:20BC000002BE30740C2AFFE43BF88C01C002C003C004C005C0068F82888389F012A43F1574
:20BC2000811581D004D003D0027D047E047F00901128E0F88D828E838FF0127AC3FDB500B1
:20BC400002800302BE30901129E0F56090040575F000127AC3FEB56002800302BE309011FA
:20BC60002AE0F55F90040675F000127AC3FFB55F02800302BE3090112BE0F55C9004077583
:20BC8000F000127AC3F9B55C02800302BE30740C2AF9E43BFF8C0689828F838EF0E8126C92
:20BCA000BB740C2AF561E43BF5628C6374012561F9E43562FDAE6389828D838EF0E56012F7
:20BCC0006CBB74022561FDE43562FEAF638D828E838FF0E55F126CBB74032561FDE4356228
:20BCE000FEAF638D828E838FF0E55C126CBB741B2AFDE43BFE8C078D828E838FF0127AC3C7
:20BD0000600302BDDF74182AFDE43BFE8C078D828E838FF0127AC3FD741A2AFEE43BFF8C74
:20BD2000008E828F8388F0127AC3FEEDC39EFD74162AFAE43BFB8A828B838CF0127AC3FE26
:20BD4000C423541FFFEDC39FFD901154F0ED2EFE8A828B838CF0126CBBED30E70790115471
:20BD6000C3E49DF0901151E0FAA3E0FBA3E0FC74172AF55CE43BF55D8C5E855C82855D839D
:20BD8000855EF0127AC3F80303543FF561901154E0901154C39561F0901154E028855C82C7
:20BDA000855D83855EF0126CBB74182AF8E43BF98C0574162AFAE43BFB8A828B838CF0124B
:20BDC0007AC3C423541FFA855C82855D83855EF0127AC3FB2AFA888289838DF0126CBB906D
:20BDE00005767401F0901151E0FAA3E0FBA3E0FC741A2AF561E43BF5628C6374182AF8E495
:20BE00003BF98C05888289838DF0127AC3F88561828562838563F0126CBB74102AFAE43BD9
:20BE2000FB8A828B838CF0E4126CBBA3E4126CBB901151E0F561A3E0F562A3E0F56374192A
:20BE40002561FDE43562FEAF638D828E838FF0127AC3F8740F58F924F7500302CB27E929A6
:20BE60002990BE657302C7C202BE8002BEF002C1A002C61402C71C02C79702C79502C5F35C
:20BE8000900576E0F930E0508D828E838FF07403126CBB9005767440F074102561F9E43544
:20BEA00062FAAB6389828A838BF0E4126CBBA3E4126CBB900572E0FAA3E0FB4A600D9005FD
:20BEC000767442F08A828B8312AC4E900574E4F0A3F012649002C3E290040975F000127A75
:20BEE000C3FA53023FBA0202800302CB2702B9A8900576E0FA20E00302C17890040975F034
:20BF000000127AC3FA53023FBA1202800302C17890040875F000127AC354F0FA24AF400314
:20BF200002C08C90112CE4F090040875F000127AC3C4540F7B0024FBFAEB34FFCA25E0CA50
:20BF400033CA25E0CA33FB90112CE0FC8C5C755D00C3E55C9AE55D64808BF063F08095F0ED
:20BF6000400302C08C7436255CFAE4355DFBEA24DAF582EB3403F583E0FA90112DF0EA70AF
:20BF80000302C08CBA010890112CEC04F08099BA0202800302C0507437255CFAE4355DFBDD
:20BFA000EA24DAF582EB3403F583E0FABA0402800302C0507438255CFAE4355DFBEA24DAD9
:20BFC000F582EB3403F583E0FB7A007439255CFCE4355DF9EC24DAF582E93403F583E07910
:20BFE000004AF55CE94BF55D90112EE55CF0A3E55DF0901151E0FCA3E0F9A3E0FA74142CD0
:20C00000F564E439F5658A6674122CF567E439F5688A69A95CAA5DC3745A9974019A50064A
:20C020007A5A7B018004AA5CAB5D8567828568838569F0EA126CBBA3EB126CBB8564828588
:20C0400065838566F0EA126CBBA3EB126CBB803C90112CE0F567AB677C0074372BF9E43CF1
:20C06000FAE924DAF9EA3403FA89828A83E0601C74372BFBE43CFCEB24DAF582EC3403F5F2
:20C0800083E0FA90112C2567F002BF28901151E0F567A3E0F568A3E0F56974192567F9E42C
:20C0A0003568FAAB6989828A838BF07403126CBB74082567F564E43568F565856966790089
:20C0C0007A047B0089828A838BF0127AC38564828565838566F0126CBB74082567F564E454
:20C0E0003568F56585696674012564F9E43565FAAB6690040175F000127AC389828A838B89
:20C10000F0126CBB74022564FAE43565FBAC6690040275F000127AC38A828B838CF0126C14
:20C12000BB74032564FAE43565FBAC6690040375F000127AC38A828B838CF0126CBB900015
:20C140000112AC4E9005767442F074102567FAE43568FBAC698A828B838CF0E4126CBBA330
:20C16000E4126CBB900572E4F0A3F0900574E4F0A3F012649002C3E29005767420F0126412
:20C1800090900577E0FAA3E0FBA3E0FC74192AFAE43BFB8A828B838CF0E4126CBB02B36F8A
:20C1A00090040975F000127AC3FA20E00302C26AE830E40302C26A74102561FAE43562FB5C
:20C1C000AC638A828B838CF0127AC3FAA3127AC3FB4A600302CB27900572E0FAA3E0FB0A7A
:20C1E000BA00010B8A828B8312AC4E900576E04410F0900572E0FAA3E0FB4A600890057608
:20C20000E0FA4402F0126490901151E0F567A3E0F568A3E0F56974102567F8E43568F9AAED
:20C2200069888289838AF07401126CBBA3E4126CBB74192567FAE43568FBAC698A828B83D9
:20C240008CF07408126CBB741B2567FAE43568FBAC698A828B838CF0E4126CBB9004097542
:20C26000F0007411126CBB02C7D090040975F000127AC3FA30E57590056CE0F567A3E0F5ED
:20C2800068A3E0F569780E79047A00888289838AF0127AC3FA780090040F75F000127AC330
:20C2A0007C004200EC420290056CE82567F0EA3568A3F0A3E569F07A0E7B047C008A828B16
:20C2C000838CF0127AC3FB7A0090040F75F000127AC378004202E84203900572E0FCA3E0F5
:20C2E000F8900572ECC39AF0E89BA3F0900572E0FAA3E0FB4A602D901151E0FCA3E0F8A3CE
:20C30000E0F974192CFCE438F88C82888389F0127AC3FC20E40E900576E04402F08A828BD4
:20C320008312AC4E7A0A7B047C008A828B838CF0127AC3FB7A0090040B75F000127AC378CA
:20C34000002AFAE83BFB90112EEAF0A3EBF0901151E0FCA3E0F8A3E0F974142CFCE438F8EB
:20C360008C82888389F0127AC3FCA3127AC3F8C3EC9AE89B4004EA4B7029901151E0FAA3A9
:20C38000E0FBA3E0FC74142AFAE43BFB8A828B838CF0127AC3FAA3127AC3FB90112EEAF008
:20C3A000A3EBF0901151E0FAA3E0FBA3E0FC74122AFAE43BFB90112EE0F8A3E0F98A828BB8
:20C3C000838CF0E8126CBBA3E9126CBB900576E0FA5403700302CB27900574E4F0A3F01253
:20C3E0006490900576E0FA30E531900574E4F0A3F0901151E0FBA3E0FCA3E0F874192BFB34
:20C40000E43CFC8B828C8388F0E4126CBB90040975F0007414126CBB02C7D0EA30E46990FC
:20C420000574E4F0A3F0901151E0F567A3E0F568A3E0F56974102567F9E43568FBAC69890A
:20C44000828B838CF07401126CBBA3E4126CBB74192567FBE43568FCA8698B828C8388F02C
:20C460007404126CBB741B2567FBE43568FCA8698B828C8388F0E4126CBB90040975F000B4
:20C480007411126CBB02C7D0900574E0FBA3E0FC4B700302C557EA30E021901151E0FAA37C
:20C4A000E0FBA3E0FC74102AFAE43BFB8A828B838CF0E4126CBBA3E4126CBB901151E0F526
:20C4C00067A3E0F568A3E0F56974102567F8E43568F9AA69888289838AF0127AC3FAA31211
:20C4E0007AC3FB4A706974122567FCE43568F8A9698C82888389F0127AC3F567A3127AC319
:20C50000F568900574E0F9A3E0FCC3E56799E5689C500A900574E567F0A3E568F09011515B
:20C52000E0FCA3E0F8A3E0F974102CF567E438F5688969900574E0FCA3E0F88567828568F6
:20C54000838569F0EC126CBBA3E8126CBB8008900574EAF0A3EBF0901151E0FAA3E0FBA3BB
:20C56000E0FC741B2AFAE43BFB8A828B838CF0E4126CBB90056FE0FAA3E0FBA3E0FC9005EF
:20C580006CEAF0A3EBF0A3ECF0900574E0FAA3E0FB4A603D901151E0FAA3E0FBA3E0FC74D3
:20C5A000102AFAE43BFB8A828B838CF0127AC3FAA3127AC3FB4A601990057274282AF0E4FD
:20C5C0003BA3F090040975F0007418126CBB02C7D9900576E0FA20E10302CB2790057274CC
:20C5E00028F0E4A3F090040975F0007410126CBB02C7D9900576E0FA20E00302CB278D8260
:20C600008E838FF0E4126CBB9005767410F012649002CB27900572E0FAA3E0FB4A60078A5A
:20C62000828B8312AC4E90040975F000127AC3FA20E00302C6C2900576E0FA30E05590119B
:20C6400051E0F567A3E0F568A3E0F56974192567F8E43568F9AA69888289838AF0740712D1
:20C660006CBB741A2567FAE43568FBAC698A828B838CF0E4126CBB74102567FAE43568FBB5
:20C68000AC698A828B838CF0E4126CBBA3E4126CBB801D901151E0FAA3E0FBA3E0FC74191F
:20C6A0002AFAE43BFB8A828B838CF07406126CBB90000112AC4E9005767410F012649002CF
:20C6C000C7C5900576E0FA30E041901151E0F567A3E0F568A3E0F56974192567F8E4356817
:20C6E000F9AA69888289838AF07405126CBB74102567FAE43568FBAC698A828B838CF0E4D7
:20C70000126CBBA3E4126CBB02CB27900572E0FAA3E0FB4A700302CB2702C7C5900572E0A7
:20C72000FAA3E0FB4A60078A828B8312AC4E90040975F000127AC3FA30E04A901151E0F53E
:20C7400067A3E0F568A3E0F56974192567F8E43568F9AA69888289838AF07407126CBB745B
:20C760001A2567FAE43568FBAC698A828B838CF0E4126CBB90000112AC4E9005767410F0B9
:20C780001264908040900572E0FAA3E0FB4A700302CB278030802E900576E0FA20E003027B
:20C7A000CB278D828E838FF07407126CBB741A2561FAE43562FBAC638A828B838CF0E41215
:20C7C0006CBB02CB2790040975F0007410126CBB9005727428F0E4A3F090040875F0007400
:20C7E00050126CBB756704756804756900901151E0FDA3E0FEA3E0FF74082DF564E43EF526
:20C80000658F668564828565838566F0127AC38567828568838569F0126CBB74012564FBCE
:20C82000E43565FCAA668B828C838AF0127AC3FB90040575F000EB126CBB74022564FAE48F
:20C840003565FBAC668A828B838CF0127AC3FA90040675F000EA126CBB74032564FAE4351D
:20C8600065FBAC668A828B838CF0127AC3FA90040775F000EA126CBB7567007568047569A9
:20C8800000740C2DF564E43EF5658F668564828565838566F0127AC3856782856883856953
:20C8A000F0126CBB74012564FBE43565FCAA668B828C838AF0127AC3FB90040175F000EB07
:20C8C000126CBB74022564FAE43565FBAC668A828B838CF0127AC3FA90040275F000EA12C5
:20C8E0006CBB74032564FAE43565FBAC668A828B838CF0127AC3FA90040375F000EA126C49
:20C90000BB9003F175F0007406126CBB74042DFAE43EFB8F048A828B838CF0127AC3FAA3EF
:20C92000127AC3FB9003FC75F000EA126CBBA3EB126CBB74062DFAE43EFB8F048A828B8364
:20C940008CF0127AC3FAA3127AC3FB9003FE75F000EA126CBBA3EB126CBB9003CEE0FAA367
:20C96000E0FB9003F475F000EA126CBBA3EB126CBB9003D075F000127AC3FAA3127AC3FB08
:20C980009003F675F000EA126CBBA3EB126CBB8D828E838FF0127AC3FAA3127AC3FB900357
:20C9A000F875F000EA126CBBA3EB126CBB74022DFAE43EFB8F048A828B838CF0127AC3FA04
:20C9C000A3127AC3FB9003FA75F000EA126CBBA3EB126CBB74192DFDE43EFE8D828E838F08
:20C9E000F0127AC3FD30E41B7A0A7B047C0090040BE4F5F0126CBB8A828B838CF0E4126CB4
:20CA0000BB801C7A0A7B047C008A828B838CF07401126CBB90040B75F000745A126CBB9061
:20CA200003F075F0007440126CBB7AEA7B037C00900572E0FDA3E08A828B838CF0126CBB1D
:20CA40009003EB75F000ED126CBB7A0E7B047C0090040FE4F5F0126CBB8A828B838CF0E42B
:20CA6000126CBB90040CE4F5F0126CBBA3E4126CBB788F79A77A02120083AA82AB83EAF4AB
:20CA8000FAEBF4FB90040C75F000EA126CBBA3EB126CBB9003E87445F09003E9E4F5F01258
:20CAA0006CBB7AEE7B037C009003EFE4F5F0126CBB8A828B838CF0E4126CBB90111EE024F3
:20CAC00001F0A3E03400F07AEC7B037C0090111EE0FDA3E08A828B838CF0126CBB9003EDF0
:20CAE00075F000ED126CBB9003F2E4F5F0126CBBA3E4126CBB789179A67A02120083AA82FF
:20CB0000AB83EAF4FAEBF4FB9003F275F000EA126CBBA3EB126CBB789179A67A0212008328
:20CB2000900576E4F0800C900572E4F0A3F0900576E4F0020095AA83E582901155F0A3EA9F
:20CB4000F0901155E0FAA3E0FBEA8B02FB8A828B83020095AAF0AB83E582901159F0A3EBCD
:20CB6000F0A3EAF0901157E0FAA3E0FBC3E49A74808BF063F08095F05048900574EAF0A3D2
:20CB8000EBF0901159E0FCA3E0FDA3E0FE90056FE0FFA3E0F8A3E0F9ECB5070AEDB50006AF
:20CBA000EEB50102801C9011BAECF0A3EDF0A3EEF09011BDEAF0A3EBF08F82888389F0129E
:20CBC00069A302009590118CE4F090118CE0FABA0400502EEA75F00BA4245CFAE43411FBD2
:20CBE0007C009011C2E4F09011C37404F0E4A3F08A828B838CF0126A1990118CE02401F0F2
:20CC000080C8020095C07185817105810581058190118EE02401F090118CE4F090118CE0C9
:20CC2000FABA0400400302CCD4EA75F00BA4245CFAE43411FBA87108A60208A603087600C3
:20CC4000A87108740226FDE40836FE0886078D828E838FF0127AC3FDA3127AC3FEA8710869
:20CC600086820886830886F0127AC3FFA3127AC3FAEF4205EA4206ED4E604F90118EE0FA88
:20CC80007B00A87108740A26FCE40836FD0886068C828D838EF0127AC3FC7D00EAC39CFAFE
:20CCA000EB9DFBC3EA9478EB64809480401C9011C2E4F09011C37404F0E4A3F0A8710886D8
:20CCC000820886830886F0126A1990118CE02401F002CC1C857181D071020095C07185811C
:20CCE00071C082C083C0F0E5812408F581E5712404F8E4F608F608760090118CE4F0A871A0
:20CD000008740226FDE40836FE0886078D828E838FF0E5712407F8127AC3F6A3127AC30866
:20CD2000F6A8710886820886830886F0127AC3FEA3127AC3FF90118CE0FABA0400400302FD
:20CD4000CE1BEA75F00BA4245CFAE43411FBE5712404F8A60208A603087600E5712404F88B
:20CD600086820886830886F0127AC3FAA3127AC3FB4A700302CE11C002C003E5712404F84D
:20CD8000740226FCE40836FA0886038C828A838BF0127AC3FCA3127AC3FDD003D002EC4DA0
:20CDA000606FEEB5026BEFB50367E5712407F8E6B5040708E6B5050280028055E5712404E8
:20CDC000F8740426FAE40836FB088604E57124FBF89011BAE6F008A3E6F008A3E6F09011D3
:20CDE000BD7406F0E4A3F08A828B838CF01269A3E5712404F8740A26FBE40836FC0886051B
:20CE000090118EE0FA8B828C838DF0126CBB02CFC090118CE02401F002CD3590118CE4F07F
:20CE200090118CE0FABA0400505DEA75F00BA4245CFAE43411FBE5712404F8A60208A60315
:20CE4000087600E5712404F886820886830886F0127AC3FAA3127AC3FB4A7022E5712404B7
:20CE6000F8740226FAE40836FB0886048A828B838CF0127AC3FAA3127AC3FB4A6009901155
:20CE80008CE02401F0809990118CE0FABA0402800302CF4590118FE4F090118DF090118C49
:20CEA000F090118CE0FABA04005078EA75F00BA4245CFBE43411FCE5712404F8A60308A68A
:20CEC0000408760090118EE0FBC0028B047A00E5712404F8740A26FDE40836FE0886078DA2
:20CEE000828E838FF0127AC3FFFD7E00ECC39DFCEA9EFA90118FE0FD7E00C3ED9CEE6480E4
:20CF00008AF063F08095F0E433D002600C90118FEBC39FF090118DEAF090118CE02401F053
:20CF200002CEA190118DE0FA90118CF0EA75F00BA4245CFAE43411FBE5712404F8A6020899
:20CF4000A603087600A871089011BAE6F008A3E6F008A3E6F09011BD7404F0E4A3F0E571C3
:20CF60002404F886820886830886F01269A3E5712404F8740426FAE40836FB088604E571C9
:20CF800024FBF89011BAE6F008A3E6F008A3E6F09011BD7406F0E4A3F08A828B838CF01260
:20CFA00069A3E5712404F8740A26FAE40836FB08860490118EE0FD8A828B838CF0126CBBC7
:20CFC000857181D07122900572E0FAA3E0FBC3EA942AEB9400500A900572E4F0A3F002D193
:20CFE000FC900572E4F0A3F09003EE75F000127AC3FAA3127AC3FBBA0005BB0102800CBAE8
:20D000000006BB020302D19D02D1FC90040075F000127AC3FAA3127AC3FB9003CEE0FCA3FC
:20D02000E0FDEAB50406EBB50502800302D1FC90040275F000127AC3FAA3127AC3FB9003AD
:20D04000D075F000127AC3FCA3127AC3FDEAB50406EBB50502800302D1FC74F0C0E0740344
:20D06000C0E0E4C0E09003F675F00012CCDC1581158115819003EEE4F5F0126CBBA3740286
:20D08000126CBB9011BA741624DAF0E43403A3F0A3E4F09011BD7406F0E4A3F09003FA751E
:20D0A000F0001269A39011BA7456F0A3E4F0A37440F09011BD7406F0E4A3F09003F075F068
:20D0C000001269A39011BA7456F0A3E4F0A37440F09011BD7406F0E4A3F09003E075F00048
:20D0E0001269A39011BA742024DAF0E43403A3F0A3E4F09011BD7406F0E4A3F09003DA75EF
:20D10000F0001269A37A007B047C007DF67E037F008D828E838FF0127AC3FDA3127AC3FE3E
:20D120008A828B838CF0ED126CBBA3EE126CBB9003F875F000127AC3FAA3127AC3FB9004AF
:20D140000275F000EA126CBBA3EB126CBB7AF67B037C009003CEE0FDA3E0FE8A828B838CAF
:20D16000F0ED126CBBA3EE126CBB9003D0E0FAA3E0FB9003F875F000EA126CBBA3EB126CF5
:20D18000BB9003E675F0007408126CBBA37406126CBB900572742AF0E4A3F0805F9004006C
:20D1A00075F000127AC3FAA3127AC3FB9003CEE0FCA3E0FDEAB50444EBB505409004027540
:20D1C000F000127AC3FAA3127AC3FB9003D075F000127AC3FCA3127AC3FDEAB5041EEBB5C6
:20D1E000051A74F0C0E07403C0E0E4C0E09003F675F00012CCDC158115811581020095C0B0
:20D2000071858171058105810581A87108E4F608F60876009003F875F000127AC3FDA3122C
:20D220007AC3FE90AA3AE493FFA3E493FAEDB5074DEEB502499003FA75F000127AC3FAA3F3
:20D24000127AC3FB90AA3C75F080127AC3FCA3127AC3FDEAB50427EBB505239011BA74345A
:20D26000F0A374AAF0A37480F09011BD7406F0E4A3F09003DA75F0001269A302D57090037D
:20D28000F875F000127AC3FAA3127AC3FB9003D6E0FCA3E0FDEC5202ED52039003CEE0FC77
:20D2A000A3E0FD9003D6E0FEA3E0FFEE5204EF5205EAB50456EBB505529003FA75F00012A7
:20D2C0007AC3FAA3127AC3FB9003D875F000127AC3FCA3127AC3FDEC5202ED52039003D03B
:20D2E00075F000127AC3FCA3127AC3FD9003D875F000127AC3FEA3127AC3FFEE5204EF52FC
:20D3000005EAB50406EBB5050280309003D2E0FAA3E0FB901188EAF0A3EBF09003D475F0FE
:20D3200000127AC3FAA3127AC3FB90118A75F000EA126CBBA3EB126CBB80359003F875F098
:20D3400000127AC3FAA3127AC3FB901188EAF0A3EBF09003FA75F000127AC3FAA3127AC3E9
:20D36000FB90118A75F000EA126CBBA3EB126CBB90118CE4F090118CE0FABA0400507BEABD
:20D3800075F00BA4245CFAE43411FBA87108A60208A603087600901188E0FAA3E0FBA87149
:20D3A0000886820886830886F0127AC3FCA3127AC3FDEAB5043AEBB5053690118A75F0004C
:20D3C000127AC3FAA3127AC3FBA87108740226FCE40836FD0886068C828D838EF0127AC3C0
:20D3E000FCA3127AC3FDEAB50406EBB50502800A90118CE02401F002D37590118CE0FABA3B
:20D400000402800302D54B9011C274FFF09011C37406F0E4A3F09003DA75F000126A19905F
:20D4200011C2E4F09011C37406F0E4A3F09003FA75F000126A199011BA7456F0A3E4F0A34A
:20D440007440F09011BD7406F0E4A3F09003E075F0001269A39011BA7456F0A3E4F0A37450
:20D4600040F09011BD7406F0E4A3F09003F075F0001269A3901188E0FAA3E0FB90040075AD
:20D48000F000EA126CBBA3EB126CBB90118A75F000127AC3FAA3127AC3FB90040275F000F1
:20D4A000EA126CBBA3EB126CBB9003CEE0FAA3E0FB9003F675F000EA126CBBA3EB126CBBF1
:20D4C0009003D075F000127AC3FAA3127AC3FB9003F875F000EA126CBBA3EB126CBB9003E1
:20D4E000EEE4F5F0126CBBA37401126CBB9003E8E4F5F0126CBBA37401126CBB9003EA752B
:20D50000F0007408126CBBA3E4126CBB9003EC75F0007406126CBB9003ED75F000740412A0
:20D520006CBB9003E675F0007408126CBBA37406126CBB90056C7410F0A37404F0A3E4F0E4
:20D54000900572742AF0E4A3F08067A871089011BA740426F0E40836A3F008A3E6F09011F7
:20D56000BD7406F0E4A3F09003DA75F0001269A39011BA7456F0A3E4F0A37440F09011BDEC
:20D580007406F0E4A3F09003E075F0001269A39003E675F0007408126CBBA3E4126CBB90D1
:20D5A0000572E0FAA3E0FB900572740E2AF0E43BA3F0857181D071020095C071858171C090
:20D5C00082C083C0F0E5812407F5817D00E5712404F87600E5712404F8B60400400302D61B
:20D5E000A1E57124FBF88607088602088603A87108E5712405F9E6F70809E6F70809E6F71D
:20D600007C00E5712405F886820886830886F0127AC3FE0CEC24FB500675820002D6A4BE95
:20D620002E028003EE70208F828A838BF0ED126CBBA3AF82AA83E57124FBF8A60708A6022F
:20D6400008A6037D008029C3EE648094B0401C74B98EF063F08095F04011C004ED75F00A4A
:20D66000A4FCEE24D02CFDD00480057582008034E5712405F806B600020806E5712405F841
:20D68000A97109E6F70809E6F70809E6F7BE2E028006EE600302D602E5712404F80602D5BC
:0CD6A000D4758201857181D07102009563
:00000001FF
