:020000040003F7
:05800000C200C2019066
:078005000002742CF0A374CB
:09800C0000F0A3E4F090001874E8
:0A80150035F0A37400F0A3E4F0902E
:0D801F000000F0A3F090002CE4F0A3F0901E
:0E802C000034E4F0E4C0E090000075F00012B3
:0E803A0055E21581E4C0E090001675F00012CA
:078048005638158102009576
:0A804F0090000BE0FAF582020095A4
:0A805900C071858171C082C083C030
:0C806300F0058105810581A87108868266
:0E806F000886830886F0127AC3FDA3127AC336
:09807D00FEBD0005BE0002802FCB
:08808600BD8305BE0002806D00
:09808E00BD8706BE000302811B40
:09809700BD9C06BE00030282E854
:0980A000BDB006BE000302840C11
:0980A900BDBD06BE00030284C641
:0380B20002860C37
:0C80B500A87108740C26FDE40836FE08D3
:0B80C1008607C005C006C00778E979FB
:0480CC00957A03128C
:0E80D0000083AA82D007D006D0058D828E8351
:0680DE008FF0EA126CBBFA
:0A80E400C200A87108868208868396
:0D80EE000886F07483126CBBA3E4126CBB17
:0B80FB00900358E07005F58202862318
:0C810600A8710886820886830886F07441
:0981120087126CBBA3E4126CBBE4
:09811B00900358E070030281BEDC
:0C812400A87108740526FDE40836FE086A
:0E8130008607758200C005C006C007124F5EAC
:0E813E00AA82AB83D007D006D0058D828E8337
:0C814C008FF0EA126CBBA3EB126CBB902E
:0E8158000359E0FDA3E0FEC3EA9DEB64808EB8
:0C816600F063F08095F04050A8710874A0
:0E8172000726FDE40836FE088607758201C068
:0E81800005C006C007124F5EAA82AB83D0076F
:0E818E00D006D0058D828E838FF0EA126CBB76
:0E819C00A3EB126CBB900359E0FDA3E0FEC301
:0E81AA00EA9DEB64808EF063F08095F0400655
:0681B8007582000286231F
:0981BE00900358E070030280E414
:0C81C700A87108740526FDE40836FE08C7
:0E81D30086078D828E838FF0127AC3FDA31271
:0E81E1007AC3FE900359E0FAA3E0FBC3ED9AC7
:0D81EF00EE64808BF063F08095F05035A8B1
:0C81FC007108740B26FAE40836FB0886B4
:0C820800048A828B838CF0E4126CBBA80B
:0C8214007108740926FAE40836FB08869D
:0E822000048A828B838CF0ED126CBBA3EE12ED
:02822E006CBB27
:0C823000A87108740726FDE40836FE085B
:0E823C0086078D828E838FF0127AC3FDA31207
:0E824A007AC3FE900359E0FAA3E0FBC3ED9A5D
:0D825800EE64808BF063F08095F05036A846
:0C8265007108740B26FAE40836FB08864A
:0D827100048A828B838CF07401126CBBA810
:0C827E007108740926FAE40836FB088633
:0E828A00048A828B838CF0ED126CBBA3EE1283
:028298006CBBBD
:0C829A00A87108740C26FDE40836FE08EC
:0D82A60086078D828E838FF0127AC3FD90C3
:0E82B30002F47470F0A37417F0A3E4F0A3F0CB
:0C82C1009002F8E4F0A3F08D8278807940
:0482CD00967A031288
:0C82D1000083A871088682088683088656
:0B82DD00F0749C126CBBA3E4126CBB9D
:0982E800900358E0700302838644
:0C82F100A87108740526FDE40836FE089C
:0C82FD008607A87108740B26FAE4083606
:0E830900FB0886048A828B838CF0127AC3F5FF
:0E83170082C005C006C007124F5EAB82AC8369
:0E832500D007D006D0058D828E838FF0EB122C
:088333006CBBA3EC126CBB90C3
:0E833B000359E0FDA3E0FEC3EB9DEC64808ED1
:0C834900F063F08095F05035A8710874C6
:0E8355000C26FBE40836FC0886058B828C8320
:0A8363008DF0127AC3F582781979C3
:04836D00977A0312E6
:0E8371000083AB82AC83ADF0FEEB4C4D4E6052
:07837F00067582000286234F
:0C838600A87108740C26FBE40836FC0803
:0E83920086058B828C838DF0127AC3F582C033
:0A83A00003C004C005786379977AE2
:0B83AA0003120083D005D004D0039024
:0883B5000358E070030280E4AC
:0C83BD008B828C838DF0127AC3F58278DD
:0483C9001979977A0D
:0C83CD0003120083AB82AC83ADF0FEEB2A
:0883D9004C4D4E60030280E4EC
:0C83E1007401C0E0A87108868208868341
:0A83ED000886F01255E21581D20057
:0C83F700A8710886820886830886F0744E
:09840300B0126CBBA3E4126CBBC7
:0C840C00900358E0604BA87108740B2628
:0E841800FBE40836FC0886058B828C838DF011
:0D842600127AC3F582124F5EAB82AC8390D8
:0E8433000359E0FAA3E0FE900366E0FFA3E029
:0E844100FDEF2AFFED3EFDC3EB9FEC64808D46
:0E844F00F063F08095F05006758200028623DF
:0C845D00900358E07015C0E0A87108867C
:0D846900820886830886F01255E215810214
:0284760080E4A0
:0C847800A87108740C26FBE40836FC0810
:0D84840086058B828C838DF0127AC3FB90ED
:0E84910002F47470F0A37417F0A3E4F0A3F0EB
:0C849F009002F8E4F0A3F08B8278807962
:0484AB00967A0312A8
:0C84AF000083A871088682088683088676
:0B84BB00F074BD126CBBA3E4126CBB9C
:0984C600900358E0700302857474
:0A84CF00A87108E5712404F9740592
:0C84D90026F7E4083609F70809E6F7A8C2
:0C84E5007108740B26FEE40836FF0886C0
:0D84F100038E828F838BF0127AC3F5821206
:0C84FE004F5EAB82AC83E5712404F8866D
:0E850A00820886830886F0EB126CBBA3EC128D
:0B8518006CBB900359E0FAA3E0FE905A
:0E8523000366E0FFA3E0FDEF2AFFED3EFDC37F
:0E853100EB9FEC64808DF063F08095F0403598
:0C853F00A87108740C26FBE40836FC0848
:0E854B0086058B828C838DF0127AC3F58278C0
:048559001979977A7B
:0C855D0003120083AB82AC83ADF0FEEB98
:0B8569004C4D4E600675820002862318
:0C857400A87108740C26FBE40836FC0813
:0E85800086058B828C838DF0127AC3F582C043
:0A858E0003C004C005786379977AF2
:0B85980003120083D005D004D0039034
:0C85A3000358E07015C0E0A87108868243
:0E85AF000886830886F01255E215810280E4EA
:0C85BD008B828C838DF0127AC3F58278DB
:0485C9001979977A0B
:0C85CD0003120083AB82AC83ADF0FEEB28
:0885D9004C4D4E60030283F7D4
:0C85E100E4C0E0A87108868208868308C8
:0D85ED0086F01255E21581900034E4F09004
:0985FA0002A6F0758201785479A3
:048603008C7A021259
:0586070000830280E485
:0C860C00A8710886820886830886F0E4C6
:0B861800126CBBA3E4126CBB75820265
:06862300857181D0710297
:028629000095BA
:0A862B00C071858171C082C083C058
:0C863500F0058105810581A8710886828E
:0E8641000886830886F0127AC3FDA3127AC35E
:09864F00FEBD0005BE0002802FF3
:08865800BDE405BE0002806DC7
:09866000BDE806BE00030286ED30
:09866900BDFC06BE00030288BA44
:09867200BD1306BE01030289DFFD
:09867B00BD2006BE0103028A9B2A
:03868400028BE284
:0C868700A87108740C26FDE40836FE08FB
:0B8693008607C005C006C00778E97923
:04869E00957A0312B4
:0E86A2000083AA82D007D006D0058D828E8379
:0686B0008FF0EA126CBB22
:0A86B600C201A871088682088683BD
:0D86C0000886F074E4126CBBA3E4126CBBDE
:0B86CD0090035BE07005F582028BF962
:0C86D800A8710886820886830886F0746A
:0986E400E8126CBBA3E4126CBBAC
:0986ED0090035BE070030287902A
:0C86F600A87108740526FDE40836FE0893
:0E8702008607758200C005C006C007124F5ED4
:0E871000AA82AB83D007D006D0058D828E835F
:0C871E008FF0EA126CBBA3EB126CBB9056
:0E872A00035CE0FDA3E0FEC3ED9AEE64808BDD
:0C873800F063F08095F04050A8710874C8
:0E8744000726FDE40836FE088607758201C090
:0E87520005C006C007124F5EAA82AB83D00797
:0E876000D006D0058D828E838FF0EA126CBB9E
:0E876E00A3EB126CBB90035CE0FDA3E0FEC326
:0E877C00ED9AEE64808BF063F08095F040067D
:06878A00758200028BF96C
:0987900090035BE070030286B661
:0C879900A87108740526FDE40836FE08EF
:0E87A50086078D828E838FF0127AC3FDA31299
:0E87B3007AC3FE90035CE0FAA3E0FBC3EA9DEC
:0D87C100EB64808EF063F08095F05035A8D9
:0C87CE007108740B26FAE40836FB0886DC
:0C87DA00048A828B838CF0E4126CBBA834
:0C87E6007108740926FAE40836FB0886C6
:0E87F200048A828B838CF0ED126CBBA3EE1216
:028800006CBB4F
:0C880200A87108740726FDE40836FE0883
:0E880E0086078D828E838FF0127AC3FDA3122F
:0E881C007AC3FE90035CE0FAA3E0FBC3EA9D82
:0D882A00EB64808EF063F08095F05036A86E
:0C8837007108740B26FAE40836FB088672
:0D884300048A828B838CF07401126CBBA838
:0C8850007108740926FAE40836FB08865B
:0E885C00048A828B838CF0ED126CBBA3EE12AB
:02886A006CBBE5
:0C886C00A87108740C26FDE40836FE0814
:0D88780086078D828E838FF0127AC3FD90EB
:0E88850002F47470F0A37417F0A3E4F0A3F0F3
:0C8893009002F8E4F0A3F08D8278807968
:04889F00967A0312B0
:0C88A3000083A87108868208868308867E
:0B88AF00F074FC126CBBA3E4126CBB65
:0988BA0090035BE0700302895891
:0C88C300A87108740526FDE40836FE08C4
:0C88CF008607A87108740B26FAE408362E
:0E88DB00FB0886048A828B838CF0127AC3F528
:0E88E90082C005C006C007124F5EAB82AC8392
:0E88F700D007D006D0058D828E838FF0EB1255
:088905006CBBA3EC126CBB90EB
:0E890D00035CE0FDA3E0FEC3ED9BEE64808CF6
:0C891B00F063F08095F05035A8710874EE
:0E8927000C26FBE40836FC0886058B828C8348
:0A8935008DF0127AC3F582781979EB
:04893F00977A03120E
:0E8943000083AB82AC83ADF0FEEB4C4D4E607A
:0789510006758200028BF99C
:0C895800A87108740C26FBE40836FC082B
:0E89640086058B828C838DF0127AC3F582C05B
:0A89720003C004C005786379977A0A
:0B897C0003120083D005D004D003904C
:08898700035BE070030286B6F9
:0C898F008B828C838DF0127AC3F5827805
:04899B001979977A35
:0C899F0003120083AB82AC83ADF0FEEB52
:0889AB004C4D4E60030286B63C
:0C89B3007401C0E0A87108868208868369
:0A89BF000886F01256381581D20127
:0C89C900A8710886820886830886F07476
:0A89D50013126CBBA37401126CBBFB
:0C89DF0090035BE0604CA87108740B264C
:0E89EB00FBE40836FC0886058B828C838DF039
:0D89F900127AC3F582124F5EAB82AC839000
:0E8A0600035CE0FAA3E0FE900366E0FFA3E04D
:0E8A1400FDEAC39FFFEE9DFDC3EF9BED648066
:0D8A22008CF063F08095F050067582000224
:028A2F008BF9C1
:0C8A310090035BE07015C0E0A87108869F
:0D8A3D00820886830886F0125638158102E3
:028A4A0086B6EE
:0C8A4C00A87108740C26FBE40836FC0836
:0D8A580086058B828C838DF0127AC3FB9013
:0E8A650002F47470F0A37417F0A3E4F0A3F011
:0C8A73009002F8E4F0A3F08B8278807988
:048A7F00967A0312CE
:0C8A83000083A87108868208868308869C
:0C8A8F00F07420126CBBA37401126CBBCD
:098A9B0090035BE07003028B4ABA
:0A8AA400A87108E5712404F97405B7
:0C8AAE0026F7E4083609F70809E6F7A8E7
:0C8ABA007108740B26FEE40836FF0886E5
:0D8AC600038E828F838BF0127AC3F582122B
:0C8AD3004F5EAB82AC83E5712404F88692
:0E8ADF00820886830886F0EB126CBBA3EC12B3
:0B8AED006CBB90035CE0FAA3E0FE907D
:0E8AF8000366E0FFA3E0FDEAC39FFFEE9DFDD5
:0E8B0600C3EF9BED64808CF063F08095F0402F
:0C8B140035A87108740C26FBE40836FC40
:0E8B20000886058B828C838DF0127AC3F58255
:058B2E00781979977A27
:0C8B330003120083AB82AC83ADF0FEEBBC
:0B8B3F004C4D4E6006758200028BF961
:0C8B4A00A87108740C26FBE40836FC0837
:0E8B560086058B828C838DF0127AC3F582C067
:0A8B640003C004C005786379977A16
:0B8B6E0003120083D005D004D0039058
:0C8B7900035BE07015C0E0A87108868264
:0E8B85000886830886F012563815810286B6DF
:0C8B93008B828C838DF0127AC3F58278FF
:048B9F001979977A2F
:0C8BA30003120083AB82AC83ADF0FEEB4C
:088BAF004C4D4E60030289C920
:0C8BB700E4C0E0A87108868208868308EC
:0D8BC30086F0125638158190003DE4F090C8
:098BD00002A6F0758201785479C7
:048BD9008C7A02127E
:058BDD0000830286B6D2
:0C8BE200A8710886820886830886F0E4EB
:0B8BEE00126CBBA3E4126CBB7582028A
:068BF900857181D07102BC
:028BFF000095DF
:0A8C0100C071858171C082C083C07C
:0C8C0B00F0E5812408F581A8710886823C
:0E8C17000886830886F0127AC3FDA3127AC382
:098C2500FEBD0005BE0002802620
:088C2E00BD4405BE0102806394
:098C3600BD4A06BE0103028CBA1E
:098C3F00BD5D06BE0103028E506A
:098C4800BD7D06BE0103028FFD93
:038C510002903D51
:0C8C5400A87108740226FDE40836FE0832
:0B8C60008607C005C006C00778E97950
:048C6B00957A0312E1
:0E8C6F000083AA82D007D006D0058D828E83A6
:068C7D008FF0EA126CBB4F
:0C8C8300A8710886820886830886F074B9
:0A8C8F0044126CBBA37401126CBB0D
:0B8C990090035EE07005F5820290542D
:0C8CA400A8710886820886830886F07498
:0A8CB0004A126CBBA37401126CBBE6
:0C8CBA00A87108740326FDE40836FE08CB
:0E8CC6008607758200C005C006C007124F5E0B
:0C8CD400A87108080808A68208A683D032
:0C8CE00007D006D0058D828E838FF0E552
:0C8CEC00712404F8E6126CBBA308E61229
:0B8CF8006CBB90035FE0FAA3E0FBE51B
:0C8D0300712404F8C3E69A08E664808B33
:0E8D0F00F063F08095F0405CC005C006C00720
:0C8D1D00A87108740526FDE40836FE0865
:0E8D29008607758201C005C006C007124F5EA6
:0E8D3700AA82AB83D007D006D0058D828E8332
:0C8D45008FF0EA126CBBA3EB126CBB9029
:0E8D5100035FE0FCA3E0FDC3EA9CEB64808DB1
:0E8D5F00F063F08095F0D007D006D0054006F6
:068D6D0075820002905423
:098D730090035EE07003028C83A2
:0E8D7C008D828E838FF0127AC3FDA3127AC30C
:0E8D8A00FE90035FE0FAA3E0FBC3ED9AEE64F7
:0C8D9800808BF063F08095F0501AA871F9
:0E8DA40008740726FCE40836FD0886068C825B
:0A8DB2008D838EF0E4126CBB804547
:0C8DBC00A87108740526FCE40836FD08C8
:0E8DC80086068C828D838EF0127AC3FCA31275
:0E8DD6007AC3FDC3EC9AED64808BF063F080ED
:0C8DE40095F05019A87108740726FAE4F5
:0E8DF0000836FB0886048A828B838CF074019F
:038DFE00126CBB39
:0C8E0100A87108740226FAE40836FB0889
:0D8E0D0086048A828B838CF0127AC3FA905F
:0E8E1A0002F474B8F0A3740BF0A3E4F0A3F01C
:0C8E28009002F8E4F0A3F08A82788079D0
:048E3400967A031215
:0C8E38000083A8710886820886830886E3
:0C8E4400F0745D126CBBA37401126CBBD7
:0C8E5000A87108740726FAE40836FB0835
:0E8E5C0086048A828B838CF0127AC3F5821210
:0E8E6A004F5EAA82AB8390035FE0FCA3E0FDA5
:0E8E7800C3EA9CEB64808DF063F08095F050AF
:0C8E86003BA87108740226FAE40836FBD1
:0E8E92000886048A828B838CF0127AC3F582E4
:058EA000781979977AB2
:0C8EA50003120083AA82AB83ACF0FDEA4C
:0E8EB1004B4C4D600C90035EE0600675820035
:038EBF00029054CA
:0A8EC200A87108E5712406F9740296
:0C8ECC0026F7E4083609F70809E6F7E588
:0C8ED800712406F886820886830886F064
:088EE400127AC3F5827863796C
:048EEC00977A03125C
:098EF000008390035EE0700302B0
:028EF9008C8368
:0C8EFB00E5712406F8868208868308864C
:098F0700F0127AC3F582781979A1
:048F1000977A031237
:0E8F14000083AD82AE83AFF0FAED4E4F4A609F
:048F220003028FB502
:0C8F2600A87108740826FAE40836FB085D
:0E8F320086048A828B838CF0127AC3FD24F5AC
:0E8F400040730D8A828B838CF0ED126CBB9017
:0B8F4E0002A67432F07582027854799C
:048F59008C7A0212FA
:098F5D00008390802075F0801261
:0E8F66007AABAA82AB839000A7E4F0A3F0A33D
:098F7400F09000AA7468F0A374E7
:098F7D0003F0A3E4F09000AD74D0
:0A8F860000F0A37480F0A37480F0E3
:088F90009000B07420F0A374FE
:0C8F980080F0A37480F09000B3EAF0A316
:0E8FA400EBF090033A75F00012122FE5827088
:038FB20002C29365
:0C8FB500E5712406F88682088683088691
:0E8FC100F0127AC3FA9002F47430F0A37475C3
:0E8FCF00F0A3E4F0A3F09002F8E4F0A3F08A1F
:068FDD0082788079967A8B
:058FE30003120083A849
:0C8FE800710886820886830886F0747D7C
:098FF400126CBBA37401126CBBEA
:0C8FFD00A87108740226FAE40836FB088C
:0E90090086048A828B838CF0127AC3F58278FB
:049017001979977AB2
:0C901B0003120083AA82AB83ACF0FDEAD4
:089027004B4C4D7003028C83D9
:09902F0090035EE07003028C83E3
:059038007582008017A5
:0C903D00A8710886820886830886F0E48B
:0B904900126CBBA3E4126CBB7582022A
:06905400857181D071025C
:02905A0000957F
:0A905C00C071858171C082C083C01D
:0C906600F0E5812408F581A871088682DD
:0E9072000886830886F0127AC3FDA3127AC323
:09908000FEBD0005BE00028026C1
:08908900BD9205BE01028063E7
:09909100BD9806BE010302911511
:09909A00BDAB06BE01030292AB5E
:0990A300BDCB06BE010302945886
:0390AC0002949893
:0C90AF00A87108740226FDE40836FE08D3
:0B90BB008607C005C006C00778E979F1
:0490C600957A031282
:0E90CA000083AA82D007D006D0058D828E8347
:0690D8008FF0EA126CBBF0
:0C90DE00A8710886820886830886F0745A
:0A90EA0092126CBBA37401126CBB60
:0B90F400900361E07005F5820294AF6C
:0C90FF00A8710886820886830886F07439
:0A910B0098126CBBA37401126CBB38
:0C911500A87108740326FDE40836FE086B
:0E9121008607758200C005C006C007124F5EAB
:0C912F00A87108080808A68208A683D0D2
:0C913B0007D006D0058D828E838FF0E5F2
:0C914700712404F8E6126CBBA308E612C9
:0B9153006CBB900362E0FAA3E0FBE5B8
:0C915E00712404F8C3EA96EB64800886D4
:0E916A00F063F08095F0405CC005C006C007C1
:0C917800A87108740526FDE40836FE0806
:0E9184008607758201C005C006C007124F5E47
:0E919200AA82AB83D007D006D0058D828E83D3
:0C91A0008FF0EA126CBBA3EB126CBB90CA
:0E91AC000362E0FCA3E0FDC3EC9AED64808B4F
:0E91BA00F063F08095F0D007D006D005400697
:0691C8007582000294AF65
:0991CE00900361E070030290DEE1
:0E91D7008D828E838FF0127AC3FDA3127AC3AD
:0E91E500FE900362E0FAA3E0FBC3EA9DEB6498
:0C91F300808EF063F08095F0501AA87197
:0E91FF0008740726FCE40836FD0886068C82FC
:0A920D008D838EF0E4126CBB8045E7
:0C921700A87108740526FCE40836FD0868
:0E92230086068C828D838EF0127AC3FCA31215
:0E9231007AC3FDC3EA9CEB64808DF063F0808D
:0C923F0095F05019A87108740726FAE495
:0E924B000836FB0886048A828B838CF074013F
:03925900126CBBD9
:0C925C00A87108740226FAE40836FB082A
:0D92680086048A828B838CF0127AC3FA9000
:0E92750002F474B8F0A3740BF0A3E4F0A3F0BD
:0C9283009002F8E4F0A3F08A8278807971
:04928F00967A0312B6
:0C9293000083A871088682088683088684
:0C929F00F074AB126CBBA37401126CBB2A
:0C92AB00A87108740726FAE40836FB08D6
:0E92B70086048A828B838CF0127AC3F58212B1
:0E92C5004F5EAA82AB83900362E0FCA3E0FD43
:0E92D300C3EC9AED64808BF063F08095F05050
:0C92E1003BA87108740226FAE40836FB72
:0E92ED000886048A828B838CF0127AC3F58285
:0592FB00781979977A53
:0C93000003120083AA82AB83ACF0FDEAEC
:0E930C004B4C4D600C900361E06006758200D2
:03931A000294AF0B
:0A931D00A87108E5712406F9740236
:0C93270026F7E4083609F70809E6F7E528
:0C933300712406F886820886830886F004
:08933F00127AC3F5827863790C
:04934700977A0312FC
:09934B000083900361E07003024D
:0293540090DEA9
:0C935600E5712406F886820886830886EC
:09936200F0127AC3F58278197942
:04936B00977A0312D8
:0E936F000083AD82AE83AFF0FAED4E4F4A6040
:04937D000302941043
:0C938100A87108740826FAE40836FB08FE
:0E938D0086048A828B838CF0127AC3FD24F54D
:0E939B0040730D8A828B838CF0ED126CBB90B8
:0B93A90002A67432F07582027854793D
:0493B4008C7A02129B
:0993B800008390805175F08012D1
:0E93C1007AABAA82AB839000A7E4F0A3F0A3DE
:0993CF00F09000AA7468F0A37488
:0993D80003F0A3E4F09000AD7471
:0A93E10000F0A37480F0A37480F084
:0893EB009000B07451F0A3746E
:0C93F30080F0A37480F09000B3EAF0A3B7
:0E93FF00EBF090033A75F00012122FE5827029
:03940D0002C29305
:0C941000E5712406F88682088683088631
:0E941C00F0127AC3FA9002F47430F0A3747563
:0E942A00F0A3E4F0A3F09002F8E4F0A3F08ABF
:0694380082788079967A2B
:05943E0003120083A8E9
:0C944300710886820886830886F074CBCE
:09944F00126CBBA37401126CBB8A
:0C945800A87108740226FAE40836FB082C
:0E94640086048A828B838CF0127AC3F582789C
:049472001979977A53
:0C94760003120083AA82AB83ACF0FDEA75
:089482004B4C4D70030290DE1B
:09948A00900361E070030290DE22
:05949300758200801746
:0C949800A8710886820886830886F0E42C
:0B94A400126CBBA3E4126CBB758202CB
:0694AF00857181D07102FD
:0294B500009520
:0E94B70090000DE0FABA0157900012E0FAA3FF
:0E94C500E0FBA3E0FCA3E0FDC002C003C00476
:0E94D300C0051260C6AE82AF83A8F0F9D005C6
:0E94E100D004D003D002EE2AFAEF3BFBE83CA9
:0E94EF00FCE93DFD90000EE0FEA3E0FFA3E0CF
:0E94FD00F8A3E0F9EAC39EFAEB9FFBEC98FCA3
:0B950B00ED99FD8A828B838CF08014A8
:0E951600900012E0FAA3E0FBA3E0FCA3E0FD4E
:069524008A828B838CF0AB
:03952A00020095A7
:0E952D00900023E0FABA0157900028E0FAA35C
:0E953B00E0FBA3E0FCA3E0FDC002C003C004FF
:0E954900C0051260C6AE82AF83A8F0F9D0054F
:0E955700D004D003D002EE2AFAEF3BFBE83C32
:0E956500FCE93DFD900024E0FEA3E0FFA3E042
:0E957300F8A3E0F9EAC39EFAEB9FFBEC98FC2C
:0B958100ED99FD8A828B838CF0801432
:0E958C00900028E0FAA3E0FBA3E0FCA3E0FDC2
:06959A008A828B838CF035
:0395A00002009531
:020000040000FA
:0E8000005641524E494E472C2050726F626C12
:0E800E00656D20692076C3A47874687573656B
:04801C0074212100AA
:0E80200048656A2C0D0A54656D7065726174B6
:0E802E007572656E20692076C3A4787468753B
:0E803C0073657420C3A4722066C3B672206CF4
:07804A00C3A56720212100FE
:0E80510048656A2C0D0A54656D706572617485
:0E805F0075726E20692076C3A47874687573FC
:0E806D00657420C3A4722066C3B6722068C377
:06807B00B6672021210080
:048081003232300067
:04808500333334005D
:048089003233350059
:06808D0048454C4F2000A5
:0680930065686C6F20001F
:0C8099004D41494C2046524F4D3A20000A
:0A80A5005243505420544F3A20007B
:0780AF00444154410D0A0099
:0580B600546F3A2000A8
:0580BB0043633A2000C0
:0780C00046726F6D3A2000CB
:0A80C7005375626A6563743A200085
:0E80D100436F6E74656E742D547970653A209D
:0E80DF00746578742F706C61696E3B20636865
:0C80ED0061727365743D5554462D3800D7
:0880F9003235302044534E00E3
:0B81010061757468206C6F67696E0088
:07810C00515549540D0A0012
:038113000D0A0052
:068116000D0A2E0D0A0007
:0E00FF0090003EE0FAA3E0FBBA0006BB00034F
:03010D000202D516
:09011000BA6E06BB00030202DE18
:09011900BA7706BB000302034C97
:09012200BA7806BB000302038E4B
:09012B00BA7906BB00030203E4EB
:09013400BA7B06BB000302042A99
:09013D00BA7C06BB000302046C4D
:09014600BA7D06BB00030204C2ED
:09014F00BA8106BB00030205049D
:09015800BA8406BB000302055243
:09016100BA8506BB0003020594F7
:09016A00BA8706BB00030205D6AA
:09017300BA9306BB000302065614
:09017C00BA9406BB0003020697C9
:09018500BA9606BB00030206D97C
:09018E00BAA206BB0003020759E6
:09019700BAA306BB000302079A9B
:0901A000BAA606BB00030207DC4D
:0901A900BAB106BB0003020846CE
:0901B200BAB206BB000302088882
:0901BB00BAB506BB00030208DE20
:0901C400BAB706BB0003020920D2
:0901CD00BABF06BB00030209667B
:0901D600BAC006BB00030209A82F
:0901DF00BAC106BB00030209FECF
:0901E800BAC306BB0003020A4081
:0901F100BACC06BB0003020A9D12
:0901FA00BACD06BB0003020ADFC6
:09020300BACE06BB0003020B3564
:09020C00BAD006BB0003020B7717
:09021500BAD906BB0003020BBDBF
:09021E00BADB06BB0003020BFF72
:09022700BAE306BB0003020C451A
:09023000BAE406BB0003020C87CE
:09023900BAE506BB0003020CDD6E
:09024200BAE806BB0003020D320C
:09024B00BAE906BB0003020D74C0
:09025400BAEA06BB0003020DCA60
:09025D00BAED06BB0003020E0C11
:09026600BAEE06BB0003020E4EC5
:09026F00BAEF06BB0003020EA465
:09027800BAF106BB0003020EE618
:09028100BAF206BB0003020F28CB
:09028A00BAF306BB0003020F7E6B
:09029300BAF506BB0003020FC01E
:09029C00BAF606BB0003021002D1
:0902A500BAF706BB000302104485
:0902AE00BAF906BB000302108638
:0902B700BAFB06BB00030210CBE8
:0902C000BAFD06BB000302110D9A
:0902C900BA0506BB010302115441
:0302D20002119383
:0902D50090003E746EF0A3E4F009
:0D02DE009003BF740AF090003E75F00078A8
:0402EB007C799D7A03
:0B02EF0002120083E5827003F58222FA
:0802FA009011AA7481F0A374B5
:0C03020080F0A37480F09011AD7403F043
:0E030E00E4A3F090007075F000126815E5820F
:0E031C008583F045F060179005767410F0753B
:0E032A00820112607690003EE4F0A3F075822E
:020338000122A0
:09033A00900390E060030204212D
:0903430090003E7477F0A3E4F091
:0E034C0090808D75F080127AABAA82AB839000
:07035A0003A9748DF0A374E8
:0C03610080F0A37480F09003ACEAF0A3DD
:0B036D00EBF090003E75F00078447942
:04037800997A02125A
:09037C000083E5827003F5822282
:0903850090003E7478F0A3E4F04E
:0E038E0090007AE0FAA3E0FBA3E0FC8A828BE9
:0E039C00838CF0C002C003C004127AABAD82A5
:0E03AA00AE83D004D003D0029003A9EAF0A3E2
:0E03B800EBF0A3ECF09003ACEDF0A3EEF090B0
:0803C600003E75F00078447957
:0403CE00997A021204
:0903D2000083E5827003F582222C
:0903DB0090003E7479F0A3E4F0F7
:0E03E40090811375F080127AABAA82AB8390E1
:0703F20003A97413F0A374CA
:0C03F90081F0A37480F09003ACEAF0A344
:0B040500EBF090003E75F000784479A9
:04041000997A0212C1
:090414000083E582600302083D4B
:04041D0075820022C2
:0904210090003E747BF0A3E4F0AE
:0E042A0090809375F080127AABAA82AB83901B
:0704380003A97493F0A37403
:0C043F0080F0A37480F09003ACEAF0A3FE
:0B044B00EBF090003E75F00078447963
:04045600997A02127B
:09045A000083E5827003F58222A3
:0904630090003E747CF0A3E4F06B
:0E046C0090007AE0FAA3E0FBA3E0FC8A828B0A
:0E047A00838CF0C002C003C004127AABAD82C6
:0E048800AE83D004D003D0029003A9EAF0A303
:0E049600EBF0A3ECF09003ACEDF0A3EEF090D1
:0804A400003E75F00078447978
:0404AC00997A021225
:0904B0000083E5827003F582224D
:0904B90090003E747DF0A3E4F014
:0E04C20090811375F080127AABAA82AB839002
:0704D00003A97413F0A374EB
:0C04D70081F0A37480F09003ACEAF0A365
:0B04E300EBF090003E75F000784479CB
:0404EE00997A0212E3
:0904F2000083E5827003F582220B
:0904FB0090003E7481F0A3E4F0CE
:0D0504009003BF740AF090003E75F000787F
:040511007C799D7ADA
:0B05150002120083E5827003F58222D1
:080520009011AA74F9F0A37414
:0C05280080F0A37480F09011AD7407F017
:0E053400E4A3F090007075F000126815E582E7
:0E0542008583F045F070B290003E7484F0A303
:02055000E4F0D5
:0E05520090810175F080127AABAA82AB839083
:0705600003A97401F0A3746C
:0C05670081F0A37480F09003ACEAF0A3D4
:0B057300EBF090003E75F0007844793A
:04057E00997A021252
:090582000083E5827003F582227A
:09058B0090003E7485F0A3E4F039
:0E05940090811375F080127AABAA82AB83902F
:0705A20003A97413F0A37418
:0C05A90081F0A37480F09003ACEAF0A392
:0B05B500EBF090003E75F000784479F8
:0405C000997A021210
:0905C4000083E5827003F5822238
:0905CD0090003E7487F0A3E4F0F5
:0D05D6009003BF740AF090003E75F00078AD
:0405E3007C799D7A08
:0B05E70002120083E5827003F58222FF
:0805F2009011AA7485F0A374B6
:0C05FA0080F0A37480F09011AD7403F049
:0E060600E4A3F090007075F000126815E58214
:0D0614008583F045F0601C900073E4F090C9
:0C06210005767410F0758201126076906E
:0A062D00003EE4F0A3F07582012204
:080637009000B87481F0A37477
:0C063F0000F0A3E4F090036875F00012D6
:0B064B0014C490003E7493F0A3E4F090
:0E06560090008175F000127AABAA82AB8390FF
:0706640003A97481F0A374E7
:0C066B0000F0A3E4F09003ACEAF0A3EB75
:0A067700F090003E75F00078447921
:04068100997A02124E
:090685000083E5827003F5822276
:09068E0090003E7494F0A3E4F026
:0E06970090811375F080127AABAA82AB83902B
:0706A50003A97413F0A37414
:0C06AC0081F0A37480F09003ACEAF0A38E
:0B06B800EBF090003E75F000784479F4
:0406C300997A02120C
:0906C7000083E5827003F5822234
:0906D00090003E7496F0A3E4F0E2
:0D06D9009003BF740AF090003E75F00078A9
:0406E6007C799D7A04
:0B06EA0002120083E5827003F58222FB
:0806F5009011AA7485F0A374B2
:0C06FD0080F0A37480F09011AD7403F045
:0E070900E4A3F090007075F000126815E58210
:0D0717008583F045F0601C900073E4F090C5
:0C07240005767410F0758201126076906A
:0A073000003EE4F0A3F07582012200
:08073A009000B87481F0A37473
:0C07420000F0A3E4F090038675F00012B4
:0B074E0014C490003E74A2F0A3E4F07D
:0E07590090008175F000127AABAA82AB8390FB
:0707670003A97481F0A374E3
:0C076E0000F0A3E4F09003ACEAF0A3EB71
:0A077A00F090003E75F0007844791D
:04078400997A02124A
:090788000083E5827003F5822272
:0907910090003E74A3F0A3E4F013
:0E079A0090811375F080127AABAA82AB839027
:0707A80003A97413F0A37410
:0C07AF0081F0A37480F09003ACEAF0A38A
:0B07BB00EBF090003E75F000784479F0
:0407C600997A021208
:0907CA000083E5827003F5822230
:0907D30090003E74A6F0A3E4F0CE
:0D07DC009003BF740AF090003E75F00078A5
:0407E9007C799D7A00
:0B07ED0002120083E5827003F58222F7
:0807F8009011AA7489F0A374AA
:0C08000080F0A37480F09011AD7403F040
:0E080C00E4A3F090007075F000126815E5820C
:0D081A008583F045F0601C900073E4F090C1
:0C08270005767410F07582021260769065
:0A083300003EE4F0A3F075820122FC
:09083D0090003E74B1F0A3E4F058
:0E08460090809975F080127AABAA82AB8390F5
:0708540003A97499F0A374DD
:0C085B0080F0A37480F09003ACEAF0A3DE
:0B086700EBF090003E75F00078447943
:04087200997A02125B
:090876000083E5827003F5822283
:09087F0090003E74B2F0A3E4F015
:0E08880090005FE0FAA3E0FBA3E0FC8A828B05
:0E089600838CF0C002C003C004127AABAD82A6
:0E08A400AE83D004D003D0029003A9EAF0A3E3
:0E08B200EBF0A3ECF09003ACEDF0A3EEF090B1
:0808C000003E75F00078447958
:0408C800997A021205
:0908CC000083E5827003F582222D
:0908D50090003E74B5F0A3E4F0BC
:0E08DE0090811375F080127AABAA82AB8390E2
:0708EC0003A97413F0A374CB
:0C08F30081F0A37480F09003ACEAF0A345
:0B08FF00EBF090003E75F000784479AB
:04090A00997A0212C2
:09090E000083E5827003F58222EA
:0909170090003E74B7F0A3E4F077
:0D0920009003BF740AF090003E75F000785F
:04092D007C799D7ABA
:0B09310002120083E5827003F58222B1
:0A093C00900070E0FABA3202801752
:0D0946009005767410F075820112607690B5
:0A095300003EE4F0A3F075820122DB
:09095D0090003E74BFF0A3E4F029
:0E0966009080A575F080127AABAA82AB8390C8
:0709740003A974A5F0A374B0
:0C097B0080F0A37480F09003ACEAF0A3BD
:0B098700EBF090003E75F00078447922
:04099200997A02123A
:090996000083E5827003F5822262
:09099F0090003E74C0F0A3E4F0E6
:0E09A800900059E0FAA3E0FBA3E0FC8A828BEA
:0E09B600838CF0C002C003C004127AABAD8285
:0E09C400AE83D004D003D0029003A9EAF0A3C2
:0E09D200EBF0A3ECF09003ACEDF0A3EEF09090
:0809E000003E75F00078447937
:0409E800997A0212E4
:0909EC000083E5827003F582220C
:0909F50090003E74C1F0A3E4F08F
:0E09FE0090811375F080127AABAA82AB8390C1
:070A0C0003A97413F0A374A9
:0C0A130081F0A37480F09003ACEAF0A323
:0B0A1F00EBF090003E75F00078447989
:040A2A00997A0212A1
:090A2E000083E5827003F58222C9
:090A370090003E74C3F0A3E4F04A
:0D0A40009003BF740AF090003E75F000783E
:040A4D007C799D7A99
:0B0A510002120083E5827003F5822290
:0A0A5C00900070E0FABA3202801731
:0D0A66009005767410F07582011260769094
:0A0A7300003EE4F0A3F075820122BA
:0E0A7D0090005CE0FAA3E0FBA3E0FCBA0009E5
:090A8B00BB0006BC0003020BB421
:090A940090003E74CCF0A3E4F0E4
:0E0A9D009080A575F080127AABAA82AB839090
:070AAB0003A974A5F0A37478
:0C0AB20080F0A37480F09003ACEAF0A385
:0B0ABE00EBF090003E75F000784479EA
:040AC900997A021202
:090ACD000083E5827003F582222A
:090AD60090003E74CDF0A3E4F0A1
:0E0ADF0090005CE0FAA3E0FBA3E0FC8A828BAF
:0E0AED00838CF0C002C003C004127AABAD824D
:0E0AFB00AE83D004D003D0029003A9EAF0A38A
:0E0B0900EBF0A3ECF09003ACEDF0A3EEF09057
:080B1700003E75F000784479FE
:040B1F00997A0212AB
:090B23000083E5827003F58222D3
:090B2C0090003E74CEF0A3E4F049
:0E0B350090811375F080127AABAA82AB839088
:070B430003A97413F0A37471
:0C0B4A0081F0A37480F09003ACEAF0A3EB
:0B0B5600EBF090003E75F00078447951
:040B6100997A021269
:090B65000083E5827003F5822291
:090B6E0090003E74D0F0A3E4F005
:0D0B77009003BF740AF090003E75F0007806
:040B84007C799D7A61
:0B0B880002120083E5827003F5822258
:0A0B9300900070E0FABA32028017F9
:0D0B9D009005767410F0758201126076905C
:0A0BAA00003EE4F0A3F07582012282
:090BB40090003E74D9F0A3E4F0B6
:0E0BBD009080AF75F080127AABAA82AB839065
:070BCB0003A974AFF0A3744D
:0C0BD20080F0A37480F09003ACEAF0A364
:0B0BDE00EBF090003E75F000784479C9
:040BE900997A0212E1
:090BED000083E5827003F5822209
:090BF60090003E74DBF0A3E4F072
:0D0BFF009003BF740AF090003E75F000787E
:040C0C007C799D7AD8
:0B0C100002120083E5827003F58222CF
:0A0C1B00900070E0FABA330280176F
:0D0C25009005767410F075820112607690D3
:0A0C3200003EE4F0A3F075820122F9
:090C3C0090003E74E3F0A3E4F023
:0E0C45009080B675F080127AABAA82AB8390D5
:070C530003A974B6F0A374BD
:0C0C5A0080F0A37480F09003ACEAF0A3DB
:0B0C6600EBF090003E75F00078447940
:040C7100997A021258
:090C75000083E5827003F5822280
:090C7E0090003E74E4F0A3E4F0E0
:0E0C8700900059E0FAA3E0FBA3E0FC8A828B08
:0E0C9500838CF0C002C003C004127AABAD82A3
:0E0CA300AE83D004D003D0029003A9EAF0A3E0
:0E0CB100EBF0A3ECF09003ACEDF0A3EEF090AE
:080CBF00003E75F00078447955
:040CC700997A021202
:090CCB000083E5827003F582222A
:090CD40090003E74E5F0A3E4F089
:0E0CDD0090811375F080127AABAA82AB8390DF
:070CEB0003A97413F0A374C8
:0C0CF20081F0A37480F09003ACEAF0A342
:0B0CFE00EBF090003E75F000784479A8
:040D0900997A0212BF
:090D0D000083E5827003F58222E7
:0E0D160090005CE0FAA3E0FBA3E0FCEA4B4C8B
:050D24007003020E0344
:090D290090003E74E8F0A3E4F030
:0E0D32009080BB75F080127AABAA82AB8390E2
:070D400003A974BBF0A374CA
:0C0D470080F0A37480F09003ACEAF0A3ED
:0B0D5300EBF090003E75F00078447952
:040D5E00997A02126A
:090D62000083E5827003F5822292
:090D6B0090003E74E9F0A3E4F0ED
:0E0D740090005CE0FAA3E0FBA3E0FC8A828B17
:0E0D8200838CF0C002C003C004127AABAD82B5
:0E0D9000AE83D004D003D0029003A9EAF0A3F2
:0E0D9E00EBF0A3ECF09003ACEDF0A3EEF090C0
:080DAC00003E75F00078447967
:040DB400997A021214
:090DB8000083E5827003F582223C
:090DC10090003E74EAF0A3E4F096
:0E0DCA0090811375F080127AABAA82AB8390F1
:070DD80003A97413F0A374DA
:0C0DDF0081F0A37480F09003ACEAF0A354
:0B0DEB00EBF090003E75F000784479BA
:040DF600997A0212D2
:090DFA000083E5827003F58222FA
:090E030090003E74EDF0A3E4F050
:0E0E0C009080C075F080127AABAA82AB839002
:070E1A0003A974C0F0A374EA
:0C0E210080F0A37480F09003ACEAF0A312
:0B0E2D00EBF090003E75F00078447977
:040E3800997A02128F
:090E3C000083E5827003F58222B7
:090E450090003E74EEF0A3E4F00D
:0E0E4E0090005FE0FAA3E0FBA3E0FC8A828B39
:0E0E5C00838CF0C002C003C004127AABAD82DA
:0E0E6A00AE83D004D003D0029003A9EAF0A317
:0E0E7800EBF0A3ECF09003ACEDF0A3EEF090E5
:080E8600003E75F0007844798C
:040E8E00997A021239
:090E92000083E5827003F5822261
:090E9B0090003E74EFF0A3E4F0B6
:0E0EA40090811375F080127AABAA82AB839016
:070EB20003A97413F0A374FF
:0C0EB90081F0A37480F09003ACEAF0A379
:0B0EC500EBF090003E75F000784479DF
:040ED000997A0212F7
:090ED4000083E5827003F582221F
:090EDD0090003E74F1F0A3E4F072
:0E0EE6009080C775F080127AABAA82AB839021
:070EF40003A974C7F0A37409
:0C0EFB0080F0A37480F09003ACEAF0A338
:0B0F0700EBF090003E75F0007844799C
:040F1200997A0212B4
:090F16000083E5827003F58222DC
:090F1F0090003E74F2F0A3E4F02E
:0E0F2800900062E0FAA3E0FBA3E0FC8A828B5B
:0E0F3600838CF0C002C003C004127AABAD82FF
:0E0F4400AE83D004D003D0029003A9EAF0A33C
:0E0F5200EBF0A3ECF09003ACEDF0A3EEF0900A
:080F6000003E75F000784479B1
:040F6800997A02125E
:090F6C000083E5827003F5822286
:090F750090003E74F3F0A3E4F0D7
:0E0F7E0090811375F080127AABAA82AB83903B
:070F8C0003A97413F0A37424
:0C0F930081F0A37480F09003ACEAF0A39E
:0B0F9F00EBF090003E75F00078447904
:040FAA00997A02121C
:090FAE000083E5827003F5822244
:090FB70090003E74F5F0A3E4F093
:0E0FC0009080D175F080127AABAA82AB83903C
:070FCE0003A974D1F0A37424
:0C0FD50080F0A37480F09003ACEAF0A35D
:0B0FE100EBF090003E75F000784479C2
:040FEC00997A0212DA
:090FF0000083E5827003F5822202
:090FF90090003E74F6F0A3E4F050
:0E10020090811375F080127AABAA82AB8390B6
:0710100003A97413F0A3749F
:0C10170081F0A37480F09003ACEAF0A319
:0B102300EBF090003E75F0007844797F
:04102E00997A021297
:091032000083E5827003F58222BF
:09103B0090003E74F7F0A3E4F00C
:0E10440090811375F080127AABAA82AB839074
:0710520003A97413F0A3745D
:0C10590081F0A37480F09003ACEAF0A3D7
:0B106500EBF090003E75F0007844793D
:04107000997A021255
:091074000083E5827003F582227D
:09107D0090003E74F9F0A3E4F0C8
:0E108600900065E0FAA3E0FBA3E0FC90006898
:0E109400E0FDA3E0FE9003A9EAF0A3EBF0A3B9
:0E10A200ECF09003ACEDF0A3EEF090003E7584
:0710B000F000784479997A01
:0B10B70002120083E5827003F5822224
:0910C20090003E74FBF0A3E4F081
:0E10CB0090811675F080127AABAA82AB8390EA
:0710D90003A97416F0A374D3
:0C10E00081F0A37480F09003ACEAF0A350
:0B10EC00EBF090003E75F000784479B6
:0410F700997A0212CE
:0910FB000083E5827003F58222F6
:0911040090003E74FDF0A3E4F03C
:0D110D009003BF740AF090003E75F000786A
:04111A007C799D7AC5
:0B111E0002120083E5827003F58222BC
:0A112900900070E0FABA320280175D
:0D1133009005767410F075820112607690C0
:0A114000003EE4F0A3F075820122E6
:0A114A0090003E7405F0A37401F05C
:0E11540090810C75F080127AABAA82AB83906A
:0711620003A9740CF0A37453
:0C11690081F0A37480F09003ACEAF0A3C6
:0B117500EBF090003E75F0007844792C
:04118000997A021244
:091184000083E5827003F582226C
:06118D007582001260767D
:0B11930090003EE4F0A3F07582022201
:0E119E00900576E0FA30E406900057E4F02267
:0811AC00EA20E504EA30E70B3C
:0B11B400900057E4F0758203026076A3
:0311BF000200FF2C
:0E11C200AAF0AB83E5829000A4F0A3EBF0A3AB
:0E11D000EAF09000A4E0FAA3E0FBA3E0FC909C
:0E11DE00007AEAF0A3EBF0A3ECF09000A1E0A1
:0E11EC00FAA3E0FBA3E0FC8A828B838CF01256
:0911FA007AC3FDA3127AC3FE9032
:0E120300007DEDF0A3EEF074022AFAE43BFB4E
:0E1211008A828B838CF0127AC3FAA3127AC3FE
:0E121F00FB90007F75F000EA126CBBA3EB029F
:02122D006CBB98
:0E122F00AAF0AB83E5829000B5F0A3EBF0A32C
:0E123D00EAF090032CE0FAA3E0FB8A828B8398
:05124B00783679CB7A32
:0912500002120083AA82AB839014
:0E125900113FEAF0A3EBF090007D75F00078F5
:041267001379A87AD5
:0C126B0002120083AA82AB83ACF0BA0030
:0B1277000ABB0007BC000475820022C7
:0E1282009000577401F09000B5E0FAA3E0FB75
:0E129000A3E0FC900059EAF0A3EBF0A3ECF011
:0E129E009000A7E0FAA3E0FBA3E0FC90005C48
:0E12AC00EAF0A3EBF0A3ECF09000AAE0FAA3A6
:0E12BA00E0FBA3E0FC90005FEAF0A3EBF0A3E2
:0E12C800ECF09000ADE0FAA3E0FBA3E0FC9098
:0E12D6000062EAF0A3EBF0A3ECF09000B0E0B1
:0E12E400FAA3E0FBA3E0FC900065EAF0A3EBA8
:0D12F200F0A3ECF09000B3E0FAA3E0FB9055
:0B12FF000068EAF0A3EBF09003C67457
:0A130A0070F0A37400F0A3E4F0906B
:0E13140003C9740AF0E4A3F090003E75F000E7
:05132200781979A27AA0
:0813270002120083758201220D
:0D132F0090032CE0FAA3E0FB8A828B837808
:04133C003679CB7AB9
:0C13400002120083AA82AB83E4C0E0C06C
:0E134C0002C003E4C0E090119E126246AA8225
:0E135A00E58124FCF581EA7005900057E4F06F
:011368002262
:0A136900C071858171C082C083C08D
:0C137300F0E5812407F581E57124FBF80A
:0C137F008605088606088607A871088607
:0E138B00820886830886F0127AC3FA030354A0
:0E1399003F90811C938D828E838FF0126CBB6F
:0C13A700E5712405F874012DF6E43E0801
:0C13B300F608A607530203E5712404F8B5
:0C13BF00EAC454F0F6A87108740126FB83
:0E13CB00E40836FC0886028B828C838AF012BE
:0C13D9007AC3FA74F05AC4540FFBE5719B
:0C13E5002404F8EB4690811C93FBE5719A
:0D13F1002405F886820886830886F0EB123A
:0C13FE006CBBE5712405F874022DF6E4C8
:0C140A003E08F608A607E57124F9F8C3B7
:0E14160074019674800886F063F08095F050A3
:0E1424003AC005C006C00753020FEA2A25E0B1
:0C143200FAA87108740226FBE40836FCDE
:0E143E000886058B828C838DF0127AC354C011
:0E144C0023235403FB4A90811C93FAD007D04F
:05145A0006D005800230
:02145F007A3DD4
:0C146100E5712405F88682088683088661
:0E146D00F0EA126CBB74032DFAE43EFB8F0410
:0C147B00E57124F9F8C37402967480082F
:0C14870086F063F08095F05022A87108F8
:0E149300740226FDE40836FE0886078D828E60
:0E14A100838FF0127AC3FD743F5D90811C931F
:0314AF00FD8002BB
:0214B2007D3D7E
:0C14B4008A828B838CF0ED126CBB85717A
:0414C00081D0712244
:0E14C400AAF0AB83E5829000BBF0A3EBF0A38F
:0214D200EAF03E
:0E14D4009000BBE0FAA3E0FBA3E0FC8A828B51
:0B14E200838CF0127AC370030215B473
:0814ED007D007E007F00780005
:0E14F500C3EF9403E864809480503EC005C0AD
:0A15030006EF24BEF9E83400FD8A6B
:0E150D00828B838CF0127AC3FE89828D83F06C
:0C151B00EED006D00560150ABA00010BE6
:0E1527009000BBEAF0A3EBF0A3ECF00DBD00CA
:02153500010EA5
:071537000FBF00BA0880B7E6
:0E153E009000BBEAF0A3EBF0A3ECF0ED4E60E2
:0A154C0087C005C00674C1C0E0743A
:0C15560000C0E0E4C0E09000BE75F000B2
:0E156200121369E58124FBF5819000B8E0FAD0
:0A157000A3E0FBA3E0FC7D007E0079
:0E157A00C3ED9404EE6480948040030214D408
:0A158800ED24C1F582EE3400F58376
:0E159200E0FF8A828B838CF0126CBBA3AA82CE
:0E15A000AB839000B8EAF0A3EBF0A3ECF00DE3
:0615AE00BD00C90E80C65D
:0E15B4009000B8E0FAA3E0FBA3E0FC8A828B73
:0715C200838CF0E4026CBB16
:0E811C004142434445464748494A4B4C4D4E6C
:0E812A004F505152535455565758595A61628E
:0E813800636465666768696A6B6C6D6E6F7074
:0E8146007172737475767778797A30313233CE
:098154003435363738392B2F0081
:0E815D007C2424247D72737475767778797A89
:0E816B007B242424242424243E3F404142430C
:0E8179004445464748494A4B4C4D4E4F5051E5
:0E818700525354555657242424242424585966
:0E8195005A5B5C5D5E5F606162636465666795
:0B81A30068696A6B6C6D6E6F70710094
:0881AE00687474703A2F2F0071
:0581B600323030200012
:0581BB0033303120000B
:0581C000333032200005
:0581C5004745542000B5
:0981CA00485454502F312E3000AE
:0981D300485454502F312E3100A4
:0E81DC00636F6E74656E742D747970653A2051
:0181EA000094
:0E81EB00417574686F72697A6174696F6E3ADB
:0881F90020426173696320005C
:0A820100746578742F68746D6C00CA
:0B820B006C6F636174696F6E3A2000B5
:07821600686F73743A200049
:03821D000D0A0047
:0D8220002F696E6465782E7368746D6C00B4
:0A822D002F3430342E68746D6C009D
:0A8237002F3430312E68746D6C0096
:09824100526566657265723A002F
:0E824A00436F6E74656E742D4C656E677468BC
:028258003A00EA
:0E825A00485454502F312E3020323030204FF7
:0E8268004B0D0A5365727665723A20754950C7
:0E8276002F312E3020687474703A2F2F7777D6
:0E828400772E736963732E73652F7E616461BC
:0E8292006D2F7569702F0D0A436F6E6E656358
:0E82A00074696F6E3A20636C6F73650D0A008F
:0E82AE00485454502F312E302034303120559A
:0E82BC004E415554484F52495A45440D0A57F9
:0E82CA0057572D41757468656E746963617451
:0E82D800653A204261736963207265616C6DC6
:0882E6003D564456540D0A00F8
:0E82EE00485454502F312E3020343034204E5E
:0E82FC006F7420666F756E640D0A536572769E
:0E830A0065723A207549502F312E302068746C
:0E83180074703A2F2F7777772E736963732E68
:0E83260073652F7E6164616D2F7569702F0D78
:0E8334000A436F6E6E656374696F6E3A206364
:078342006C6F73650D0A006A
:0E834900436F6E74656E742D747970653A2002
:0E835700746578742F706C61696E0D0A0D0AE2
:018365000017
:0E836600436F6E74656E742D747970653A20E5
:0E837400746578742F68746D6C0D0A0D0A0024
:0E838200436F6E74656E742D747970653A20C9
:0D839000746578742F6373730D0A0D0A0075
:0E839D00436F6E74656E742D747970653A20AE
:0E83AB00746578742F746578740D0A0D0A00DD
:0E83B900436F6E74656E742D747970653A2092
:0E83C700696D6167652F706E670D0A0D0A0003
:0E83D500436F6E74656E742D747970653A2076
:0E83E300696D6167652F6769660D0A0D0A00F6
:0E83F100436F6E74656E742D747970653A205A
:0E83FF00696D6167652F6A7065670D0A0D0A6A
:01840D00006E
:0E840E00436F6E74656E742D747970653A203C
:0E841C006170706C69636174696F6E2F6F63BD
:0E842A007465742D73747265616D0D0A0D0A10
:018438000043
:068439002E68746D6C005A
:07843F002E7368746D6C00E0
:058446002E68746D00BA
:05844B002E63737300B5
:058450002E706E6700B4
:058455002E67696600BE
:05845A002E6A706700AE
:05845F002E747874008A
:058464002E7478740085
:0A15C900C071858171AA82AB83AC6A
:0E15D300F0741A2AFAE43BFB8A828B838CF0B8
:0E15E100127AC3FDA3127AC3FEBD001DBE0028
:0C15EF001AE57124FBF886050886060842
:0E15FB0086078D828E838FF0127AC36002C243
:01160900934D
:0D160A008A828B838CF0E4126CBBA3E41287
:081617006CBB758202D0712248
:0A161F00C071858171C082C083C0D4
:0C162900F0E5812409F581E5712404F846
:091635007636087612087600E50D
:0C163E00712404F8860208860308860464
:0E164A008A828B838CF0127AC3FDA3127AC3BE
:0E165800FEA3127AC3FFE4BD0007BE0004BF6C
:031666000001047C
:05166900600302173CC4
:0E166E008A828B838CF0127AC3FDA3127AC39A
:0D167C00FEA3127AC3FF8D828E838FF0E5EE
:0A168900712407F8127AC3F6A312C9
:0B1693007AC308F6A3127AC308F6E53C
:0C169E00712407F886820886830886F015
:0E16AA00C002C003C004127AABAD82AE83A8AA
:0C16B80071089011AAE6F008A3E6F00803
:0C16C400A3E6F09011ADEDF0A3EEF0E510
:0C16D000712407F886820886830886F0E3
:0E16DC00126815E5828583F0D004D003D00299
:0C16EA0045F07037E5712404F886820892
:0E16F60086830886F0127AC3FDA3127AC3FE23
:0E170400A3127AC3FF74032DFDE43EFE8D8216
:0E1712008E838FF0127AC3FDA3127AC3FE8D70
:05172000828E83801A97
:0C17250074032AFAE43BFBE5712404F88D
:0B173100A60208A60308A60402164A40
:03173C009015C93C
:06173F00857181D07122CA
:0A174500C071858171C082C083C0AD
:0C174F00F0E5812408F581E5712404F820
:0C175B00E4F608F6A87108741A26FFE4F2
:0D1767000836FD0886068F828D838EF012F5
:0E1774007AC3FAA3127AC3FBBA0005BB0002C7
:02178200800CD9
:09178400BA9906BB000302193CEE
:03178D000219C876
:0A179000E57124FBF8E5712406F969
:0A179A00E6F70809E6F70809E6F78C
:0C17A400E5712406F8868208868308861A
:0A17B000F0127AC3FAE4BA20010433
:0C17BA00700DE5712406F806B600020868
:0117C600061C
:0217C70080DBC5
:0C17C900E5712406F8740126FAE40836E5
:0E17D500FB0886048A828B838CF0C005C00658
:0E17E300C007126A5EAA82AB83D007D006D080
:0817F10005EB3350030218ADB3
:0E17F900C374079A74808BF063F08095F050F3
:04180700030218AD13
:07180B00EA2A2A901812736B
:0718120002182A02182A0245
:06181900182A02184B0220
:06181F00185F02187302BD
:05182500188702189B6A
:0E182A008A82C005C006C007124F5EAA82ABBC
:0C18380083D007D006D005E5712404F829
:07184400A60208A603806262
:0C184B00900359E0FAA3E0FBE5712404CF
:08185700F8A60208A603804E6A
:0C185F0090035CE0FAA3E0FBE5712404B8
:08186B00F8A60208A603803A6A
:0C18730090035FE0FAA3E0FBE5712404A1
:08187F00F8A60208A60380266A
:0C188700900362E0FAA3E0FBE57124048A
:08189300F8A60208A60380126A
:0C189B00900366E0FAA3E0FBE571240472
:0618A700F8A60208A603EA
:0C18AD009011E3740AF0E4A3F0E571244C
:0E18B90004F88682088683C005C006C00712A8
:0618C7006D8A126D3EA8BF
:0C18CD0071080808080808A68208A68315
:0C18D9009011FB740AF0E4A3F0E5712408
:0E18E50004F88682088683127005AC82AA83FE
:0C18F300E5712406F8E6C0E008E6C0E05D
:0A18FF00C004C0027491C0E07484BC
:0E190900C0E07480C0E090056CE0C0E0A3E098
:0E191700C0E0A3E0C0E01271D1E58124F6F536
:0E19250081D007D006D0058F828D838EF0749E
:0919330099126CBBA3E4126CBB19
:0A193C00C007C005C006A87108E549
:0C194600712406F9741A26F7E40836092B
:0E195200F70809E6F790056CE0FDA3E0FEA3A0
:0E196000E0FF8D028E038F048D828E838FF048
:0E196E00C002C003C004C007127AABAD82AE47
:0E197C0083D007D004D003D0029003A9EAF074
:0E198A00A3EBF0A3ECF09003ACEDF0A3EEF0B5
:0C199800E5712406F88682088683088624
:0A19A400F0C005C006C007784479C2
:0419AE00997A02120E
:0E19B2000083E582D007D006D005D006D00510
:0819C000D0077004F5828012CB
:0D19C8008F828D838EF0E4126CBBA3E412BD
:0519D5006CBB758202ED
:0619DA00857181D071222D
:0A19E000C071858171C082C083C010
:0C19EA00F0E5812408F581E5712404F883
:0C19F600E4F608F6A87108741A26FFE455
:0D1A02000836FD0886068F828D838EF01257
:0E1A0F007AC3FAA3127AC3FBBA0005BB000229
:021A1D00800C3B
:091A1F00BAB306BB0003021B3838
:031A2800021BC4DA
:0A1A2B00E57124FBF8E5712406F9CB
:0A1A3500E6F70809E6F70809E6F7EE
:0C1A3F00E5712406F8868208868308867C
:0A1A4B00F0127AC3FAE4BA20010495
:0C1A5500700DE5712406F806B6000208CA
:011A6100067E
:021A620080DB27
:0C1A6400E5712406F8740126FAE4083647
:0E1A7000FB0886048A828B838CF0C005C006BA
:0E1A7E00C007126A5EAA82AB83D007D006D0E2
:091A8C0005E4BA0004BB000104EA
:0C1A95006012900364E0FAA3E0FBE5712E
:081AA1002404F8A60208A603C4
:0C1AA9009011E37464F0E4A3F0E57124F4
:0E1AB50004F88682088683C005C006C00712AA
:061AC3006D8A126D3EA8C1
:0C1AC90071080808080808A68208A68317
:0C1AD5009011FB7464F0E4A3F0E57124B0
:0E1AE10004F88682088683127005AC82AA8300
:0C1AEF00E5712406F8E6C0E008E6C0E05F
:0A1AFB00C004C0027491C0E07484BE
:0E1B0500C0E07480C0E090056CE0C0E0A3E09A
:0E1B1300C0E0A3E0C0E01271D1E58124F6F538
:0E1B210081D007D006D0058F828D838EF074A0
:091B2F00B3126CBBA3E4126CBB01
:0A1B3800C007C005C006A87108E54B
:0C1B4200712406F9741A26F7E40836092D
:0E1B4E00F70809E6F790056CE0FDA3E0FEA3A2
:0E1B5C00E0FF8D028E038F048D828E838FF04A
:0E1B6A00C002C003C004C007127AABAD82AE49
:0E1B780083D007D004D003D0029003A9EAF076
:0E1B8600A3EBF0A3ECF09003ACEDF0A3EEF0B7
:0C1B9400E5712406F88682088683088626
:0A1BA000F0C005C006C007784479C4
:041BAA00997A021210
:0E1BAE000083E582D007D006D005D006D00512
:081BBC00D0077004F5828012CD
:0D1BC4008F828D838EF0E4126CBBA3E412BF
:051BD1006CBB758202EF
:061BD600857181D071222F
:0A1BDC00C071E581F5712407F58161
:0E1BE600AA82AB83ACF0741A2AFDE43BFE8C9D
:0C1BF400078D828E838FF0A8710808080E
:0B1C0000127AC3F6A3127AC308F6A8FC
:0C1C0B0071080808B6000608B600028048
:011C170012BA
:0C1C1800A871080808B6CE0708B6000343
:031C2400021DFF9F
:031C2700021E8614
:0A1C2A00E57124FBF8E5712405F9CB
:0A1C3400E6F70809E6F70809E6F7ED
:0C1C3E00C002C003C004E5712405F88654
:0E1C4A00820886830886F0127AC3FAE4BA2074
:021C5800010485
:0C1C5A00D004D003D002700DE571240509
:071C6600F806B600020806B3
:021C6D0080CF26
:0C1C6F00C002C003C004E5712405F87435
:0E1C7B000126FAE40836FB0886048A828B8371
:0E1C89008CF0C004C005C006C007126A5EAA37
:0C1C970082AB83D007D006D005D004A893
:0C1CA3007108A60208A603D004D003D0EC
:071CAF0002209003021D74E6
:0E1CB600C002C003C004C003C004C005C006C5
:071CC400C007784F79807A18
:0C1CCB0003120083AA82D007D006D005C7
:0C1CD700D004D003EA3395E0FBA87108AC
:0D1CE300E6B5020908E6B5030474018001AE
:011CF000E40F
:0E1CF100D004D003D002603EC002C003C00485
:0B1CFF00C005C006C0077497C0E07469
:0C1D0A0084C0E07480C0E090056CE0C074
:0E1D1600E0A3E0C0E0A3E0C0E01271D1E581DF
:0E1D240024FAF581D007D006D005D004D003F4
:051D3200D002021DEFCC
:0D1D3700C002C003C004C005C006C0077490
:0A1D4400ADC0E07484C0E07480C0FC
:0E1D4E00E090056CE0C0E0A3E0C0E0A3E0C0C0
:0E1D5C00E01271D1E58124FAF581D007D0069E
:0A1D6A00D005D004D003D002807B26
:0E1D740030913DC002C003C004C005C006C0CF
:0A1D82000774AFC0E07484C0E07481
:0E1D8C0080C0E090056CE0C0E0A3E0C0E0A3E2
:0E1D9A00E0C0E01271D1E58124FAF581D00796
:0C1DA800D006D005D004D003D002803B50
:0D1DB400C002C003C004C005C006C0077413
:0A1DC100C3C0E07484C0E07480C069
:0E1DCB00E090056CE0C0E0A3E0C0E0A3E0C043
:0E1DD900E01271D1E58124FAF581D007D00621
:081DE700D005D004D003D002A6
:0E1DEF008D828E838FF074CE126CBBA3E41233
:021DFD006CBBBD
:0C1DFF00C005C006C007E5712405F8749B
:0E1E0B001A2AF6E43B08F608A60490056CE0DF
:0E1E1900FDA3E0FEA3E0FF8D028E038F048D7B
:0E1E2700828E838FF0C002C003C004C0071279
:0E1E35007AABAD82AE83D007D004D003D002CA
:0E1E43009003A9EAF0A3EBF0A3ECF09003AC3F
:0C1E5100EDF0A3EEF0E5712405F88682A8
:0D1E5D000886830886F0C005C006C007781F
:041E6A004479997AA4
:0C1E6E0002120083E582D007D006D005E8
:0C1E7A00D007D006D0057004F58280125D
:0D1E86008D828E838FF0E4126CBBA3E412FA
:051E93006CBB7582022A
:061E9800857181D071226A
:0A1E9E00C071E581F5712408F5819B
:0E1EA800AA82AB83ACF0741A2AFDE43BFE8CD8
:0C1EB600078D828E838FF0A8710808123F
:0A1EC2007AC3F6A3127AC308F6A84B
:0C1ECC00710808B6000608B6000280117C
:0C1ED800A8710808B6080708B60103024C
:021EE400229842
:031EE60002231FB5
:0A1EE900E57124FBF8E5712404F90B
:0A1EF300E6F70809E6F70809E6F72C
:0C1EFD00C002C003C004E5712404F88694
:0E1F0900820886830886F0127AC3FAE4BA20B2
:021F17000104C3
:0C1F1900D004D003D002700DE571240448
:071F2500F806B600020806F1
:021F2C0080CF64
:0C1F2E00C002C003C004E5712404F87474
:0E1F3A000126FAE40836FB0886048A828B83AF
:0E1F48008CF0C004C005C006C007126A5EAA75
:0C1F560082AB83D007D006D005D004A8D1
:0A1F62007108A602A87108E4B60198
:021F6C0001046E
:0C1F6E00D004D003D0027027A87108B680
:051F7A000203022043F8
:091F7F00A87108B603030220E971
:091F8800A87108B6040302218FC0
:091F9100A87108B6050302223410
:031F9A0002228799
:0C1F9D00C002C003C00490031DE0FAE580
:0C1FA900712404F8A60208760090031CC6
:0C1FB500E0FCA8710808A6040876009063
:0C1FC100031BE0FBE5712407F8A60308F1
:0E1FCD00760090031AE0FC7A00C002C003C048
:0C1FDB0004C005C006C007E5712404F82E
:0C1FE700E6C0E008E6C0E0A8710808E6CB
:0C1FF300C0E008E6C0E0E5712407F8E655
:0E1FFF00C0E008E6C0E0C004C002901251E04D
:0E200D00C0E0A3E0C0E0A3E0C0E090056CE0FE
:0E201B00C0E0A3E0C0E0A3E0C0E01271D1E598
:0E2029008124F2F581D007D006D005D004D076
:0C20370003D002D004D003D002022287A4
:0C204300C002C003C004900321E0FAE5D5
:0C204F00712407F8A60208760090032018
:0C205B00E0FCE5712404F8A604087600FF
:0C20670090031FE0FBA8710808A6030806
:0E207300760090031EE0FC7A00C002C003C09D
:0C20810004C005C006C007E5712407F884
:0C208D00E6C0E008E6C0E0E5712404F8BD
:0C209900E6C0E008E6C0E0A8710808E618
:0E20A500C0E008E6C0E0C004C002901251E0A6
:0E20B300C0E0A3E0C0E0A3E0C0E090056CE058
:0E20C100C0E0A3E0C0E0A3E0C0E01271D1E5F2
:0E20CF008124F2F581D007D006D005D004D0D0
:0C20DD0003D002D004D003D002022287FE
:0C20E900C002C003C004900325E0FAE52B
:0C20F500712407F8A6020876009003246E
:0C210100E0FCE5712404F8A60408760058
:0C210D00900323E0FBA8710808A603085B
:0E2119007600900322E0FC7A00C002C003C0F2
:0C21270004C005C006C007E5712407F8DD
:0C213300E6C0E008E6C0E0E5712404F816
:0C213F00E6C0E008E6C0E0A8710808E671
:0E214B00C0E008E6C0E0C004C002901251E0FF
:0E215900C0E0A3E0C0E0A3E0C0E090056CE0B1
:0E216700C0E0A3E0C0E0A3E0C0E01271D1E54B
:0E2175008124F2F581D007D006D005D004D029
:0C21830003D002D004D003D00202228757
:0C218F00C002C003C00490032BE0FAE57E
:0C219B00712407F8A60208760090032AC1
:0C21A700E0FCE5712404F8A604087600B2
:0C21B300900329E0FBA8710808A60308AF
:0E21BF007600900328E0FC7A00C002C003C046
:0C21CD0004C005C006C007E5712407F837
:0C21D900E6C0E008E6C0E0E5712404F870
:0C21E500E6C0E008E6C0E0A8710808E6CB
:0E21F100C0E008E6C0E0C004C002901251E059
:0E21FF00C0E0A3E0C0E0A3E0C0E090056CE00B
:0E220D00C0E0A3E0C0E0A3E0C0E01271D1E5A4
:0E221B008124F2F581D007D006D005D004D082
:0B22290003D002D004D003D002805389
:0E223400C002C003C004900326E0FAA3E0FB42
:0E224200C002C003C004C005C006C007C00231
:0A225000C00374CCC0E07484C0E049
:0E225A007480C0E090056CE0C0E0A3E0C0E03E
:0E226800A3E0C0E01271D1E58124F8F581D029
:0E22760007D006D005D004D003D002D004D08B
:0322840003D00282
:0E2287008D828E838FF07408126CBBA37401DD
:03229500126CBB0D
:0C229800C005C006C007E5712404F874FE
:0E22A4001A2AF6E43B08F608A60490056CE042
:0E22B200FDA3E0FEA3E0FF8D028E038F048DDE
:0E22C000828E838FF0C002C003C004C00712DC
:0E22CE007AABAD82AE83D007D004D003D0022D
:0E22DC009003A9EAF0A3EBF0A3ECF09003ACA2
:0C22EA00EDF0A3EEF0E5712404F886820C
:0D22F6000886830886F0C005C006C0077882
:042303004479997A06
:0C23070002120083E582D007D006D0054A
:0C231300D007D006D0057004F5828012BF
:0D231F008D828E838FF0E4126CBBA3E4125C
:05232C006CBB7582028C
:06233100857181D07122CC
:0A233700C071858171C082C083C0AF
:0C234100F0058105810581A87108741A5F
:0E234D0026FDE40836FE0886078D828E838FFB
:0E235B00F0127AC3FAA3127AC3FBBA0005BBD4
:042369000002800CE2
:09236D00BA3606BB0103022490FC
:0323760002251C21
:0A237900E57124FBF8E5712404F976
:0A238300E6F70809E6F70809E6F797
:0C238D00E5712404F88682088683088627
:0A239900F0127AC3FAE4BA2001043E
:0C23A300700DE5712404F806B600020875
:0123AF000627
:0223B00080DBD0
:0C23B200E5712404F8740126FAE40836F2
:0E23BE00FB0886048A828B838CF0C005C00663
:0E23CC00C007126A5EAA82D007D006D0058A2A
:0623DA0003E4BB00010456
:0723E0007014BB010280171D
:0523E700BB0202801A98
:0523EC00BB0302801D8F
:0523F100BB0428802060
:0823F600900390E0FAFB801E49
:0823FE00900358E0FAFB801681
:0824060090035BE0FAFB800E7D
:08240E0090035EE0FAFB80067A
:06241600900361E0FAFBF7
:0C241C00EB6031C005C006C00774CFC0E3
:0C242800E07484C0E07480C0E090056C9B
:0E243400E0C0E0A3E0C0E0A3E0C0E01271D180
:0E244200E58124FAF581D007D006D005802F61
:0B245000C005C006C00774ADC0E074FA
:0C245B0084C0E07480C0E090056CE0C01C
:0E246700E0A3E0C0E0A3E0C0E01271D1E58187
:0A24750024FAF581D007D006D00547
:0E247F008D828E838FF07436126CBBA37401B5
:03248D00126CBB13
:0A249000C005C006C007A87108E5EA
:0C249A00712404F9741A26F7E4083609CE
:0E24A600F70809E6F790056CE0FDA3E0FEA341
:0E24B400E0FF8D028E038F048D828E838FF0E9
:0E24C200C002C003C004C007127AABAD82AEE8
:0E24D00083D007D004D003D0029003A9EAF015
:0E24DE00A3EBF0A3ECF09003ACEDF0A3EEF056
:0C24EC00E5712404F886820886830886C7
:0A24F800F0C005C006C00778447963
:04250200997A0212AE
:0E2506000083E582D007D006D005D007D006AE
:08251400D0057004F58280126D
:0D251C008D828E838FF0E4126CBBA3E4125D
:052529006CBB7582028D
:06252E00857181D07122CD
:0A253400C071E581F5712409F581FD
:0C253E00AA82AB83ACF0A8710808E4F698
:0E254A0008F6087600741A2AFDE43BFE8C07A2
:0C2558008D828E838FF0E5712405F8124F
:0A2564007AC3F6A3127AC308F6E565
:0C256E00712405F8B6000608B6000280D3
:01257A00124E
:0C257B00E5712405F8B6620708B60103FC
:032587000226CE5B
:03258A00022755D0
:0A258D00E57124FBF8E5712407F95D
:0A259700E6F70809E6F70809E6F781
:0C25A100C002C003C004E5712407F886E6
:0E25AD00820886830886F0127AC3FAE4BA2008
:0225BB00010419
:0C25BD00D004D003D002700DE57124079B
:0725C900F806B60002080647
:0225D00080CFBA
:0C25D200C002C003C004E5712407F874C7
:0E25DE000126FAE40836FB0886048A828B8305
:0E25EC008CF0C004C005C006C007126A5EAACB
:0C25FA0082AB83D007D006D005D004A827
:0A2606007108A602A87108E4B601ED
:022610000104C3
:0C261200D004D003D0027018A87108B6E4
:04261E000202801E16
:08262200A87108B60302802430
:08262A00A87108B60438802AEB
:08263200A8710808766808761B
:06263A0003087600802871
:08264000A871080876860876EF
:0626480003087600801A71
:08264E00A8710808763A08762D
:0626560003087600800C71
:08265C00A8710808762E08762B
:0426640003087600F1
:0C266800A8710808E608460846604AC051
:0C26740002C003C004C005C006C007A8D7
:0C268000710808E6C0E008E6C0E008E6CB
:0A268C00C0E074D7C0E07484C0E021
:0E2696007480C0E090056CE0C0E0A3E0C0E0FE
:0E26A400A3E0C0E01271D1E58124F7F581D0EA
:0B26B20007D006D005D004D003D002F2
:0E26BD008D828E838FF07462126CBBA3740149
:0326CB00126CBBD3
:0C26CE00C005C006C007E5712407F874C1
:0E26DA001A2AF6E43B08F608A60490056CE008
:0E26E800FDA3E0FEA3E0FF8D028E038F048DA4
:0E26F600828E838FF0C002C003C004C00712A2
:0E2704007AABAD82AE83D007D004D003D002F2
:0E2712009003A9EAF0A3EBF0A3ECF09003AC67
:0C272000EDF0A3EEF0E5712407F88682CE
:0D272C000886830886F0C005C006C0077847
:042739004479997ACC
:0C273D0002120083E582D007D006D00510
:0C274900D007D006D0057004F582801285
:0D2755008D828E838FF0E4126CBBA3E41222
:052762006CBB75820252
:06276700857181D0712292
:0A276D00C071E581F5712413F581B8
:0C277700AA82AB83ACF0E5712411F87469
:0C2783001A2AF6E43B08F608A604E571EB
:0E278F002411F886820886830886F0127AC329
:0E279D00FDA3127AC3FEBD0005BE0002800C33
:0927AB00BD9306BE01030229FBE7
:0327B400022A6690
:0C27B700E57124FBF886050886060886FC
:0127C300070E
:0D27C400C002C003C0048D828E838FF0120E
:0827D1007AC3FAE4BA20010406
:0E27D900D004D003D00270070DBD00DF0E80CB
:0127E700DC15
:0E27E800C002C003C00474012DFAE43EFB8F52
:0E27F600048A828B838CF0C004126A5EAA8271
:0B280400AB83D0048A05E4BD01010491
:0D280F00D004D003D0027005BD0276803ADF
:0A281C00C002C003C00478B779942D
:062826007A03120083A8F2
:0C282C007108A68208A68308A6F008F632
:0A283800D004D003D002A87108E517
:0C28420071240DF9E6F70809E6F7080913
:08284E00E6F70809E6F78047F0
:0A285600C002C003C004782D79957C
:062860007A03120083A8B8
:0C2866007108A68208A68308A6F008F6F8
:0A287200D004D003D002A87108E5DD
:0C287C0071240DF9E6F70809E6F70809D9
:08288800E6F70809E6F7800DF0
:0C289000E571240DF8E4F608F608F608DF
:01289C00F645
:0E289D00C002C003C0049011967464F0E4A35E
:0C28AB00F0A3F0A3F0E571240DF8868284
:0E28B7000886830886F008E6C002C003C0044D
:0C28C500126642C0E0E5712409F8D0E082
:0C28D100A68208A68308A6F008F6E571B0
:0E28DD00240990119E7410F0A3740EF0A3E471
:0C28EB00F0A3F0E5712409F8868208864D
:0C28F700830886F008E612670AA8710842
:0E29030008080808A68208A68308A6F008F6B1
:0B291100D004D003D002E5712405E5DE
:0C291C00712405F89011E7E6F008A3E62E
:0E292800F008A3E6F008A3E6F0900E10E4F528
:0C293600F0126DF8AC82AD83AAF0FBE556
:0C294200712409F8E6C39CFC08E69DFD2A
:0E294E0008E69AFA08E69BFB90119E743CF096
:0E295C00E4A3F0A3F0A3F08C828D838AF0EB4D
:0C296A0012670AAA82E5712409F88603AE
:0C297600E5712405F8E6C454F0FEEBC344
:0E2982009EFBEA75F03CA4FCEBC39CFB7C00C2
:0E2990007D00C002C003C004C003C004C0022A
:0C299E00C005E5712405F8E6C0E008E67D
:0C29AA00C0E008E6C0E008E6C0E074DA17
:0B29B600C0E07484C0E07480C0E090BA
:0E29C100056CE0C0E0A3E0C0E0A3E0C0E012BF
:0E29CF0071D1E58124F2F581D004D003D0024D
:0C29DD00E5712411F886820886830886C4
:0E29E900F07493126CBBA37401126CBBD0048B
:0429F700D003D00237
:0C29FB00E571240DF8741A2AF6E43B087C
:0E2A0700F608A60490056CE0FDA3E0FEA3E037
:0E2A1500FF8D028E038F048D828E838FF0C0A2
:0E2A230002C003C004127AABAD82AE83D004B1
:0E2A3100D003D0029003A9EAF0A3EBF0A3ECCF
:0C2A3F00F09003ACEDF0A3EEF0E5712484
:0C2A4B000DF886820886830886F0784427
:052A570079997A0212DA
:0A2A5C000083E5827004F582801902
:0C2A6600E5712411F8868208868308863A
:0D2A7200F0E4126CBBA3E4126CBB75820291
:062A7F00857181D0712277
:0A2A8500C071E581F5712406F581AA
:0E2A8F00AA82AB83ACF0741A2AFDE43BFE8CE5
:0D2A9D00078D828E838FF0127AC3F8A3128A
:0B2AAA007AC3F9B80005B90002800BE8
:082AB500B8A105B90102805B24
:032ABD00022BB039
:0E2AC00090032CE0F8A3E0F9C002C003C004AC
:0C2ACE00C005C006C007C000C00174CCE9
:0B2ADA00C0E07484C0E07480C0E09095
:0E2AE500056CE0C0E0A3E0C0E0A3E0C0E0129A
:0E2AF30071D1E58124F8F581D007D006D00519
:0E2B0100D004D003D0028D828E838FF074A199
:092B0F00126CBBA37401126CBB33
:0C2B1800C005C006C007A87108741A2A86
:0C2B2400F6E43B08F608A60490056CE5FA
:0C2B3000712404F8E0F6A3E008F6A3E02E
:0C2B3C0008F6E5712404F88606088607F8
:0C2B4800088602E5712404F886820886E5
:0D2B5400830886F0C002C005C006C007124D
:0E2B61007AABAB82AC83D007D006D005D00291
:0E2B6F009003A9EEF0A3EFF0A3EAF09003AC00
:0C2B7D00EBF0A3ECF0A87108868208863B
:0C2B8900830886F0C005C006C007784431
:052B950079997A02129B
:0E2B9A000083E582D007D006D005D007D00614
:082BA800D0057004F5828012D3
:0D2BB0008D828E838FF0E4126CBBA3E412C3
:052BBD006CBB758202F3
:062BC200857181D0712233
:03846900F4848018
:02846C009E1E52
:03846E00FF848008
:02847100852A5A
:03847300088580F9
:028476004517A8
:03847800118580EB
:02847B00DC1B08
:03847D001A8580DD
:028480003723A0
:03848200248580CE
:0284850034259C
:038487002F8580BE
:02848A006D275C
:03848C00378580B1
:02848F00E019F2
:0684910025642E256400A5
:0E849700562661756D6C3B726D6172652070CA
:0884A500266172696E673B005D
:0284AD002000AD
:0E84AF00466C2661756D6C3B6B742070266107
:0684BD0072696E673B00CE
:0984C300456A20616B74697600C2
:0384CC0025750013
:0884CF00636865636B656400DE
:0384D7002573000A
:0E84DA00256C643A253032643A253032640055
:0C84E80025642E25642E25642E256400DA
:0B84F4006765742D69702D6E756D00BA
:0984FF006765742D706F72740042
:098508006765742D74656D700047
:098511006765742D737461740038
:0A851A006765742D636865636B00EC
:0B8524006765742D737472696E670048
:08852F006765742D696E74008C
:098537006765742D667261630032
:03AA49006984809D
:03AA4C006E848095
:03AA4F007384808D
:03AA520078848085
:03AA55007D84807D
:03AA580082848075
:03AA5B008784806D
:06AA5E008C848000000062
:03AA6400E8848003
:0A2BC800C071858171C082C083C016
:032BD200F07D0093
:0C2BD500E57124FBF8ED26FEE40836FF55
:0E2BE1000886028E828F838AF0127AC3FB6010
:0C2BEF001FA87108ED26FEE40836FF0860
:0E2BFB0086028E828F838AF0127AC3FABA0D98
:032C090002800343
:032C0C00BA0A05FC
:052C0F00758200800E3B
:062C1400EAB50302800591
:052C1A0075820180033A
:032C1F000D80B372
:062C2200857181D07122D2
:0A2C2800C071858171C082C083C0B5
:0C2C3200F0E5812408F581E5712407F825
:0A2C3E00E4F608F6E5712404F876C8
:0A2C4800A80876A60876807C007AC2
:012C52000081
:0C2C5300E5712404F8B6000B08B6000779
:072C5F0008B60003022D94EA
:0C2C6600E5712404F8740326FBE4083632
:0E2C7200FF0886058B828F838DF0127AC3FBDC
:0E2C8000A3127AC3FFA3127AC3FDC002C004E0
:0C2C8E00C003C007C005A87108868208BA
:0E2C9A0086830886F0122BC8AB821581158147
:0C2CA8001581D004D002EB6003022D6304
:0C2CB400E57124FBF886020886040886FF
:0C2CC00007E5712404F8740626FEE40801
:0E2CCC0036FB0886058E828B838DF0127AC34C
:0E2CDA00FEA3127AC3FBA3127AC3FD8A828C7A
:0E2CE800838FF0EE126CBBA3EB126CBBA3ED5E
:0D2CF600126CBB74032AFAE43CFC8F06E567
:0C2D0300712404F8740926FFE40836FB74
:0E2D0F000886058F828B838DF0127AC3FFA396
:0E2D1D00127AC3FB8A828C838EF0EF126CBB9D
:0C2D2B00A3EB126CBBE5712407F88603D3
:0C2D370008E6CB25E0CB33FDEB24C5FB08
:0C2D4300ED3400FD8B828D83E0FEA3E0E8
:062D4F00FF0EBE00010FA3
:0E2D55008B828D83EEF0A3EFF09000018034AE
:052D63000CBC00010A98
:0B2D6800E5712407F8A60408A602E5A8
:0C2D7300712404F886820886830886F02C
:0E2D7F00127AC31818F6A3127AC308F6A3122C
:072D8D007AC308F6022C5383
:032D9400900000AC
:062D9700857181D071225C
:042D9D007A007B003D
:0E2DA100C3EA940BEB9400501E8A04EBCC2581
:0B2DAF00E0CC33FDEC24C5F582ED34D0
:0C2DBA0000F583E4F0A3F00ABA00DC0B83
:022DC60080D9B2
:012DC80022E8
:0A2DC900C071858171C082C083C013
:0C2DD300F0058105810581E4FDFEE5713D
:0A2DDF002404F876A80876A608760A
:052DE900807C007A006F
:0C2DEE00E5712404F8B6000B08B60007DD
:072DFA0008B60003022EA53C
:0C2E0100C005C006E5712404F874032627
:0E2E0D00FBE40836FF0886058B828F838DF06C
:0B2E1B00127AC3FBA3127AC3FFA312BC
:0E2E26007AC3FDC002C004C005C006C003C0D0
:0C2E340007C005A8710886820886830884
:0E2E400086F0122BC8AB82158115811581D04A
:0E2E4E0006D005D004D002D006D005EB701ED1
:0C2E5C008D03EECB25E0CB33FFEB24C54B
:0C2E6800F582EF3400F583E0FBA3E0FFEF
:062E74008B828F83802E8B
:052E7A000CBC00010A80
:0C2E7F008C058A06E5712404F8868208A0
:0D2E8B0086830886F0127AC31818F6A31289
:0B2E98007AC308F6A3127AC308F60202
:022EA3002DEE12
:032EA5009000009A
:062EA800857181D071224A
:0E8540002F3430312E68746D6C003C21444F96
:0E854E0043545950452048544D4C205055423E
:0E855C004C494320222D2F2F5733432F2F44FD
:0E856A0054442048544D4C20342E30312054BF
:0E85780072616E736974696F6E616C2F2F45AE
:0E8586004E222022687474703A2F2F77777778
:0E8594002E77332E6F72672F54522F68746D3E
:0E85A2006C342F6C6F6F73652E647464223E10
:0E85B0000D0A3C68746D6C3E3C686561643E6B
:0E85BE003C7469746C653E56442056C3A47824
:0E85CC0074687573205465726D6F73746174FA
:0E85DA0020213C2F7469746C653E0D0A3C6CC8
:0E85E800696E6B2072656C3D227374796C6550
:0E85F60073686565742220747970653D227487
:0E8604006578742F6373732220687265663D7B
:0E861200227374796C652E637373223E0D0A19
:0E8620003C2F686561643E3C626F64793E3CAD
:0E862E0063656E7465723E0A3C68313E3430FE
:0E863C0031202D20417574656E74697365726E
:0E864A00696E67206D6973736C79636B616490
:0E86580065733C2F68313E0A3C68333E47C3D1
:0E866600A5203C6120687265663D222F223EF1
:0E8674007669646172653C2F613E2E3C2F6872
:0E868200333E0A3C2F63656E7465723E3C2FDA
:0E869000626F64793E3C2F68746D6C3E0D0A7B
:01869E0000DB
:0E869F002F3430342E68746D6C003C21444F33
:0E86AD0043545950452048544D4C20505542DE
:0E86BB004C494320222D2F2F5733432F2F449D
:0E86C90054442048544D4C20342E303120545F
:0E86D70072616E736974696F6E616C2F2F454E
:0E86E5004E222022687474703A2F2F77777718
:0E86F3002E77332E6F72672F54522F68746DDE
:0E8701006C342F6C6F6F73652E647464223EAF
:0E870F000D0A3C68746D6C3E3C686561643E0A
:0E871D003C7469746C653E56442056C3A478C3
:0E872B0074687573205465726D6F7374617499
:0E87390020213C2F7469746C653E0D0A3C6C67
:0E874700696E6B2072656C3D227374796C65EF
:0E87550073686565742220747970653D227426
:0E8763006578742F6373732220687265663D1B
:0E877100227374796C652E637373223E0D0AB9
:0E877F003C2F686561643E3C626F64793E3C4D
:0E878D0063656E7465723E0D0A3C68313E34C1
:0E879B003034202D20486974746164652065B7
:0E87A9006A2066696C656E3C2F68313E0D0AD1
:0E87B7003C68333E47C3A5203C6120687265D4
:0E87C500663D222F223E7669646172653C2F6C
:0E87D300613E2E3C2F68333E0D0A3C2F63653D
:0E87E1006E7465723E3C2F626F64793E3C2FD1
:0887EF0068746D6C3E0D0A0078
:0E87F7002F666F6F7465722E68746D6C003C97
:0E8805002F6469763E0A20203C646976206369
:0E8813006C6173733D22666F6F74223E0A2003
:0E882100203C64697620636C6173733D2266AF
:0E882F006F6F74626F78223E26636F70793B24
:0E883D00203230303920496E766563746F72D8
:0E884B0020456D626564646564205465636851
:0E8859002E3C2F6469763E0A20203C6469762E
:0E88670020636C6173733D22666F6F74626FE5
:0E88750078223E3C6120687265663D22687480
:0E88830074703A2F2F7777772E696E766563C3
:0E889100746F722E73652220746172676574B5
:0E889F003D225F626C616E6B223E7777772E12
:0E88AD00696E766563746F722E73653C2F6181
:0E88BB003E3C2F6469763E0A20203C646976BC
:0E88C90020636C6173733D22666F6F74626F83
:0E88D70078223E2B34362037363820353832A2
:0E88E5003234303C2F6469763E0A20203C6419
:0E88F300697620636C6173733D22666F6F744B
:0E890100626F78223E4D6963726F73697A650A
:0E890F006420382D62697420706F77657220C5
:0E891D00213C2F6469763E0A20203C62723EA7
:0E892B000A20203C2F6469763E0A0A20203C78
:0E8939002F626F64793E0A3C2F68746D6C3EAD
:038947000D0A0016
:0E894A002F6865616465722E68746D6C003C68
:0E89580021444F43545950452048544D4C2063
:0E8966005055424C494320222D2F2F573343AA
:0E8974002F2F4454442048544D4C20342E30B4
:0E89820031205472616E736974696F6E616C9E
:0E8990002F2F454E222022687474703A2F2F2C
:0E899E007777772E77332E6F72672F54522F14
:0E89AC0068746D6C342F6C6F6F73652E64747D
:0E89BA0064223E0A3C68746D6C3E3C68656148
:0E89C800643E3C7469746C653E56442056E46F
:0E89D6007874687573205465726D6F737461E8
:0E89E4007420213C2F7469746C653E0A3C6C53
:0E89F200696E6B2072656C3D227374796C6542
:0E8A000073686565742220747970653D227478
:0E8A0E006578742F6373732220687265663D6D
:0E8A1C00227374796C652E637373223E0A3CDC
:0E8A2A002F686561643E3C626F64792062676C
:0E8A3800636F6C6F723D222366666665656330
:0E8A46002220746578743D22626C61636B229D
:0E8A54003E3C63656E7465723E564456542077
:0E8A6200312E313C2F63656E7465723E0A3C06
:0E8A700064697620636C6173733D226D656EE0
:0E8A7E0075223E3C7370616E20636C617373F1
:0E8A8C003D22686C696E6B73223E0A3C646981
:0E8A9A007620636C6173733D226D656E7562AC
:0E8AA8006F78223E3C6120687265663D222F89
:0E8AB600223E456E6865747373746174757347
:0E8AC4003C2F613E3C2F6469763E0A3C64699B
:0E8AD2007620636C6173733D226D656E756274
:0E8AE0006F78223E3C6120687265663D225F21
:0E8AEE0074656D707365742E7368746D6C2200
:0E8AFC003E54656D70657261747572696E73BB
:0E8B0A0074E46C6C6E696E6761723C2F613EA4
:0E8B18003C2F6469763E0A3C64697620636CEB
:0E8B26006173733D226D656E75626F78223E3D
:0E8B34003C6120687265663D225F6E65747359
:0E8B420065742E7368746D6C223E4EE474767A
:0E8B500065726B73696E7374E46C6C6E696EA3
:0E8B5E006761723C2F613E3C2F6469763E0ACF
:0E8B6C003C64697620636C6173733D226D6515
:0E8B7A006E75626F78223E3C612068726566FF
:0E8B88003D225F6D656A6C7365742E736874B0
:0E8B96006D6C223E4D656A6C696E7374E46C02
:0E8BA4006C6E696E6761723C2F613E3C2F64FF
:0E8BB20069763E0D0A3C64697620636C61733F
:0E8BC000733D226D656E75626F78223E3C61DA
:0E8BCE0020687265663D225F706F7765727376
:0E8BDC0065742E7368746D6C223ED6767269D5
:0E8BEA00676120496E7374E46C6C6E696E678F
:0E8BF80061723C2F613E3C2F6469763E0D0A8F
:0E8C06003C2F7370616E3E3C62723E3C2F64E8
